{"contracts/MetaWorkspaceNFT.sol":{"MetaWorkspaceNFT":{"abi":[{"inputs":[],"stateMutability":"nonpayable","type":"constructor"},{"inputs":[],"name":"ERC721EnumerableForbiddenBatchMint","type":"error"},{"inputs":[{"internalType":"address","name":"sender","type":"address"},{"internalType":"uint256","name":"tokenId","type":"uint256"},{"internalType":"address","name":"owner","type":"address"}],"name":"ERC721IncorrectOwner","type":"error"},{"inputs":[{"internalType":"address","name":"operator","type":"address"},{"internalType":"uint256","name":"tokenId","type":"uint256"}],"name":"ERC721InsufficientApproval","type":"error"},{"inputs":[{"internalType":"address","name":"approver","type":"address"}],"name":"ERC721InvalidApprover","type":"error"},{"inputs":[{"internalType":"address","name":"operator","type":"address"}],"name":"ERC721InvalidOperator","type":"error"},{"inputs":[{"internalType":"address","name":"owner","type":"address"}],"name":"ERC721InvalidOwner","type":"error"},{"inputs":[{"internalType":"address","name":"receiver","type":"address"}],"name":"ERC721InvalidReceiver","type":"error"},{"inputs":[{"internalType":"address","name":"sender","type":"address"}],"name":"ERC721InvalidSender","type":"error"},{"inputs":[{"internalType":"uint256","name":"tokenId","type":"uint256"}],"name":"ERC721NonexistentToken","type":"error"},{"inputs":[{"internalType":"address","name":"owner","type":"address"},{"internalType":"uint256","name":"index","type":"uint256"}],"name":"ERC721OutOfBoundsIndex","type":"error"},{"inputs":[{"internalType":"address","name":"owner","type":"address"}],"name":"OwnableInvalidOwner","type":"error"},{"inputs":[{"internalType":"address","name":"account","type":"address"}],"name":"OwnableUnauthorizedAccount","type":"error"},{"anonymous":false,"inputs":[{"indexed":true,"internalType":"address","name":"user","type":"address"},{"indexed":false,"internalType":"uint256","name":"payment","type":"uint256"},{"indexed":false,"internalType":"uint256","name":"timestamp","type":"uint256"}],"name":"AIAccessGranted","type":"event"},{"anonymous":false,"inputs":[{"indexed":false,"internalType":"uint256","name":"oldPrice","type":"uint256"},{"indexed":false,"internalType":"uint256","name":"newPrice","type":"uint256"},{"indexed":false,"internalType":"uint256","name":"timestamp","type":"uint256"}],"name":"AIAccessPriceUpdated","type":"event"},{"anonymous":false,"inputs":[{"indexed":true,"internalType":"address","name":"user","type":"address"},{"indexed":true,"internalType":"address","name":"revokedBy","type":"address"},{"indexed":false,"internalType":"uint256","name":"timestamp","type":"uint256"}],"name":"AIAccessRevoked","type":"event"},{"anonymous":false,"inputs":[{"indexed":true,"internalType":"address","name":"user","type":"address"},{"indexed":true,"internalType":"string","name":"roomId","type":"string"},{"indexed":false,"internalType":"string","name":"username","type":"string"}],"name":"AccessGranted","type":"event"},{"anonymous":false,"inputs":[{"indexed":true,"internalType":"address","name":"owner","type":"address"},{"indexed":true,"internalType":"address","name":"approved","type":"address"},{"indexed":true,"internalType":"uint256","name":"tokenId","type":"uint256"}],"name":"Approval","type":"event"},{"anonymous":false,"inputs":[{"indexed":true,"internalType":"address","name":"owner","type":"address"},{"indexed":true,"internalType":"address","name":"operator","type":"address"},{"indexed":false,"internalType":"bool","name":"approved","type":"bool"}],"name":"ApprovalForAll","type":"event"},{"anonymous":false,"inputs":[{"indexed":true,"internalType":"address","name":"creator","type":"address"},{"indexed":true,"internalType":"string","name":"roomId","type":"string"},{"indexed":false,"internalType":"uint256","name":"amount","type":"uint256"},{"indexed":false,"internalType":"uint256","name":"timestamp","type":"uint256"}],"name":"CreatorEarningsWithdrawn","type":"event"},{"anonymous":false,"inputs":[{"indexed":true,"internalType":"uint256","name":"tokenId","type":"uint256"},{"indexed":true,"internalType":"address","name":"creator","type":"address"},{"indexed":true,"internalType":"string","name":"roomId","type":"string"},{"indexed":false,"internalType":"uint8","name":"contentType","type":"uint8"},{"indexed":false,"internalType":"string","name":"ipfsHash","type":"string"}],"name":"NFTMinted","type":"event"},{"anonymous":false,"inputs":[{"indexed":true,"internalType":"address","name":"previousOwner","type":"address"},{"indexed":true,"internalType":"address","name":"newOwner","type":"address"}],"name":"OwnershipTransferred","type":"event"},{"anonymous":false,"inputs":[{"indexed":true,"internalType":"string","name":"roomId","type":"string"},{"indexed":false,"internalType":"string","name":"activityType","type":"string"},{"indexed":false,"internalType":"address","name":"user","type":"address"},{"indexed":false,"internalType":"uint256","name":"timestamp","type":"uint256"}],"name":"RoomActivity","type":"event"},{"anonymous":false,"inputs":[{"indexed":true,"internalType":"string","name":"roomId","type":"string"},{"indexed":false,"internalType":"string","name":"name","type":"string"},{"indexed":false,"internalType":"bool","name":"isPublic","type":"bool"},{"indexed":true,"internalType":"address","name":"creator","type":"address"}],"name":"RoomCreated","type":"event"},{"anonymous":false,"inputs":[{"indexed":true,"internalType":"string","name":"roomId","type":"string"},{"indexed":false,"internalType":"uint256","name":"oldPrice","type":"uint256"},{"indexed":false,"internalType":"uint256","name":"newPrice","type":"uint256"},{"indexed":true,"internalType":"address","name":"updatedBy","type":"address"}],"name":"RoomJoinPriceUpdated","type":"event"},{"anonymous":false,"inputs":[{"indexed":true,"internalType":"address","name":"user","type":"address"},{"indexed":true,"internalType":"string","name":"roomId","type":"string"},{"indexed":false,"internalType":"uint256","name":"fee","type":"uint256"},{"indexed":false,"internalType":"uint256","name":"timestamp","type":"uint256"}],"name":"RoomJoined","type":"event"},{"anonymous":false,"inputs":[{"indexed":true,"internalType":"string","name":"roomId","type":"string"},{"indexed":false,"internalType":"string","name":"newName","type":"string"},{"indexed":false,"internalType":"bool","name":"isPublic","type":"bool"},{"indexed":true,"internalType":"address","name":"updatedBy","type":"address"}],"name":"RoomUpdated","type":"event"},{"anonymous":false,"inputs":[{"indexed":true,"internalType":"address","name":"from","type":"address"},{"indexed":true,"internalType":"address","name":"to","type":"address"},{"indexed":true,"internalType":"uint256","name":"tokenId","type":"uint256"}],"name":"Transfer","type":"event"},{"anonymous":false,"inputs":[{"indexed":true,"internalType":"uint256","name":"tokenId","type":"uint256"},{"indexed":true,"internalType":"string","name":"roomId","type":"string"},{"indexed":false,"internalType":"string","name":"ipfsHash","type":"string"},{"indexed":false,"internalType":"uint256","name":"duration","type":"uint256"}],"name":"VideoNFTCreated","type":"event"},{"anonymous":false,"inputs":[{"indexed":true,"internalType":"uint256","name":"tokenId","type":"uint256"},{"indexed":true,"internalType":"string","name":"roomId","type":"string"},{"indexed":false,"internalType":"string","name":"ipfsHash","type":"string"},{"indexed":false,"internalType":"uint256","name":"duration","type":"uint256"}],"name":"VoiceNFTCreated","type":"event"},{"anonymous":false,"inputs":[{"indexed":true,"internalType":"address","name":"to","type":"address"},{"indexed":false,"internalType":"uint256","name":"amount","type":"uint256"},{"indexed":false,"internalType":"uint256","name":"timestamp","type":"uint256"}],"name":"WithdrawalMade","type":"event"},{"inputs":[{"internalType":"string","name":"roomId","type":"string"},{"internalType":"string","name":"username","type":"string"}],"name":"addToWhitelist","outputs":[],"stateMutability":"nonpayable","type":"function"},{"inputs":[],"name":"aiAccessPrice","outputs":[{"internalType":"uint256","name":"","type":"uint256"}],"stateMutability":"view","type":"function"},{"inputs":[{"internalType":"address","name":"to","type":"address"},{"internalType":"uint256","name":"tokenId","type":"uint256"}],"name":"approve","outputs":[],"stateMutability":"nonpayable","type":"function"},{"inputs":[{"internalType":"address","name":"owner","type":"address"}],"name":"balanceOf","outputs":[{"internalType":"uint256","name":"","type":"uint256"}],"stateMutability":"view","type":"function"},{"inputs":[{"internalType":"address","name":"user","type":"address"}],"name":"checkAIAccess","outputs":[{"internalType":"bool","name":"","type":"bool"}],"stateMutability":"view","type":"function"},{"inputs":[{"internalType":"string","name":"roomId","type":"string"},{"internalType":"string","name":"name","type":"string"},{"internalType":"string[]","name":"farcasterWhitelist","type":"string[]"},{"internalType":"bool","name":"isPublic","type":"bool"},{"internalType":"uint256","name":"joinPrice","type":"uint256"}],"name":"createRoom","outputs":[],"stateMutability":"nonpayable","type":"function"},{"inputs":[{"internalType":"uint256","name":"tokenId","type":"uint256"}],"name":"getApproved","outputs":[{"internalType":"address","name":"","type":"address"}],"stateMutability":"view","type":"function"},{"inputs":[{"internalType":"uint256","name":"tokenId","type":"uint256"}],"name":"getContent","outputs":[{"components":[{"internalType":"string","name":"ipfsHash","type":"string"},{"internalType":"enum MetaWorkspaceNFT.ContentType","name":"contentType","type":"uint8"},{"internalType":"string","name":"roomId","type":"string"},{"internalType":"address","name":"creator","type":"address"},{"internalType":"uint256","name":"duration","type":"uint256"},{"internalType":"string[]","name":"participants","type":"string[]"},{"internalType":"string","name":"metadata","type":"string"},{"internalType":"uint256","name":"timestamp","type":"uint256"},{"internalType":"bool","name":"isPrivate","type":"bool"},{"internalType":"string[]","name":"whitelistedUsers","type":"string[]"}],"internalType":"struct MetaWorkspaceNFT.NFTContent","name":"","type":"tuple"}],"stateMutability":"view","type":"function"},{"inputs":[{"internalType":"string","name":"roomId","type":"string"}],"name":"getRoomContent","outputs":[{"internalType":"uint256[]","name":"","type":"uint256[]"}],"stateMutability":"view","type":"function"},{"inputs":[{"internalType":"string","name":"roomId","type":"string"}],"name":"getRoomMemberCount","outputs":[{"internalType":"uint256","name":"","type":"uint256"}],"stateMutability":"view","type":"function"},{"inputs":[{"internalType":"string","name":"roomId","type":"string"}],"name":"getRoomMembers","outputs":[{"internalType":"address[]","name":"","type":"address[]"}],"stateMutability":"view","type":"function"},{"inputs":[{"internalType":"address","name":"user","type":"address"}],"name":"grantAIAccess","outputs":[],"stateMutability":"nonpayable","type":"function"},{"inputs":[{"internalType":"address","name":"","type":"address"}],"name":"hasAIAccess","outputs":[{"internalType":"bool","name":"","type":"bool"}],"stateMutability":"view","type":"function"},{"inputs":[{"internalType":"uint256","name":"tokenId","type":"uint256"},{"internalType":"string","name":"username","type":"string"}],"name":"hasAccess","outputs":[{"internalType":"bool","name":"","type":"bool"}],"stateMutability":"view","type":"function"},{"inputs":[{"internalType":"address","name":"owner","type":"address"},{"internalType":"address","name":"operator","type":"address"}],"name":"isApprovedForAll","outputs":[{"internalType":"bool","name":"","type":"bool"}],"stateMutability":"view","type":"function"},{"inputs":[{"internalType":"string","name":"roomId","type":"string"},{"internalType":"address","name":"user","type":"address"}],"name":"isRoomMember","outputs":[{"internalType":"bool","name":"","type":"bool"}],"stateMutability":"view","type":"function"},{"inputs":[{"internalType":"string","name":"roomId","type":"string"},{"internalType":"string","name":"username","type":"string"}],"name":"isUserWhitelisted","outputs":[{"internalType":"bool","name":"","type":"bool"}],"stateMutability":"view","type":"function"},{"inputs":[{"internalType":"string","name":"roomId","type":"string"}],"name":"joinRoom","outputs":[],"stateMutability":"payable","type":"function"},{"inputs":[{"internalType":"address","name":"to","type":"address"},{"internalType":"string","name":"ipfsHash","type":"string"},{"internalType":"uint256","name":"duration","type":"uint256"},{"internalType":"string","name":"roomId","type":"string"},{"internalType":"string[]","name":"participants","type":"string[]"},{"internalType":"string","name":"summary","type":"string"},{"internalType":"string[]","name":"whitelistedUsers","type":"string[]"}],"name":"mintVideoNFT","outputs":[{"internalType":"uint256","name":"","type":"uint256"}],"stateMutability":"nonpayable","type":"function"},{"inputs":[{"internalType":"address","name":"to","type":"address"},{"internalType":"string","name":"ipfsHash","type":"string"},{"internalType":"uint256","name":"duration","type":"uint256"},{"internalType":"string","name":"roomId","type":"string"},{"internalType":"string[]","name":"whitelistedUsers","type":"string[]"},{"internalType":"string","name":"transcription","type":"string"}],"name":"mintVoiceNFT","outputs":[{"internalType":"uint256","name":"","type":"uint256"}],"stateMutability":"nonpayable","type":"function"},{"inputs":[],"name":"name","outputs":[{"internalType":"string","name":"","type":"string"}],"stateMutability":"view","type":"function"},{"inputs":[],"name":"owner","outputs":[{"internalType":"address","name":"","type":"address"}],"stateMutability":"view","type":"function"},{"inputs":[{"internalType":"uint256","name":"tokenId","type":"uint256"}],"name":"ownerOf","outputs":[{"internalType":"address","name":"","type":"address"}],"stateMutability":"view","type":"function"},{"inputs":[],"name":"purchaseAIAccess","outputs":[],"stateMutability":"payable","type":"function"},{"inputs":[],"name":"renounceOwnership","outputs":[],"stateMutability":"nonpayable","type":"function"},{"inputs":[{"internalType":"address","name":"user","type":"address"}],"name":"revokeAIAccess","outputs":[],"stateMutability":"nonpayable","type":"function"},{"inputs":[{"internalType":"string","name":"","type":"string"}],"name":"roomCreator","outputs":[{"internalType":"address","name":"","type":"address"}],"stateMutability":"view","type":"function"},{"inputs":[{"internalType":"string","name":"","type":"string"}],"name":"roomEarnings","outputs":[{"internalType":"uint256","name":"","type":"uint256"}],"stateMutability":"view","type":"function"},{"inputs":[{"internalType":"string","name":"roomId","type":"string"}],"name":"roomExists","outputs":[{"internalType":"bool","name":"","type":"bool"}],"stateMutability":"view","type":"function"},{"inputs":[{"internalType":"string","name":"","type":"string"}],"name":"roomJoinPrice","outputs":[{"internalType":"uint256","name":"","type":"uint256"}],"stateMutability":"view","type":"function"},{"inputs":[{"internalType":"string","name":"","type":"string"},{"internalType":"uint256","name":"","type":"uint256"}],"name":"roomMembers","outputs":[{"internalType":"address","name":"","type":"address"}],"stateMutability":"view","type":"function"},{"inputs":[{"internalType":"address","name":"from","type":"address"},{"internalType":"address","name":"to","type":"address"},{"internalType":"uint256","name":"tokenId","type":"uint256"}],"name":"safeTransferFrom","outputs":[],"stateMutability":"nonpayable","type":"function"},{"inputs":[{"internalType":"address","name":"from","type":"address"},{"internalType":"address","name":"to","type":"address"},{"internalType":"uint256","name":"tokenId","type":"uint256"},{"internalType":"bytes","name":"data","type":"bytes"}],"name":"safeTransferFrom","outputs":[],"stateMutability":"nonpayable","type":"function"},{"inputs":[{"internalType":"uint256","name":"newPrice","type":"uint256"}],"name":"setAIAccessPrice","outputs":[],"stateMutability":"nonpayable","type":"function"},{"inputs":[{"internalType":"address","name":"operator","type":"address"},{"internalType":"bool","name":"approved","type":"bool"}],"name":"setApprovalForAll","outputs":[],"stateMutability":"nonpayable","type":"function"},{"inputs":[{"internalType":"string","name":"roomId","type":"string"},{"internalType":"uint256","name":"newPrice","type":"uint256"}],"name":"setRoomJoinPrice","outputs":[],"stateMutability":"nonpayable","type":"function"},{"inputs":[{"internalType":"bytes4","name":"interfaceId","type":"bytes4"}],"name":"supportsInterface","outputs":[{"internalType":"bool","name":"","type":"bool"}],"stateMutability":"view","type":"function"},{"inputs":[],"name":"symbol","outputs":[{"internalType":"string","name":"","type":"string"}],"stateMutability":"view","type":"function"},{"inputs":[{"internalType":"uint256","name":"index","type":"uint256"}],"name":"tokenByIndex","outputs":[{"internalType":"uint256","name":"","type":"uint256"}],"stateMutability":"view","type":"function"},{"inputs":[{"internalType":"address","name":"owner","type":"address"},{"internalType":"uint256","name":"index","type":"uint256"}],"name":"tokenOfOwnerByIndex","outputs":[{"internalType":"uint256","name":"","type":"uint256"}],"stateMutability":"view","type":"function"},{"inputs":[{"internalType":"uint256","name":"tokenId","type":"uint256"}],"name":"tokenURI","outputs":[{"internalType":"string","name":"","type":"string"}],"stateMutability":"view","type":"function"},{"inputs":[],"name":"totalSupply","outputs":[{"internalType":"uint256","name":"","type":"uint256"}],"stateMutability":"view","type":"function"},{"inputs":[{"internalType":"address","name":"from","type":"address"},{"internalType":"address","name":"to","type":"address"},{"internalType":"uint256","name":"tokenId","type":"uint256"}],"name":"transferFrom","outputs":[],"stateMutability":"nonpayable","type":"function"},{"inputs":[{"internalType":"address","name":"newOwner","type":"address"}],"name":"transferOwnership","outputs":[],"stateMutability":"nonpayable","type":"function"},{"inputs":[{"internalType":"uint256","name":"tokenId","type":"uint256"},{"internalType":"string","name":"newMetadata","type":"string"}],"name":"updateNFTMetadata","outputs":[],"stateMutability":"nonpayable","type":"function"},{"inputs":[{"internalType":"string","name":"roomId","type":"string"},{"internalType":"string","name":"newName","type":"string"},{"internalType":"bool","name":"isPublic","type":"bool"}],"name":"updateRoom","outputs":[],"stateMutability":"nonpayable","type":"function"},{"inputs":[],"name":"withdraw","outputs":[],"stateMutability":"nonpayable","type":"function"},{"inputs":[{"internalType":"string","name":"roomId","type":"string"}],"name":"withdrawRoomEarnings","outputs":[],"stateMutability":"nonpayable","type":"function"}],"evm":{"bytecode":{"linkReferences":{},"object":"6080604052655af3107a40006010553480156200001b57600080fd5b50336040518060400160405280601181526020017013595d1855dbdc9adcdc1858d948139195607a1b815250604051806040016040528060058152602001641355d3919560da1b8152508160009081620000769190620001c0565b506001620000858282620001c0565b5050506001600160a01b038116620000b757604051631e4fbdf760e01b81526000600482015260240160405180910390fd5b620000c281620000c9565b506200028c565b600a80546001600160a01b038381166001600160a01b0319831681179093556040519116919082907f8be0079c531659141344cd1fd0a4f28419497f9722a3daafe3b4186f6b6457e090600090a35050565b634e487b7160e01b600052604160045260246000fd5b600181811c908216806200014657607f821691505b6020821081036200016757634e487b7160e01b600052602260045260246000fd5b50919050565b601f821115620001bb57600081815260208120601f850160051c81016020861015620001965750805b601f850160051c820191505b81811015620001b757828155600101620001a2565b5050505b505050565b81516001600160401b03811115620001dc57620001dc6200011b565b620001f481620001ed845462000131565b846200016d565b602080601f8311600181146200022c5760008415620002135750858301515b600019600386901b1c1916600185901b178555620001b7565b600085815260208120601f198616915b828110156200025d578886015182559484019460019091019084016200023c565b50858210156200027c5787850151600019600388901b60f8161c191681555b5050505050600190811b01905550565b614adf806200029c6000396000f3fe6080604052600436106102925760003560e01c806370a082311161015a578063c425b351116100c1578063deb1e94f1161007a578063deb1e94f1461084e578063e553f15b1461086e578063e61e6b471461088e578063e985e9c5146108a1578063f062d1d5146108c1578063f2fde38b146108e157600080fd5b8063c425b35114610769578063c87b56dd146107a1578063ce49ec5f146107c1578063d12bb061146107e1578063d1a308bc1461080e578063d3bb0fbb1461082e57600080fd5b8063a22cb46511610113578063a22cb4651461067b578063a80f0b051461069b578063abe1c541146106bb578063b142c0b5146106db578063b88d4fde14610708578063b8da005c1461072857600080fd5b806370a08231146105f5578063715018a6146106155780637e419f9f1461062a578063807f0d53146106325780638da5cb5b1461064857806395d89b411461066657600080fd5b80632b59051d116101fe5780633ccfd60b116101b75780633ccfd60b1461054057806342842e0e146105555780634f6ccce7146105755780636352211e146105955780636e9878f5146105b55780636fcbd3b5146105d557600080fd5b80632b59051d146104685780632f745c5914610488578063312c1784146104a857806331c96095146104e057806335dcdf1e146105005780633911381e1461052057600080fd5b80631285c26a116102505780631285c26a146103a557806315d46a0e146103c557806318160ddd146103f35780631b00112e1461040857806323b872dd1461042857806325083cd51461044857600080fd5b806275c6d71461029757806301ffc9a7146102dc57806306fdde03146102fc578063081812fc1461031e578063095ea7b3146103565780630b7ad54c14610378575b600080fd5b3480156102a357600080fd5b506102c76102b2366004613d4f565b600f6020526000908152604090205460ff1681565b60405190151581526020015b60405180910390f35b3480156102e857600080fd5b506102c76102f7366004613d80565b610901565b34801561030857600080fd5b50610311610912565b6040516102d39190613ded565b34801561032a57600080fd5b5061033e610339366004613e00565b6109a4565b6040516001600160a01b0390911681526020016102d3565b34801561036257600080fd5b50610376610371366004613e19565b6109cd565b005b34801561038457600080fd5b50610398610393366004613e00565b6109dc565b6040516102d39190613ed3565b3480156103b157600080fd5b5061033e6103c036600461408a565b610e93565b3480156103d157600080fd5b506103e56103e036600461416c565b610eda565b6040519081526020016102d3565b3480156103ff57600080fd5b506008546103e5565b34801561041457600080fd5b506103e5610423366004614231565b611252565b34801561043457600080fd5b50610376610443366004614265565b61127a565b34801561045457600080fd5b506102c7610463366004613d4f565b611305565b34801561047457600080fd5b50610376610483366004613d4f565b611339565b34801561049457600080fd5b506103e56104a3366004613e19565b6113a7565b3480156104b457600080fd5b506103e56104c3366004614231565b805160208183018101805160178252928201919093012091525481565b3480156104ec57600080fd5b506102c76104fb3660046142a1565b61140c565b34801561050c57600080fd5b5061037661051b3660046142ee565b61141f565b34801561052c57600080fd5b5061037661053b366004614344565b61147b565b34801561054c57600080fd5b50610376611765565b34801561056157600080fd5b50610376610570366004614265565b6118c2565b34801561058157600080fd5b506103e5610590366004613e00565b6118dd565b3480156105a157600080fd5b5061033e6105b0366004613e00565b611936565b3480156105c157600080fd5b506103766105d03660046143e4565b611941565b3480156105e157600080fd5b506103766105f0366004613e00565b611a39565b34801561060157600080fd5b506103e5610610366004613d4f565b611a8c565b34801561062157600080fd5b50610376611ad4565b610376611ae8565b34801561063e57600080fd5b506103e560105481565b34801561065457600080fd5b50600a546001600160a01b031661033e565b34801561067257600080fd5b50610311611ba4565b34801561068757600080fd5b50610376610696366004614457565b611bb3565b3480156106a757600080fd5b506103766106b6366004614231565b611bbe565b3480156106c757600080fd5b506102c76106d6366004614481565b611dea565b3480156106e757600080fd5b506106fb6106f6366004614231565b611f70565b6040516102d391906144da565b34801561071457600080fd5b5061037661072336600461451e565b611fe0565b34801561073457600080fd5b5061033e610743366004614231565b80516020818301810180516016825292820191909301209152546001600160a01b031681565b34801561077557600080fd5b506103e5610784366004614231565b805160208183018101805160158252928201919093012091525481565b3480156107ad57600080fd5b506103116107bc366004613e00565b611ff8565b3480156107cd57600080fd5b506103766107dc366004613d4f565b61246a565b3480156107ed57600080fd5b506108016107fc366004614231565b6124d2565b6040516102d39190614599565b34801561081a57600080fd5b506102c76108293660046142ee565b61254b565b34801561083a57600080fd5b506103e56108493660046145da565b612a07565b34801561085a57600080fd5b50610376610869366004614481565b612d6e565b34801561087a57600080fd5b5061037661088936600461408a565b612eab565b61037661089c366004614231565b612ffb565b3480156108ad57600080fd5b506102c76108bc3660046146c5565b613253565b3480156108cd57600080fd5b506102c76108dc366004614231565b613281565b3480156108ed57600080fd5b506103766108fc366004613d4f565b6132ac565b600061090c826132ea565b92915050565b606060008054610921906146ef565b80601f016020809104026020016040519081016040528092919081815260200182805461094d906146ef565b801561099a5780601f1061096f5761010080835404028352916020019161099a565b820191906000526020600020905b81548152906001019060200180831161097d57829003601f168201915b5050505050905090565b60006109af8261330f565b506000828152600460205260409020546001600160a01b031661090c565b6109d8828233613348565b5050565b610a3e6040805161014081019091526060815260208101600081526020016060815260200160006001600160a01b0316815260200160008152602001606081526020016060815260200160008152602001600015158152602001606081525090565b6000828152600260205260409020546001600160a01b0316610a7b5760405162461bcd60e51b8152600401610a7290614729565b60405180910390fd5b6000828152600c60205260409081902081516101408101909252805482908290610aa4906146ef565b80601f0160208091040260200160405190810160405280929190818152602001828054610ad0906146ef565b8015610b1d5780601f10610af257610100808354040283529160200191610b1d565b820191906000526020600020905b815481529060010190602001808311610b0057829003601f168201915b5050509183525050600182015460209091019060ff166002811115610b4457610b44613e43565b6002811115610b5557610b55613e43565b8152602001600282018054610b69906146ef565b80601f0160208091040260200160405190810160405280929190818152602001828054610b95906146ef565b8015610be25780601f10610bb757610100808354040283529160200191610be2565b820191906000526020600020905b815481529060010190602001808311610bc557829003601f168201915b505050505081526020016003820160009054906101000a90046001600160a01b03166001600160a01b03166001600160a01b031681526020016004820154815260200160058201805480602002602001604051908101604052809291908181526020016000905b82821015610cf5578382906000526020600020018054610c68906146ef565b80601f0160208091040260200160405190810160405280929190818152602001828054610c94906146ef565b8015610ce15780601f10610cb657610100808354040283529160200191610ce1565b820191906000526020600020905b815481529060010190602001808311610cc457829003601f168201915b505050505081526020019060010190610c49565b505050508152602001600682018054610d0d906146ef565b80601f0160208091040260200160405190810160405280929190818152602001828054610d39906146ef565b8015610d865780601f10610d5b57610100808354040283529160200191610d86565b820191906000526020600020905b815481529060010190602001808311610d6957829003601f168201915b50505050508152602001600782015481526020016008820160009054906101000a900460ff1615151515815260200160098201805480602002602001604051908101604052809291908181526020016000905b82821015610e85578382906000526020600020018054610df8906146ef565b80601f0160208091040260200160405190810160405280929190818152602001828054610e24906146ef565b8015610e715780601f10610e4657610100808354040283529160200191610e71565b820191906000526020600020905b815481529060010190602001808311610e5457829003601f168201915b505050505081526020019060010190610dd9565b505050915250909392505050565b81516020818401810180516018825292820191850191909120919052805482908110610ebe57600080fd5b6000918252602090912001546001600160a01b03169150829050565b600080865111610f215760405162461bcd60e51b815260206004820152601260248201527112541194c81a185cda081c995c5d5a5c995960721b6044820152606401610a72565b6000845111610f425760405162461bcd60e51b8152600401610a7290614756565b600b805460009182610f5383614796565b919050559050606060405180610140016040528089815260200160006002811115610f8057610f80613e43565b815260208082018990526001600160a01b038c16604080840191909152606083018b90526080830185905260a083018890524260c08401528851151560e08401526101009092018890526000858152600c9091522081518190610fe390826147f5565b50602082015160018083018054909160ff199091169083600281111561100b5761100b613e43565b02179055506040820151600282019061102490826147f5565b5060608201516003820180546001600160a01b0319166001600160a01b039092169190911790556080820151600482015560a08201518051611070916005840191602090910190613c76565b5060c0820151600682019061108590826147f5565b5060e0820151600782015561010082015160088201805460ff191691151591909117905561012082015180516110c5916009840191602090910190613c76565b50905050600d866040516110d991906148b4565b908152604080516020928190038301902080546001808201835560009283528483209091018690556001600160a01b038d168252600e8452918120805492830181558152919091200182905561112f8983613355565b8560405161113d91906148b4565b6040519081900390206001600160a01b038a16837faa2c70be24a9114cfec7d7c19ddcc0db6f7a95f30859bd8d6e73556bf38bdaae60008c6040516111839291906148d0565b60405180910390a48560405161119991906148b4565b6040518091039020827ffb77bf7a0afc625b2223fc020c840c3f2eeb7178d5a60fa89d8b1037f9be74858a8a6040516111d39291906148ec565b60405180910390a3856040516111e991906148b4565b604080519182900382206060808452600e908401526d1593d250d157d49150d3d491115160921b60808401526001600160a01b038c166020840152428383015290519091600080516020614a8a833981519152919081900360a00190a250979650505050505050565b600060188260405161126491906148b4565b9081526040519081900360200190205492915050565b6001600160a01b0382166112a457604051633250574960e11b815260006004820152602401610a72565b60006112b183833361336f565b9050836001600160a01b0316816001600160a01b0316146112ff576040516364283d7b60e01b81526001600160a01b0380861660048301526024820184905282166044820152606401610a72565b50505050565b6001600160a01b0381166000908152600f602052604081205460ff168061090c5750600061133283611a8c565b1192915050565b611341613384565b6001600160a01b0381166000818152600f6020526040808220805460ff19166001179055517ffdcc2968909dc087130873c247f5bebd59e7707b597aa312278407e4eb6d05c89161139c914290918252602082015260400190565b60405180910390a250565b60006113b283611a8c565b82106113e35760405163295f44f760e21b81526001600160a01b038416600482015260248101839052604401610a72565b506001600160a01b03919091166000908152600660209081526040808320938352929052205490565b600061141883836133b1565b9392505050565b611427613384565b6000828152600260205260409020546001600160a01b031661145b5760405162461bcd60e51b8152600401610a7290614729565b6000828152600c6020526040902060060161147682826147f5565b505050565b60118560405161148b91906148b4565b9081526040519081900360200190205460ff16156114e15760405162461bcd60e51b8152602060048201526013602482015272526f6f6d20616c72656164792065786973747360681b6044820152606401610a72565b60008551116115025760405162461bcd60e51b8152600401610a7290614756565b60008451116115485760405162461bcd60e51b8152602060048201526012602482015271149bdbdb481b985b59481c995c5d5a5c995960721b6044820152606401610a72565b600160118660405161155a91906148b4565b908152604051908190036020018120805492151560ff1990931692909217909155849060129061158b9088906148b4565b908152602001604051809103902090816115a591906147f5565b50826013866040516115b791906148b4565b908152602001604051809103902090805190602001906115d8929190613c76565b50816014866040516115ea91906148b4565b908152604051908190036020018120805492151560ff1990931692909217909155819060159061161b9088906148b4565b9081526020016040518091039020819055503360168660405161163e91906148b4565b90815260405190819003602001812080546001600160a01b03939093166001600160a01b03199093169290921790915560189061167c9087906148b4565b9081526040519081900360209081018220805460018101825560009182529190200180546001600160a01b03191633908117909155906116bd9087906148b4565b60405180910390207fac59745edb5f188077aa0e1dce0bfc05808929ab270315c9a53c9dbbd41f7a9e86856040516116f692919061490e565b60405180910390a38460405161170c91906148b4565b604080519182900382206060808452600c908401526b1493d3d357d0d4915055115160a21b6080840152336020840152428383015290519091600080516020614a8a833981519152919081900360a00190a25050505050565b61176d613384565b4760008061177b8184614932565b9050600081116117cd5760405162461bcd60e51b815260206004820152601a60248201527f4e6f206f776e65722066756e647320746f2077697468647261770000000000006044820152606401610a72565b60006117e1600a546001600160a01b031690565b6001600160a01b03168260405160006040518083038185875af1925050503d806000811461182b576040519150601f19603f3d011682016040523d82523d6000602084013e611830565b606091505b50509050806118755760405162461bcd60e51b815260206004820152601160248201527015da5d1a191c985dd85b0819985a5b1959607a1b6044820152606401610a72565b600a54604080518481524260208201526001600160a01b03909216917f2d4d49c3e017b8235c908cbaa83a2431a08f3b950712696ece2088964fd399f0910160405180910390a250505050565b61147683838360405180602001604052806000815250611fe0565b60006118e860085490565b82106119115760405163295f44f760e21b81526000600482015260248101839052604401610a72565b6008828154811061192457611924614945565b90600052602060002001549050919050565b600061090c8261330f565b611949613384565b60118360405161195991906148b4565b9081526040519081900360200190205460ff166119885760405162461bcd60e51b8152600401610a729061495b565b8160128460405161199991906148b4565b908152602001604051809103902090816119b391906147f5565b50806014846040516119c591906148b4565b908152604051908190036020018120805492151560ff199093169290921790915533906119f39085906148b4565b60405180910390207f142aff3ef477707b9d3e82c9185d697b394052e7e275c29e73dceb157cbbe9888484604051611a2c92919061490e565b60405180910390a3505050565b611a41613384565b60108054908290556040805182815260208101849052428183015290517f4bacf724e32aa69038149a634356eb926d5a496d3815f3077e180083067906719181900360600190a15050565b60006001600160a01b038216611ab8576040516322718ad960e21b815260006004820152602401610a72565b506001600160a01b031660009081526003602052604090205490565b611adc613384565b611ae66000613482565b565b601054341015611b455760405162461bcd60e51b815260206004820152602260248201527f496e73756666696369656e74207061796d656e7420666f722041492061636365604482015261737360f01b6064820152608401610a72565b336000818152600f602052604090819020805460ff19166001179055517ffdcc2968909dc087130873c247f5bebd59e7707b597aa312278407e4eb6d05c890611b9a9034904290918252602082015260400190565b60405180910390a2565b606060018054610921906146ef565b6109d83383836134d4565b601181604051611bce91906148b4565b9081526040519081900360200190205460ff16611bfd5760405162461bcd60e51b8152600401610a729061495b565b336001600160a01b0316601682604051611c1791906148b4565b908152604051908190036020019020546001600160a01b031614611c7d5760405162461bcd60e51b815260206004820152601e60248201527f4f6e6c7920726f6f6d2063726561746f722063616e20776974686472617700006044820152606401610a72565b6000601782604051611c8f91906148b4565b908152602001604051809103902054905060008111611cf05760405162461bcd60e51b815260206004820152601760248201527f4e6f206561726e696e677320746f2077697468647261770000000000000000006044820152606401610a72565b6000601783604051611d0291906148b4565b90815260405190819003602001812091909155600090339083908381818185875af1925050503d8060008114611d54576040519150601f19603f3d011682016040523d82523d6000602084013e611d59565b606091505b5050905080611d9e5760405162461bcd60e51b815260206004820152601160248201527015da5d1a191c985dd85b0819985a5b1959607a1b6044820152606401610a72565b82604051611dac91906148b4565b604080519182900382208483524260208401529133917f412f7763e1583080b4a41f2ec2a210fa431f88bae9fb5ca0a1e48c411c3c54729101611a2c565b6000601483604051611dfc91906148b4565b9081526040519081900360200190205460ff1615611e1c5750600161090c565b6000601384604051611e2e91906148b4565b9081526020016040518091039020805480602002602001604051908101604052809291908181526020016000905b82821015611f08578382906000526020600020018054611e7b906146ef565b80601f0160208091040260200160405190810160405280929190818152602001828054611ea7906146ef565b8015611ef45780601f10611ec957610100808354040283529160200191611ef4565b820191906000526020600020905b815481529060010190602001808311611ed757829003601f168201915b505050505081526020019060010190611e5c565b50505050905060005b8151811015611f65578380519060200120828281518110611f3457611f34614945565b60200260200101518051906020012003611f535760019250505061090c565b80611f5d81614796565b915050611f11565b506000949350505050565b6060600d82604051611f8291906148b4565b9081526040805191829003602090810183208054808302850183019093528284529190830182828015611fd457602002820191906000526020600020905b815481526020019060010190808311611fc0575b50505050509050919050565b611feb84848461127a565b6112ff338585858561356b565b6000818152600260205260409020546060906001600160a01b031661202f5760405162461bcd60e51b8152600401610a7290614729565b6000828152600c602052604080822081516101408101909252805482908290612057906146ef565b80601f0160208091040260200160405190810160405280929190818152602001828054612083906146ef565b80156120d05780601f106120a5576101008083540402835291602001916120d0565b820191906000526020600020905b8154815290600101906020018083116120b357829003601f168201915b5050509183525050600182015460209091019060ff1660028111156120f7576120f7613e43565b600281111561210857612108613e43565b815260200160028201805461211c906146ef565b80601f0160208091040260200160405190810160405280929190818152602001828054612148906146ef565b80156121955780601f1061216a57610100808354040283529160200191612195565b820191906000526020600020905b81548152906001019060200180831161217857829003601f168201915b505050505081526020016003820160009054906101000a90046001600160a01b03166001600160a01b03166001600160a01b031681526020016004820154815260200160058201805480602002602001604051908101604052809291908181526020016000905b828210156122a857838290600052602060002001805461221b906146ef565b80601f0160208091040260200160405190810160405280929190818152602001828054612247906146ef565b80156122945780601f1061226957610100808354040283529160200191612294565b820191906000526020600020905b81548152906001019060200180831161227757829003601f168201915b5050505050815260200190600101906121fc565b5050505081526020016006820180546122c0906146ef565b80601f01602080910402602001604051908101604052809291908181526020018280546122ec906146ef565b80156123395780601f1061230e57610100808354040283529160200191612339565b820191906000526020600020905b81548152906001019060200180831161231c57829003601f168201915b50505050508152602001600782015481526020016008820160009054906101000a900460ff1615151515815260200160098201805480602002602001604051908101604052809291908181526020016000905b828210156124385783829060005260206000200180546123ab906146ef565b80601f01602080910402602001604051908101604052809291908181526020018280546123d7906146ef565b80156124245780601f106123f957610100808354040283529160200191612424565b820191906000526020600020905b81548152906001019060200180831161240757829003601f168201915b50505050508152602001906001019061238c565b50505091525050805160405191925061245391602001614987565b604051602081830303815290604052915050919050565b612472613384565b6001600160a01b0381166000818152600f602052604090819020805460ff19169055513391907fdb7a5eb420fa8c1e3ef4855e10a6f867046e2b0a0c672bf6263ca1b5dab96925906124c79042815260200190565b60405180910390a350565b60606018826040516124e491906148b4565b9081526040805191829003602090810183208054808302850183019093528284529190830182828015611fd457602002820191906000526020600020905b81546001600160a01b031681526001909101906020018083116125225750505050509050919050565b6000828152600260205260408120546001600160a01b031661257f5760405162461bcd60e51b8152600401610a7290614729565b6000838152600c6020526040808220815161014081019092528054829082906125a7906146ef565b80601f01602080910402602001604051908101604052809291908181526020018280546125d3906146ef565b80156126205780601f106125f557610100808354040283529160200191612620565b820191906000526020600020905b81548152906001019060200180831161260357829003601f168201915b5050509183525050600182015460209091019060ff16600281111561264757612647613e43565b600281111561265857612658613e43565b815260200160028201805461266c906146ef565b80601f0160208091040260200160405190810160405280929190818152602001828054612698906146ef565b80156126e55780601f106126ba576101008083540402835291602001916126e5565b820191906000526020600020905b8154815290600101906020018083116126c857829003601f168201915b505050505081526020016003820160009054906101000a90046001600160a01b03166001600160a01b03166001600160a01b031681526020016004820154815260200160058201805480602002602001604051908101604052809291908181526020016000905b828210156127f857838290600052602060002001805461276b906146ef565b80601f0160208091040260200160405190810160405280929190818152602001828054612797906146ef565b80156127e45780601f106127b9576101008083540402835291602001916127e4565b820191906000526020600020905b8154815290600101906020018083116127c757829003601f168201915b50505050508152602001906001019061274c565b505050508152602001600682018054612810906146ef565b80601f016020809104026020016040519081016040528092919081815260200182805461283c906146ef565b80156128895780601f1061285e57610100808354040283529160200191612889565b820191906000526020600020905b81548152906001019060200180831161286c57829003601f168201915b50505050508152602001600782015481526020016008820160009054906101000a900460ff1615151515815260200160098201805480602002602001604051908101604052809291908181526020016000905b828210156129885783829060005260206000200180546128fb906146ef565b80601f0160208091040260200160405190810160405280929190818152602001828054612927906146ef565b80156129745780601f1061294957610100808354040283529160200191612974565b820191906000526020600020905b81548152906001019060200180831161295757829003601f168201915b5050505050815260200190600101906128dc565b505050508152505090508061010001516129a657600191505061090c565b60005b81610120015151811015611f6557838051906020012082610120015182815181106129d6576129d6614945565b602002602001015180519060200120036129f55760019250505061090c565b806129ff81614796565b9150506129a9565b600080875111612a4e5760405162461bcd60e51b815260206004820152601260248201527112541194c81a185cda081c995c5d5a5c995960721b6044820152606401610a72565b6000855111612a6f5760405162461bcd60e51b8152600401610a7290614756565b600b805460009182612a8083614796565b90915550604080516101408101909152898152909150602081016001815260208082018990526001600160a01b038c16604080840191909152606083018b90526080830189905260a083018890524260c08401528651151560e08401526101009092018690526000848152600c9091522081518190612aff90826147f5565b50602082015160018083018054909160ff1990911690836002811115612b2757612b27613e43565b021790555060408201516002820190612b4090826147f5565b5060608201516003820180546001600160a01b0319166001600160a01b039092169190911790556080820151600482015560a08201518051612b8c916005840191602090910190613c76565b5060c08201516006820190612ba190826147f5565b5060e0820151600782015561010082015160088201805460ff19169115159190911790556101208201518051612be1916009840191602090910190613c76565b50905050600d86604051612bf591906148b4565b908152604080516020928190038301902080546001808201835560009283528483209091018590556001600160a01b038d168252600e84529181208054928301815581529190912001819055612c4b8982613355565b85604051612c5991906148b4565b6040519081900390206001600160a01b038a16827faa2c70be24a9114cfec7d7c19ddcc0db6f7a95f30859bd8d6e73556bf38bdaae60018c604051612c9f9291906148d0565b60405180910390a485604051612cb591906148b4565b6040518091039020817f91491c38180a337ff28af8ffd621df257953ccfbb953cbc10316a895344dae018a8a604051612cef9291906148ec565b60405180910390a385604051612d0591906148b4565b604080519182900382206060808452600e908401526d1592511153d7d49150d3d491115160921b60808401526001600160a01b038c166020840152428383015290519091600080516020614a8a833981519152919081900360a00190a298975050505050505050565b601182604051612d7e91906148b4565b9081526040519081900360200190205460ff16612dad5760405162461bcd60e51b8152600401610a729061495b565b601382604051612dbd91906148b4565b908152604051602091819003820190208054600181018255600091825291902001612de882826147f5565b5081604051612df791906148b4565b6040518091039020336001600160a01b03167f83d90dfabb9dd5929f37bedd596ec8b76fec40556dcf87a93c891c43ecbc35a283604051612e389190613ded565b60405180910390a381604051612e4e91906148b4565b6040805191829003822060608084526010908401526f1554d15497d5d2125511531254d5115160821b6080840152336020840152429183019190915290600080516020614a8a8339815191529060a0015b60405180910390a25050565b601182604051612ebb91906148b4565b9081526040519081900360200190205460ff16612eea5760405162461bcd60e51b8152600401610a729061495b565b336001600160a01b0316601683604051612f0491906148b4565b908152604051908190036020019020546001600160a01b031614612f6a5760405162461bcd60e51b815260206004820152601f60248201527f4f6e6c7920726f6f6d2063726561746f722063616e20736574207072696365006044820152606401610a72565b6000601583604051612f7c91906148b4565b908152602001604051809103902054905081601584604051612f9e91906148b4565b908152604051908190036020018120919091553390612fbe9085906148b4565b6040805191829003822084835260208301869052917f0870c4d4abd30035941777a346c7f358347f9be8bb24ee2d1ce4ca79cab74acb9101611a2c565b60118160405161300b91906148b4565b9081526040519081900360200190205460ff1661303a5760405162461bcd60e51b8152600401610a729061495b565b61304481336133b1565b156130845760405162461bcd60e51b815260206004820152601060248201526f20b63932b0b23c90309036b2b6b132b960811b6044820152606401610a72565b600060158260405161309691906148b4565b90815260405190819003602001902054905080156131b657803410156131085760405162461bcd60e51b815260206004820152602160248201527f496e73756666696369656e74207061796d656e7420746f206a6f696e20726f6f6044820152606d60f81b6064820152608401610a72565b600060646131173460506149d7565b61312191906149ee565b9050600061312f8234614932565b90508160178560405161314291906148b4565b9081526020016040518091039020600082825461315f9190614a10565b90915550506040516131729085906148b4565b604080519182900382203483524260208401529133917f7715ad8ed801c416df675902ab3573e4100d8eafa486bc3484db40cb6b886eea910160405180910390a350505b6018826040516131c691906148b4565b9081526040519081900360209081018220805460018101825560009182529190200180546001600160a01b031916331790556132039083906148b4565b604080519182900382206060808452600b908401526a1554d15497d293d253915160aa1b6080840152336020840152429183019190915290600080516020614a8a8339815191529060a001612e9f565b6001600160a01b03918216600090815260056020908152604080832093909416825291909152205460ff1690565b600060118260405161329391906148b4565b9081526040519081900360200190205460ff1692915050565b6132b4613384565b6001600160a01b0381166132de57604051631e4fbdf760e01b815260006004820152602401610a72565b6132e781613482565b50565b60006001600160e01b0319821663780e9d6360e01b148061090c575061090c82613696565b6000818152600260205260408120546001600160a01b03168061090c57604051637e27328960e01b815260048101849052602401610a72565b61147683838360016136e6565b6109d88282604051806020016040528060008152506137ec565b600061337c848484613804565b949350505050565b600a546001600160a01b03163314611ae65760405163118cdaa760e01b8152336004820152602401610a72565b6000806018846040516133c491906148b4565b908152604080519182900360209081018320805480830285018301909352828452919083018282801561342057602002820191906000526020600020905b81546001600160a01b03168152600190910190602001808311613402575b5050505050905060005b8151811015611f6557836001600160a01b031682828151811061344f5761344f614945565b60200260200101516001600160a01b0316036134705760019250505061090c565b8061347a81614796565b91505061342a565b600a80546001600160a01b038381166001600160a01b0319831681179093556040519116919082907f8be0079c531659141344cd1fd0a4f28419497f9722a3daafe3b4186f6b6457e090600090a35050565b6001600160a01b03821661350657604051630b61174360e31b81526001600160a01b0383166004820152602401610a72565b6001600160a01b03838116600081815260056020908152604080832094871680845294825291829020805460ff191686151590811790915591519182527f17307eab39ab6107e8899845ad3d59bd9653f200f220920489ca2b5937696c319101611a2c565b6001600160a01b0383163b1561368f57604051630a85bd0160e11b81526001600160a01b0384169063150b7a02906135ad908890889087908790600401614a23565b6020604051808303816000875af19250505080156135e8575060408051601f3d908101601f191682019092526135e591810190614a56565b60015b613651573d808015613616576040519150601f19603f3d011682016040523d82523d6000602084013e61361b565b606091505b50805160000361364957604051633250574960e11b81526001600160a01b0385166004820152602401610a72565b805160208201fd5b6001600160e01b03198116630a85bd0160e11b1461368d57604051633250574960e11b81526001600160a01b0385166004820152602401610a72565b505b5050505050565b60006001600160e01b031982166380ac58cd60e01b14806136c757506001600160e01b03198216635b5e139f60e01b145b8061090c57506301ffc9a760e01b6001600160e01b031983161461090c565b80806136fa57506001600160a01b03821615155b156137bc57600061370a8461330f565b90506001600160a01b038316158015906137365750826001600160a01b0316816001600160a01b031614155b801561374957506137478184613253565b155b156137725760405163a9fbf51f60e01b81526001600160a01b0384166004820152602401610a72565b81156137ba5783856001600160a01b0316826001600160a01b03167f8c5be1e5ebec7d5bd14f71427d1e84f3dd0314c0f7b2291e5b200ac8c7c3b92560405160405180910390a45b505b5050600090815260046020526040902080546001600160a01b0319166001600160a01b0392909216919091179055565b6137f683836138d1565b61147633600085858561356b565b600080613812858585613936565b90506001600160a01b03811661386f5761386a84600880546000838152600960205260408120829055600182018355919091527ff3f7a9fe364faab93b216da50a3214154f22a0a2b415b23a84c8169e8b636ee30155565b613892565b846001600160a01b0316816001600160a01b031614613892576138928185613a2f565b6001600160a01b0385166138ae576138a984613ab0565b61337c565b846001600160a01b0316816001600160a01b03161461337c5761337c8585613b5f565b6001600160a01b0382166138fb57604051633250574960e11b815260006004820152602401610a72565b60006139098383600061336f565b90506001600160a01b03811615611476576040516339e3563760e11b815260006004820152602401610a72565b6000828152600260205260408120546001600160a01b039081169083161561396357613963818486613baf565b6001600160a01b038116156139a1576139806000856000806136e6565b6001600160a01b038116600090815260036020526040902080546000190190555b6001600160a01b038516156139d0576001600160a01b0385166000908152600360205260409020805460010190555b60008481526002602052604080822080546001600160a01b0319166001600160a01b0389811691821790925591518793918516917fddf252ad1be2c89b69c2b068fc378daa952ba7f163c4a11628f55a4df523b3ef91a4949350505050565b6000613a3a83611a8c565b6000838152600760209081526040808320546001600160a01b0388168452600690925290912091925090818314613a9157600083815260208281526040808320548584528184208190558352600790915290208290555b6000938452600760209081526040808620869055938552525081205550565b600854600090613ac290600190614932565b60008381526009602052604081205460088054939450909284908110613aea57613aea614945565b906000526020600020015490508060088381548110613b0b57613b0b614945565b6000918252602080832090910192909255828152600990915260408082208490558582528120556008805480613b4357613b43614a73565b6001900381819060005260206000200160009055905550505050565b60006001613b6c84611a8c565b613b769190614932565b6001600160a01b039093166000908152600660209081526040808320868452825280832085905593825260079052919091209190915550565b613bba838383613c13565b611476576001600160a01b038316613be857604051637e27328960e01b815260048101829052602401610a72565b60405163177e802f60e01b81526001600160a01b038316600482015260248101829052604401610a72565b60006001600160a01b0383161580159061337c5750826001600160a01b0316846001600160a01b03161480613c4d5750613c4d8484613253565b8061337c5750506000908152600460205260409020546001600160a01b03908116911614919050565b828054828255906000526020600020908101928215613cbc579160200282015b82811115613cbc5782518290613cac90826147f5565b5091602001919060010190613c96565b50613cc8929150613ccc565b5090565b80821115613cc8576000613ce08282613ce9565b50600101613ccc565b508054613cf5906146ef565b6000825580601f10613d05575050565b601f0160209004906000526020600020908101906132e791905b80821115613cc85760008155600101613d1f565b80356001600160a01b0381168114613d4a57600080fd5b919050565b600060208284031215613d6157600080fd5b61141882613d33565b6001600160e01b0319811681146132e757600080fd5b600060208284031215613d9257600080fd5b813561141881613d6a565b60005b83811015613db8578181015183820152602001613da0565b50506000910152565b60008151808452613dd9816020860160208601613d9d565b601f01601f19169290920160200192915050565b6020815260006114186020830184613dc1565b600060208284031215613e1257600080fd5b5035919050565b60008060408385031215613e2c57600080fd5b613e3583613d33565b946020939093013593505050565b634e487b7160e01b600052602160045260246000fd5b60038110613e7757634e487b7160e01b600052602160045260246000fd5b9052565b600082825180855260208086019550808260051b84010181860160005b84811015613ec657601f19868403018952613eb4838351613dc1565b98840198925090830190600101613e98565b5090979650505050505050565b6020815260008251610140806020850152613ef2610160850183613dc1565b91506020850151613f066040860182613e59565b506040850151601f1980868503016060870152613f238483613dc1565b935060608701519150613f4160808701836001600160a01b03169052565b608087015160a087015260a08701519150808685030160c0870152613f668483613e7b565b935060c08701519150808685030160e0870152613f838483613dc1565b60e0880151610100888101919091528801519094509150610120613faa8188018415159052565b870151868503909101838701529050613fc38382613e7b565b9695505050505050565b634e487b7160e01b600052604160045260246000fd5b604051601f8201601f191681016001600160401b038111828210171561400b5761400b613fcd565b604052919050565b60006001600160401b0383111561402c5761402c613fcd565b61403f601f8401601f1916602001613fe3565b905082815283838301111561405357600080fd5b828260208301376000602084830101529392505050565b600082601f83011261407b57600080fd5b61141883833560208501614013565b6000806040838503121561409d57600080fd5b82356001600160401b038111156140b357600080fd5b6140bf8582860161406a565b95602094909401359450505050565b600082601f8301126140df57600080fd5b813560206001600160401b03808311156140fb576140fb613fcd565b8260051b61410a838201613fe3565b938452858101830193838101908886111561412457600080fd5b84880192505b85831015614160578235848111156141425760008081fd5b6141508a87838c010161406a565b835250918401919084019061412a565b98975050505050505050565b60008060008060008060c0878903121561418557600080fd5b61418e87613d33565b955060208701356001600160401b03808211156141aa57600080fd5b6141b68a838b0161406a565b96506040890135955060608901359150808211156141d357600080fd5b6141df8a838b0161406a565b945060808901359150808211156141f557600080fd5b6142018a838b016140ce565b935060a089013591508082111561421757600080fd5b5061422489828a0161406a565b9150509295509295509295565b60006020828403121561424357600080fd5b81356001600160401b0381111561425957600080fd5b61337c8482850161406a565b60008060006060848603121561427a57600080fd5b61428384613d33565b925061429160208501613d33565b9150604084013590509250925092565b600080604083850312156142b457600080fd5b82356001600160401b038111156142ca57600080fd5b6142d68582860161406a565b9250506142e560208401613d33565b90509250929050565b6000806040838503121561430157600080fd5b8235915060208301356001600160401b0381111561431e57600080fd5b61432a8582860161406a565b9150509250929050565b80358015158114613d4a57600080fd5b600080600080600060a0868803121561435c57600080fd5b85356001600160401b038082111561437357600080fd5b61437f89838a0161406a565b9650602088013591508082111561439557600080fd5b6143a189838a0161406a565b955060408801359150808211156143b757600080fd5b506143c4888289016140ce565b9350506143d360608701614334565b949793965091946080013592915050565b6000806000606084860312156143f957600080fd5b83356001600160401b038082111561441057600080fd5b61441c8783880161406a565b9450602086013591508082111561443257600080fd5b5061443f8682870161406a565b92505061444e60408501614334565b90509250925092565b6000806040838503121561446a57600080fd5b61447383613d33565b91506142e560208401614334565b6000806040838503121561449457600080fd5b82356001600160401b03808211156144ab57600080fd5b6144b78683870161406a565b935060208501359150808211156144cd57600080fd5b5061432a8582860161406a565b6020808252825182820181905260009190848201906040850190845b81811015614512578351835292840192918401916001016144f6565b50909695505050505050565b6000806000806080858703121561453457600080fd5b61453d85613d33565b935061454b60208601613d33565b92506040850135915060608501356001600160401b0381111561456d57600080fd5b8501601f8101871361457e57600080fd5b61458d87823560208401614013565b91505092959194509250565b6020808252825182820181905260009190848201906040850190845b818110156145125783516001600160a01b0316835292840192918401916001016145b5565b600080600080600080600060e0888a0312156145f557600080fd5b6145fe88613d33565b965060208801356001600160401b038082111561461a57600080fd5b6146268b838c0161406a565b975060408a0135965060608a013591508082111561464357600080fd5b61464f8b838c0161406a565b955060808a013591508082111561466557600080fd5b6146718b838c016140ce565b945060a08a013591508082111561468757600080fd5b6146938b838c0161406a565b935060c08a01359150808211156146a957600080fd5b506146b68a828b016140ce565b91505092959891949750929550565b600080604083850312156146d857600080fd5b6146e183613d33565b91506142e560208401613d33565b600181811c9082168061470357607f821691505b60208210810361472357634e487b7160e01b600052602260045260246000fd5b50919050565b602080825260139082015272151bdad95b88191bd95cdb89dd08195e1a5cdd606a1b604082015260600190565b60208082526010908201526f149bdbdb481251081c995c5d5a5c995960821b604082015260600190565b634e487b7160e01b600052601160045260246000fd5b6000600182016147a8576147a8614780565b5060010190565b601f82111561147657600081815260208120601f850160051c810160208610156147d65750805b601f850160051c820191505b8181101561368d578281556001016147e2565b81516001600160401b0381111561480e5761480e613fcd565b6148228161481c84546146ef565b846147af565b602080601f831160018114614857576000841561483f5750858301515b600019600386901b1c1916600185901b17855561368d565b600085815260208120601f198616915b8281101561488657888601518255948401946001909101908401614867565b50858210156148a45787850151600019600388901b60f8161c191681555b5050505050600190811b01905550565b600082516148c6818460208701613d9d565b9190910192915050565b60ff8316815260406020820152600061337c6040830184613dc1565b6040815260006148ff6040830185613dc1565b90508260208301529392505050565b6040815260006149216040830185613dc1565b905082151560208301529392505050565b8181038181111561090c5761090c614780565b634e487b7160e01b600052603260045260246000fd5b602080825260129082015271149bdbdb48191bd95cdb89dd08195e1a5cdd60721b604082015260600190565b7f68747470733a2f2f676174657761792e70696e6174612e636c6f75642f697066815261732f60f01b6020820152600082516149ca816022850160208701613d9d565b9190910160220192915050565b808202811582820484141761090c5761090c614780565b600082614a0b57634e487b7160e01b600052601260045260246000fd5b500490565b8082018082111561090c5761090c614780565b6001600160a01b0385811682528416602082015260408101839052608060608201819052600090613fc390830184613dc1565b600060208284031215614a6857600080fd5b815161141881613d6a565b634e487b7160e01b600052603160045260246000fdfe4a7208b8f25da28187b32310808555dad7f7ffe6ccbc8ad36cb5176b7c051e09a264697066735822122038df06cd51f01960b09e177b3849fe5bb24c2f49af58c6ebc43df960b3b0ec8164736f6c63430008140033","opcodes":"PUSH1 0x80 PUSH1 0x40 MSTORE PUSH6 0x5AF3107A4000 PUSH1 0x10 SSTORE CALLVALUE DUP1 ISZERO PUSH3 0x1B JUMPI PUSH1 0x0 DUP1 REVERT JUMPDEST POP CALLER PUSH1 0x40 MLOAD DUP1 PUSH1 0x40 ADD PUSH1 0x40 MSTORE DUP1 PUSH1 0x11 DUP2 MSTORE PUSH1 0x20 ADD PUSH17 0x13595D1855DBDC9ADCDC1858D948139195 PUSH1 0x7A SHL DUP2 MSTORE POP PUSH1 0x40 MLOAD DUP1 PUSH1 0x40 ADD PUSH1 0x40 MSTORE DUP1 PUSH1 0x5 DUP2 MSTORE PUSH1 0x20 ADD PUSH5 0x1355D39195 PUSH1 0xDA SHL DUP2 MSTORE POP DUP2 PUSH1 0x0 SWAP1 DUP2 PUSH3 0x76 SWAP2 SWAP1 PUSH3 0x1C0 JUMP JUMPDEST POP PUSH1 0x1 PUSH3 0x85 DUP3 DUP3 PUSH3 0x1C0 JUMP JUMPDEST POP POP POP PUSH1 0x1 PUSH1 0x1 PUSH1 0xA0 SHL SUB DUP2 AND PUSH3 0xB7 JUMPI PUSH1 0x40 MLOAD PUSH4 0x1E4FBDF7 PUSH1 0xE0 SHL DUP2 MSTORE PUSH1 0x0 PUSH1 0x4 DUP3 ADD MSTORE PUSH1 0x24 ADD PUSH1 0x40 MLOAD DUP1 SWAP2 SUB SWAP1 REVERT JUMPDEST PUSH3 0xC2 DUP2 PUSH3 0xC9 JUMP JUMPDEST POP PUSH3 0x28C JUMP JUMPDEST PUSH1 0xA DUP1 SLOAD PUSH1 0x1 PUSH1 0x1 PUSH1 0xA0 SHL SUB DUP4 DUP2 AND PUSH1 0x1 PUSH1 0x1 PUSH1 0xA0 SHL SUB NOT DUP4 AND DUP2 OR SWAP1 SWAP4 SSTORE PUSH1 0x40 MLOAD SWAP2 AND SWAP2 SWAP1 DUP3 SWAP1 PUSH32 0x8BE0079C531659141344CD1FD0A4F28419497F9722A3DAAFE3B4186F6B6457E0 SWAP1 PUSH1 0x0 SWAP1 LOG3 POP POP JUMP JUMPDEST PUSH4 0x4E487B71 PUSH1 0xE0 SHL PUSH1 0x0 MSTORE PUSH1 0x41 PUSH1 0x4 MSTORE PUSH1 0x24 PUSH1 0x0 REVERT JUMPDEST PUSH1 0x1 DUP2 DUP2 SHR SWAP1 DUP3 AND DUP1 PUSH3 0x146 JUMPI PUSH1 0x7F DUP3 AND SWAP2 POP JUMPDEST PUSH1 0x20 DUP3 LT DUP2 SUB PUSH3 0x167 JUMPI PUSH4 0x4E487B71 PUSH1 0xE0 SHL PUSH1 0x0 MSTORE PUSH1 0x22 PUSH1 0x4 MSTORE PUSH1 0x24 PUSH1 0x0 REVERT JUMPDEST POP SWAP2 SWAP1 POP JUMP JUMPDEST PUSH1 0x1F DUP3 GT ISZERO PUSH3 0x1BB JUMPI PUSH1 0x0 DUP2 DUP2 MSTORE PUSH1 0x20 DUP2 KECCAK256 PUSH1 0x1F DUP6 ADD PUSH1 0x5 SHR DUP2 ADD PUSH1 0x20 DUP7 LT ISZERO PUSH3 0x196 JUMPI POP DUP1 JUMPDEST PUSH1 0x1F DUP6 ADD PUSH1 0x5 SHR DUP3 ADD SWAP2 POP JUMPDEST DUP2 DUP2 LT ISZERO PUSH3 0x1B7 JUMPI DUP3 DUP2 SSTORE PUSH1 0x1 ADD PUSH3 0x1A2 JUMP JUMPDEST POP POP POP JUMPDEST POP POP POP JUMP JUMPDEST DUP2 MLOAD PUSH1 0x1 PUSH1 0x1 PUSH1 0x40 SHL SUB DUP2 GT ISZERO PUSH3 0x1DC JUMPI PUSH3 0x1DC PUSH3 0x11B JUMP JUMPDEST PUSH3 0x1F4 DUP2 PUSH3 0x1ED DUP5 SLOAD PUSH3 0x131 JUMP JUMPDEST DUP5 PUSH3 0x16D JUMP JUMPDEST PUSH1 0x20 DUP1 PUSH1 0x1F DUP4 GT PUSH1 0x1 DUP2 EQ PUSH3 0x22C JUMPI PUSH1 0x0 DUP5 ISZERO PUSH3 0x213 JUMPI POP DUP6 DUP4 ADD MLOAD JUMPDEST PUSH1 0x0 NOT PUSH1 0x3 DUP7 SWAP1 SHL SHR NOT AND PUSH1 0x1 DUP6 SWAP1 SHL OR DUP6 SSTORE PUSH3 0x1B7 JUMP JUMPDEST PUSH1 0x0 DUP6 DUP2 MSTORE PUSH1 0x20 DUP2 KECCAK256 PUSH1 0x1F NOT DUP7 AND SWAP2 JUMPDEST DUP3 DUP2 LT ISZERO PUSH3 0x25D JUMPI DUP9 DUP7 ADD MLOAD DUP3 SSTORE SWAP5 DUP5 ADD SWAP5 PUSH1 0x1 SWAP1 SWAP2 ADD SWAP1 DUP5 ADD PUSH3 0x23C JUMP JUMPDEST POP DUP6 DUP3 LT ISZERO PUSH3 0x27C JUMPI DUP8 DUP6 ADD MLOAD PUSH1 0x0 NOT PUSH1 0x3 DUP9 SWAP1 SHL PUSH1 0xF8 AND SHR NOT AND DUP2 SSTORE JUMPDEST POP POP POP POP POP PUSH1 0x1 SWAP1 DUP2 SHL ADD SWAP1 SSTORE POP JUMP JUMPDEST PUSH2 0x4ADF DUP1 PUSH3 0x29C PUSH1 0x0 CODECOPY PUSH1 0x0 RETURN INVALID PUSH1 0x80 PUSH1 0x40 MSTORE PUSH1 0x4 CALLDATASIZE LT PUSH2 0x292 JUMPI PUSH1 0x0 CALLDATALOAD PUSH1 0xE0 SHR DUP1 PUSH4 0x70A08231 GT PUSH2 0x15A JUMPI DUP1 PUSH4 0xC425B351 GT PUSH2 0xC1 JUMPI DUP1 PUSH4 0xDEB1E94F GT PUSH2 0x7A JUMPI DUP1 PUSH4 0xDEB1E94F EQ PUSH2 0x84E JUMPI DUP1 PUSH4 0xE553F15B EQ PUSH2 0x86E JUMPI DUP1 PUSH4 0xE61E6B47 EQ PUSH2 0x88E JUMPI DUP1 PUSH4 0xE985E9C5 EQ PUSH2 0x8A1 JUMPI DUP1 PUSH4 0xF062D1D5 EQ PUSH2 0x8C1 JUMPI DUP1 PUSH4 0xF2FDE38B EQ PUSH2 0x8E1 JUMPI PUSH1 0x0 DUP1 REVERT JUMPDEST DUP1 PUSH4 0xC425B351 EQ PUSH2 0x769 JUMPI DUP1 PUSH4 0xC87B56DD EQ PUSH2 0x7A1 JUMPI DUP1 PUSH4 0xCE49EC5F EQ PUSH2 0x7C1 JUMPI DUP1 PUSH4 0xD12BB061 EQ PUSH2 0x7E1 JUMPI DUP1 PUSH4 0xD1A308BC EQ PUSH2 0x80E JUMPI DUP1 PUSH4 0xD3BB0FBB EQ PUSH2 0x82E JUMPI PUSH1 0x0 DUP1 REVERT JUMPDEST DUP1 PUSH4 0xA22CB465 GT PUSH2 0x113 JUMPI DUP1 PUSH4 0xA22CB465 EQ PUSH2 0x67B JUMPI DUP1 PUSH4 0xA80F0B05 EQ PUSH2 0x69B JUMPI DUP1 PUSH4 0xABE1C541 EQ PUSH2 0x6BB JUMPI DUP1 PUSH4 0xB142C0B5 EQ PUSH2 0x6DB JUMPI DUP1 PUSH4 0xB88D4FDE EQ PUSH2 0x708 JUMPI DUP1 PUSH4 0xB8DA005C EQ PUSH2 0x728 JUMPI PUSH1 0x0 DUP1 REVERT JUMPDEST DUP1 PUSH4 0x70A08231 EQ PUSH2 0x5F5 JUMPI DUP1 PUSH4 0x715018A6 EQ PUSH2 0x615 JUMPI DUP1 PUSH4 0x7E419F9F EQ PUSH2 0x62A JUMPI DUP1 PUSH4 0x807F0D53 EQ PUSH2 0x632 JUMPI DUP1 PUSH4 0x8DA5CB5B EQ PUSH2 0x648 JUMPI DUP1 PUSH4 0x95D89B41 EQ PUSH2 0x666 JUMPI PUSH1 0x0 DUP1 REVERT JUMPDEST DUP1 PUSH4 0x2B59051D GT PUSH2 0x1FE JUMPI DUP1 PUSH4 0x3CCFD60B GT PUSH2 0x1B7 JUMPI DUP1 PUSH4 0x3CCFD60B EQ PUSH2 0x540 JUMPI DUP1 PUSH4 0x42842E0E EQ PUSH2 0x555 JUMPI DUP1 PUSH4 0x4F6CCCE7 EQ PUSH2 0x575 JUMPI DUP1 PUSH4 0x6352211E EQ PUSH2 0x595 JUMPI DUP1 PUSH4 0x6E9878F5 EQ PUSH2 0x5B5 JUMPI DUP1 PUSH4 0x6FCBD3B5 EQ PUSH2 0x5D5 JUMPI PUSH1 0x0 DUP1 REVERT JUMPDEST DUP1 PUSH4 0x2B59051D EQ PUSH2 0x468 JUMPI DUP1 PUSH4 0x2F745C59 EQ PUSH2 0x488 JUMPI DUP1 PUSH4 0x312C1784 EQ PUSH2 0x4A8 JUMPI DUP1 PUSH4 0x31C96095 EQ PUSH2 0x4E0 JUMPI DUP1 PUSH4 0x35DCDF1E EQ PUSH2 0x500 JUMPI DUP1 PUSH4 0x3911381E EQ PUSH2 0x520 JUMPI PUSH1 0x0 DUP1 REVERT JUMPDEST DUP1 PUSH4 0x1285C26A GT PUSH2 0x250 JUMPI DUP1 PUSH4 0x1285C26A EQ PUSH2 0x3A5 JUMPI DUP1 PUSH4 0x15D46A0E EQ PUSH2 0x3C5 JUMPI DUP1 PUSH4 0x18160DDD EQ PUSH2 0x3F3 JUMPI DUP1 PUSH4 0x1B00112E EQ PUSH2 0x408 JUMPI DUP1 PUSH4 0x23B872DD EQ PUSH2 0x428 JUMPI DUP1 PUSH4 0x25083CD5 EQ PUSH2 0x448 JUMPI PUSH1 0x0 DUP1 REVERT JUMPDEST DUP1 PUSH3 0x75C6D7 EQ PUSH2 0x297 JUMPI DUP1 PUSH4 0x1FFC9A7 EQ PUSH2 0x2DC JUMPI DUP1 PUSH4 0x6FDDE03 EQ PUSH2 0x2FC JUMPI DUP1 PUSH4 0x81812FC EQ PUSH2 0x31E JUMPI DUP1 PUSH4 0x95EA7B3 EQ PUSH2 0x356 JUMPI DUP1 PUSH4 0xB7AD54C EQ PUSH2 0x378 JUMPI JUMPDEST PUSH1 0x0 DUP1 REVERT JUMPDEST CALLVALUE DUP1 ISZERO PUSH2 0x2A3 JUMPI PUSH1 0x0 DUP1 REVERT JUMPDEST POP PUSH2 0x2C7 PUSH2 0x2B2 CALLDATASIZE PUSH1 0x4 PUSH2 0x3D4F JUMP JUMPDEST PUSH1 0xF PUSH1 0x20 MSTORE PUSH1 0x0 SWAP1 DUP2 MSTORE PUSH1 0x40 SWAP1 KECCAK256 SLOAD PUSH1 0xFF AND DUP2 JUMP JUMPDEST PUSH1 0x40 MLOAD SWAP1 ISZERO ISZERO DUP2 MSTORE PUSH1 0x20 ADD JUMPDEST PUSH1 0x40 MLOAD DUP1 SWAP2 SUB SWAP1 RETURN JUMPDEST CALLVALUE DUP1 ISZERO PUSH2 0x2E8 JUMPI PUSH1 0x0 DUP1 REVERT JUMPDEST POP PUSH2 0x2C7 PUSH2 0x2F7 CALLDATASIZE PUSH1 0x4 PUSH2 0x3D80 JUMP JUMPDEST PUSH2 0x901 JUMP JUMPDEST CALLVALUE DUP1 ISZERO PUSH2 0x308 JUMPI PUSH1 0x0 DUP1 REVERT JUMPDEST POP PUSH2 0x311 PUSH2 0x912 JUMP JUMPDEST PUSH1 0x40 MLOAD PUSH2 0x2D3 SWAP2 SWAP1 PUSH2 0x3DED JUMP JUMPDEST CALLVALUE DUP1 ISZERO PUSH2 0x32A JUMPI PUSH1 0x0 DUP1 REVERT JUMPDEST POP PUSH2 0x33E PUSH2 0x339 CALLDATASIZE PUSH1 0x4 PUSH2 0x3E00 JUMP JUMPDEST PUSH2 0x9A4 JUMP JUMPDEST PUSH1 0x40 MLOAD PUSH1 0x1 PUSH1 0x1 PUSH1 0xA0 SHL SUB SWAP1 SWAP2 AND DUP2 MSTORE PUSH1 0x20 ADD PUSH2 0x2D3 JUMP JUMPDEST CALLVALUE DUP1 ISZERO PUSH2 0x362 JUMPI PUSH1 0x0 DUP1 REVERT JUMPDEST POP PUSH2 0x376 PUSH2 0x371 CALLDATASIZE PUSH1 0x4 PUSH2 0x3E19 JUMP JUMPDEST PUSH2 0x9CD JUMP JUMPDEST STOP JUMPDEST CALLVALUE DUP1 ISZERO PUSH2 0x384 JUMPI PUSH1 0x0 DUP1 REVERT JUMPDEST POP PUSH2 0x398 PUSH2 0x393 CALLDATASIZE PUSH1 0x4 PUSH2 0x3E00 JUMP JUMPDEST PUSH2 0x9DC JUMP JUMPDEST PUSH1 0x40 MLOAD PUSH2 0x2D3 SWAP2 SWAP1 PUSH2 0x3ED3 JUMP JUMPDEST CALLVALUE DUP1 ISZERO PUSH2 0x3B1 JUMPI PUSH1 0x0 DUP1 REVERT JUMPDEST POP PUSH2 0x33E PUSH2 0x3C0 CALLDATASIZE PUSH1 0x4 PUSH2 0x408A JUMP JUMPDEST PUSH2 0xE93 JUMP JUMPDEST CALLVALUE DUP1 ISZERO PUSH2 0x3D1 JUMPI PUSH1 0x0 DUP1 REVERT JUMPDEST POP PUSH2 0x3E5 PUSH2 0x3E0 CALLDATASIZE PUSH1 0x4 PUSH2 0x416C JUMP JUMPDEST PUSH2 0xEDA JUMP JUMPDEST PUSH1 0x40 MLOAD SWAP1 DUP2 MSTORE PUSH1 0x20 ADD PUSH2 0x2D3 JUMP JUMPDEST CALLVALUE DUP1 ISZERO PUSH2 0x3FF JUMPI PUSH1 0x0 DUP1 REVERT JUMPDEST POP PUSH1 0x8 SLOAD PUSH2 0x3E5 JUMP JUMPDEST CALLVALUE DUP1 ISZERO PUSH2 0x414 JUMPI PUSH1 0x0 DUP1 REVERT JUMPDEST POP PUSH2 0x3E5 PUSH2 0x423 CALLDATASIZE PUSH1 0x4 PUSH2 0x4231 JUMP JUMPDEST PUSH2 0x1252 JUMP JUMPDEST CALLVALUE DUP1 ISZERO PUSH2 0x434 JUMPI PUSH1 0x0 DUP1 REVERT JUMPDEST POP PUSH2 0x376 PUSH2 0x443 CALLDATASIZE PUSH1 0x4 PUSH2 0x4265 JUMP JUMPDEST PUSH2 0x127A JUMP JUMPDEST CALLVALUE DUP1 ISZERO PUSH2 0x454 JUMPI PUSH1 0x0 DUP1 REVERT JUMPDEST POP PUSH2 0x2C7 PUSH2 0x463 CALLDATASIZE PUSH1 0x4 PUSH2 0x3D4F JUMP JUMPDEST PUSH2 0x1305 JUMP JUMPDEST CALLVALUE DUP1 ISZERO PUSH2 0x474 JUMPI PUSH1 0x0 DUP1 REVERT JUMPDEST POP PUSH2 0x376 PUSH2 0x483 CALLDATASIZE PUSH1 0x4 PUSH2 0x3D4F JUMP JUMPDEST PUSH2 0x1339 JUMP JUMPDEST CALLVALUE DUP1 ISZERO PUSH2 0x494 JUMPI PUSH1 0x0 DUP1 REVERT JUMPDEST POP PUSH2 0x3E5 PUSH2 0x4A3 CALLDATASIZE PUSH1 0x4 PUSH2 0x3E19 JUMP JUMPDEST PUSH2 0x13A7 JUMP JUMPDEST CALLVALUE DUP1 ISZERO PUSH2 0x4B4 JUMPI PUSH1 0x0 DUP1 REVERT JUMPDEST POP PUSH2 0x3E5 PUSH2 0x4C3 CALLDATASIZE PUSH1 0x4 PUSH2 0x4231 JUMP JUMPDEST DUP1 MLOAD PUSH1 0x20 DUP2 DUP4 ADD DUP2 ADD DUP1 MLOAD PUSH1 0x17 DUP3 MSTORE SWAP3 DUP3 ADD SWAP2 SWAP1 SWAP4 ADD KECCAK256 SWAP2 MSTORE SLOAD DUP2 JUMP JUMPDEST CALLVALUE DUP1 ISZERO PUSH2 0x4EC JUMPI PUSH1 0x0 DUP1 REVERT JUMPDEST POP PUSH2 0x2C7 PUSH2 0x4FB CALLDATASIZE PUSH1 0x4 PUSH2 0x42A1 JUMP JUMPDEST PUSH2 0x140C JUMP JUMPDEST CALLVALUE DUP1 ISZERO PUSH2 0x50C JUMPI PUSH1 0x0 DUP1 REVERT JUMPDEST POP PUSH2 0x376 PUSH2 0x51B CALLDATASIZE PUSH1 0x4 PUSH2 0x42EE JUMP JUMPDEST PUSH2 0x141F JUMP JUMPDEST CALLVALUE DUP1 ISZERO PUSH2 0x52C JUMPI PUSH1 0x0 DUP1 REVERT JUMPDEST POP PUSH2 0x376 PUSH2 0x53B CALLDATASIZE PUSH1 0x4 PUSH2 0x4344 JUMP JUMPDEST PUSH2 0x147B JUMP JUMPDEST CALLVALUE DUP1 ISZERO PUSH2 0x54C JUMPI PUSH1 0x0 DUP1 REVERT JUMPDEST POP PUSH2 0x376 PUSH2 0x1765 JUMP JUMPDEST CALLVALUE DUP1 ISZERO PUSH2 0x561 JUMPI PUSH1 0x0 DUP1 REVERT JUMPDEST POP PUSH2 0x376 PUSH2 0x570 CALLDATASIZE PUSH1 0x4 PUSH2 0x4265 JUMP JUMPDEST PUSH2 0x18C2 JUMP JUMPDEST CALLVALUE DUP1 ISZERO PUSH2 0x581 JUMPI PUSH1 0x0 DUP1 REVERT JUMPDEST POP PUSH2 0x3E5 PUSH2 0x590 CALLDATASIZE PUSH1 0x4 PUSH2 0x3E00 JUMP JUMPDEST PUSH2 0x18DD JUMP JUMPDEST CALLVALUE DUP1 ISZERO PUSH2 0x5A1 JUMPI PUSH1 0x0 DUP1 REVERT JUMPDEST POP PUSH2 0x33E PUSH2 0x5B0 CALLDATASIZE PUSH1 0x4 PUSH2 0x3E00 JUMP JUMPDEST PUSH2 0x1936 JUMP JUMPDEST CALLVALUE DUP1 ISZERO PUSH2 0x5C1 JUMPI PUSH1 0x0 DUP1 REVERT JUMPDEST POP PUSH2 0x376 PUSH2 0x5D0 CALLDATASIZE PUSH1 0x4 PUSH2 0x43E4 JUMP JUMPDEST PUSH2 0x1941 JUMP JUMPDEST CALLVALUE DUP1 ISZERO PUSH2 0x5E1 JUMPI PUSH1 0x0 DUP1 REVERT JUMPDEST POP PUSH2 0x376 PUSH2 0x5F0 CALLDATASIZE PUSH1 0x4 PUSH2 0x3E00 JUMP JUMPDEST PUSH2 0x1A39 JUMP JUMPDEST CALLVALUE DUP1 ISZERO PUSH2 0x601 JUMPI PUSH1 0x0 DUP1 REVERT JUMPDEST POP PUSH2 0x3E5 PUSH2 0x610 CALLDATASIZE PUSH1 0x4 PUSH2 0x3D4F JUMP JUMPDEST PUSH2 0x1A8C JUMP JUMPDEST CALLVALUE DUP1 ISZERO PUSH2 0x621 JUMPI PUSH1 0x0 DUP1 REVERT JUMPDEST POP PUSH2 0x376 PUSH2 0x1AD4 JUMP JUMPDEST PUSH2 0x376 PUSH2 0x1AE8 JUMP JUMPDEST CALLVALUE DUP1 ISZERO PUSH2 0x63E JUMPI PUSH1 0x0 DUP1 REVERT JUMPDEST POP PUSH2 0x3E5 PUSH1 0x10 SLOAD DUP2 JUMP JUMPDEST CALLVALUE DUP1 ISZERO PUSH2 0x654 JUMPI PUSH1 0x0 DUP1 REVERT JUMPDEST POP PUSH1 0xA SLOAD PUSH1 0x1 PUSH1 0x1 PUSH1 0xA0 SHL SUB AND PUSH2 0x33E JUMP JUMPDEST CALLVALUE DUP1 ISZERO PUSH2 0x672 JUMPI PUSH1 0x0 DUP1 REVERT JUMPDEST POP PUSH2 0x311 PUSH2 0x1BA4 JUMP JUMPDEST CALLVALUE DUP1 ISZERO PUSH2 0x687 JUMPI PUSH1 0x0 DUP1 REVERT JUMPDEST POP PUSH2 0x376 PUSH2 0x696 CALLDATASIZE PUSH1 0x4 PUSH2 0x4457 JUMP JUMPDEST PUSH2 0x1BB3 JUMP JUMPDEST CALLVALUE DUP1 ISZERO PUSH2 0x6A7 JUMPI PUSH1 0x0 DUP1 REVERT JUMPDEST POP PUSH2 0x376 PUSH2 0x6B6 CALLDATASIZE PUSH1 0x4 PUSH2 0x4231 JUMP JUMPDEST PUSH2 0x1BBE JUMP JUMPDEST CALLVALUE DUP1 ISZERO PUSH2 0x6C7 JUMPI PUSH1 0x0 DUP1 REVERT JUMPDEST POP PUSH2 0x2C7 PUSH2 0x6D6 CALLDATASIZE PUSH1 0x4 PUSH2 0x4481 JUMP JUMPDEST PUSH2 0x1DEA JUMP JUMPDEST CALLVALUE DUP1 ISZERO PUSH2 0x6E7 JUMPI PUSH1 0x0 DUP1 REVERT JUMPDEST POP PUSH2 0x6FB PUSH2 0x6F6 CALLDATASIZE PUSH1 0x4 PUSH2 0x4231 JUMP JUMPDEST PUSH2 0x1F70 JUMP JUMPDEST PUSH1 0x40 MLOAD PUSH2 0x2D3 SWAP2 SWAP1 PUSH2 0x44DA JUMP JUMPDEST CALLVALUE DUP1 ISZERO PUSH2 0x714 JUMPI PUSH1 0x0 DUP1 REVERT JUMPDEST POP PUSH2 0x376 PUSH2 0x723 CALLDATASIZE PUSH1 0x4 PUSH2 0x451E JUMP JUMPDEST PUSH2 0x1FE0 JUMP JUMPDEST CALLVALUE DUP1 ISZERO PUSH2 0x734 JUMPI PUSH1 0x0 DUP1 REVERT JUMPDEST POP PUSH2 0x33E PUSH2 0x743 CALLDATASIZE PUSH1 0x4 PUSH2 0x4231 JUMP JUMPDEST DUP1 MLOAD PUSH1 0x20 DUP2 DUP4 ADD DUP2 ADD DUP1 MLOAD PUSH1 0x16 DUP3 MSTORE SWAP3 DUP3 ADD SWAP2 SWAP1 SWAP4 ADD KECCAK256 SWAP2 MSTORE SLOAD PUSH1 0x1 PUSH1 0x1 PUSH1 0xA0 SHL SUB AND DUP2 JUMP JUMPDEST CALLVALUE DUP1 ISZERO PUSH2 0x775 JUMPI PUSH1 0x0 DUP1 REVERT JUMPDEST POP PUSH2 0x3E5 PUSH2 0x784 CALLDATASIZE PUSH1 0x4 PUSH2 0x4231 JUMP JUMPDEST DUP1 MLOAD PUSH1 0x20 DUP2 DUP4 ADD DUP2 ADD DUP1 MLOAD PUSH1 0x15 DUP3 MSTORE SWAP3 DUP3 ADD SWAP2 SWAP1 SWAP4 ADD KECCAK256 SWAP2 MSTORE SLOAD DUP2 JUMP JUMPDEST CALLVALUE DUP1 ISZERO PUSH2 0x7AD JUMPI PUSH1 0x0 DUP1 REVERT JUMPDEST POP PUSH2 0x311 PUSH2 0x7BC CALLDATASIZE PUSH1 0x4 PUSH2 0x3E00 JUMP JUMPDEST PUSH2 0x1FF8 JUMP JUMPDEST CALLVALUE DUP1 ISZERO PUSH2 0x7CD JUMPI PUSH1 0x0 DUP1 REVERT JUMPDEST POP PUSH2 0x376 PUSH2 0x7DC CALLDATASIZE PUSH1 0x4 PUSH2 0x3D4F JUMP JUMPDEST PUSH2 0x246A JUMP JUMPDEST CALLVALUE DUP1 ISZERO PUSH2 0x7ED JUMPI PUSH1 0x0 DUP1 REVERT JUMPDEST POP PUSH2 0x801 PUSH2 0x7FC CALLDATASIZE PUSH1 0x4 PUSH2 0x4231 JUMP JUMPDEST PUSH2 0x24D2 JUMP JUMPDEST PUSH1 0x40 MLOAD PUSH2 0x2D3 SWAP2 SWAP1 PUSH2 0x4599 JUMP JUMPDEST CALLVALUE DUP1 ISZERO PUSH2 0x81A JUMPI PUSH1 0x0 DUP1 REVERT JUMPDEST POP PUSH2 0x2C7 PUSH2 0x829 CALLDATASIZE PUSH1 0x4 PUSH2 0x42EE JUMP JUMPDEST PUSH2 0x254B JUMP JUMPDEST CALLVALUE DUP1 ISZERO PUSH2 0x83A JUMPI PUSH1 0x0 DUP1 REVERT JUMPDEST POP PUSH2 0x3E5 PUSH2 0x849 CALLDATASIZE PUSH1 0x4 PUSH2 0x45DA JUMP JUMPDEST PUSH2 0x2A07 JUMP JUMPDEST CALLVALUE DUP1 ISZERO PUSH2 0x85A JUMPI PUSH1 0x0 DUP1 REVERT JUMPDEST POP PUSH2 0x376 PUSH2 0x869 CALLDATASIZE PUSH1 0x4 PUSH2 0x4481 JUMP JUMPDEST PUSH2 0x2D6E JUMP JUMPDEST CALLVALUE DUP1 ISZERO PUSH2 0x87A JUMPI PUSH1 0x0 DUP1 REVERT JUMPDEST POP PUSH2 0x376 PUSH2 0x889 CALLDATASIZE PUSH1 0x4 PUSH2 0x408A JUMP JUMPDEST PUSH2 0x2EAB JUMP JUMPDEST PUSH2 0x376 PUSH2 0x89C CALLDATASIZE PUSH1 0x4 PUSH2 0x4231 JUMP JUMPDEST PUSH2 0x2FFB JUMP JUMPDEST CALLVALUE DUP1 ISZERO PUSH2 0x8AD JUMPI PUSH1 0x0 DUP1 REVERT JUMPDEST POP PUSH2 0x2C7 PUSH2 0x8BC CALLDATASIZE PUSH1 0x4 PUSH2 0x46C5 JUMP JUMPDEST PUSH2 0x3253 JUMP JUMPDEST CALLVALUE DUP1 ISZERO PUSH2 0x8CD JUMPI PUSH1 0x0 DUP1 REVERT JUMPDEST POP PUSH2 0x2C7 PUSH2 0x8DC CALLDATASIZE PUSH1 0x4 PUSH2 0x4231 JUMP JUMPDEST PUSH2 0x3281 JUMP JUMPDEST CALLVALUE DUP1 ISZERO PUSH2 0x8ED JUMPI PUSH1 0x0 DUP1 REVERT JUMPDEST POP PUSH2 0x376 PUSH2 0x8FC CALLDATASIZE PUSH1 0x4 PUSH2 0x3D4F JUMP JUMPDEST PUSH2 0x32AC JUMP JUMPDEST PUSH1 0x0 PUSH2 0x90C DUP3 PUSH2 0x32EA JUMP JUMPDEST SWAP3 SWAP2 POP POP JUMP JUMPDEST PUSH1 0x60 PUSH1 0x0 DUP1 SLOAD PUSH2 0x921 SWAP1 PUSH2 0x46EF JUMP JUMPDEST DUP1 PUSH1 0x1F ADD PUSH1 0x20 DUP1 SWAP2 DIV MUL PUSH1 0x20 ADD PUSH1 0x40 MLOAD SWAP1 DUP2 ADD PUSH1 0x40 MSTORE DUP1 SWAP3 SWAP2 SWAP1 DUP2 DUP2 MSTORE PUSH1 0x20 ADD DUP3 DUP1 SLOAD PUSH2 0x94D SWAP1 PUSH2 0x46EF JUMP JUMPDEST DUP1 ISZERO PUSH2 0x99A JUMPI DUP1 PUSH1 0x1F LT PUSH2 0x96F JUMPI PUSH2 0x100 DUP1 DUP4 SLOAD DIV MUL DUP4 MSTORE SWAP2 PUSH1 0x20 ADD SWAP2 PUSH2 0x99A JUMP JUMPDEST DUP3 ADD SWAP2 SWAP1 PUSH1 0x0 MSTORE PUSH1 0x20 PUSH1 0x0 KECCAK256 SWAP1 JUMPDEST DUP2 SLOAD DUP2 MSTORE SWAP1 PUSH1 0x1 ADD SWAP1 PUSH1 0x20 ADD DUP1 DUP4 GT PUSH2 0x97D JUMPI DUP3 SWAP1 SUB PUSH1 0x1F AND DUP3 ADD SWAP2 JUMPDEST POP POP POP POP POP SWAP1 POP SWAP1 JUMP JUMPDEST PUSH1 0x0 PUSH2 0x9AF DUP3 PUSH2 0x330F JUMP JUMPDEST POP PUSH1 0x0 DUP3 DUP2 MSTORE PUSH1 0x4 PUSH1 0x20 MSTORE PUSH1 0x40 SWAP1 KECCAK256 SLOAD PUSH1 0x1 PUSH1 0x1 PUSH1 0xA0 SHL SUB AND PUSH2 0x90C JUMP JUMPDEST PUSH2 0x9D8 DUP3 DUP3 CALLER PUSH2 0x3348 JUMP JUMPDEST POP POP JUMP JUMPDEST PUSH2 0xA3E PUSH1 0x40 DUP1 MLOAD PUSH2 0x140 DUP2 ADD SWAP1 SWAP2 MSTORE PUSH1 0x60 DUP2 MSTORE PUSH1 0x20 DUP2 ADD PUSH1 0x0 DUP2 MSTORE PUSH1 0x20 ADD PUSH1 0x60 DUP2 MSTORE PUSH1 0x20 ADD PUSH1 0x0 PUSH1 0x1 PUSH1 0x1 PUSH1 0xA0 SHL SUB AND DUP2 MSTORE PUSH1 0x20 ADD PUSH1 0x0 DUP2 MSTORE PUSH1 0x20 ADD PUSH1 0x60 DUP2 MSTORE PUSH1 0x20 ADD PUSH1 0x60 DUP2 MSTORE PUSH1 0x20 ADD PUSH1 0x0 DUP2 MSTORE PUSH1 0x20 ADD PUSH1 0x0 ISZERO ISZERO DUP2 MSTORE PUSH1 0x20 ADD PUSH1 0x60 DUP2 MSTORE POP SWAP1 JUMP JUMPDEST PUSH1 0x0 DUP3 DUP2 MSTORE PUSH1 0x2 PUSH1 0x20 MSTORE PUSH1 0x40 SWAP1 KECCAK256 SLOAD PUSH1 0x1 PUSH1 0x1 PUSH1 0xA0 SHL SUB AND PUSH2 0xA7B JUMPI PUSH1 0x40 MLOAD PUSH3 0x461BCD PUSH1 0xE5 SHL DUP2 MSTORE PUSH1 0x4 ADD PUSH2 0xA72 SWAP1 PUSH2 0x4729 JUMP JUMPDEST PUSH1 0x40 MLOAD DUP1 SWAP2 SUB SWAP1 REVERT JUMPDEST PUSH1 0x0 DUP3 DUP2 MSTORE PUSH1 0xC PUSH1 0x20 MSTORE PUSH1 0x40 SWAP1 DUP2 SWAP1 KECCAK256 DUP2 MLOAD PUSH2 0x140 DUP2 ADD SWAP1 SWAP3 MSTORE DUP1 SLOAD DUP3 SWAP1 DUP3 SWAP1 PUSH2 0xAA4 SWAP1 PUSH2 0x46EF JUMP JUMPDEST DUP1 PUSH1 0x1F ADD PUSH1 0x20 DUP1 SWAP2 DIV MUL PUSH1 0x20 ADD PUSH1 0x40 MLOAD SWAP1 DUP2 ADD PUSH1 0x40 MSTORE DUP1 SWAP3 SWAP2 SWAP1 DUP2 DUP2 MSTORE PUSH1 0x20 ADD DUP3 DUP1 SLOAD PUSH2 0xAD0 SWAP1 PUSH2 0x46EF JUMP JUMPDEST DUP1 ISZERO PUSH2 0xB1D JUMPI DUP1 PUSH1 0x1F LT PUSH2 0xAF2 JUMPI PUSH2 0x100 DUP1 DUP4 SLOAD DIV MUL DUP4 MSTORE SWAP2 PUSH1 0x20 ADD SWAP2 PUSH2 0xB1D JUMP JUMPDEST DUP3 ADD SWAP2 SWAP1 PUSH1 0x0 MSTORE PUSH1 0x20 PUSH1 0x0 KECCAK256 SWAP1 JUMPDEST DUP2 SLOAD DUP2 MSTORE SWAP1 PUSH1 0x1 ADD SWAP1 PUSH1 0x20 ADD DUP1 DUP4 GT PUSH2 0xB00 JUMPI DUP3 SWAP1 SUB PUSH1 0x1F AND DUP3 ADD SWAP2 JUMPDEST POP POP POP SWAP2 DUP4 MSTORE POP POP PUSH1 0x1 DUP3 ADD SLOAD PUSH1 0x20 SWAP1 SWAP2 ADD SWAP1 PUSH1 0xFF AND PUSH1 0x2 DUP2 GT ISZERO PUSH2 0xB44 JUMPI PUSH2 0xB44 PUSH2 0x3E43 JUMP JUMPDEST PUSH1 0x2 DUP2 GT ISZERO PUSH2 0xB55 JUMPI PUSH2 0xB55 PUSH2 0x3E43 JUMP JUMPDEST DUP2 MSTORE PUSH1 0x20 ADD PUSH1 0x2 DUP3 ADD DUP1 SLOAD PUSH2 0xB69 SWAP1 PUSH2 0x46EF JUMP JUMPDEST DUP1 PUSH1 0x1F ADD PUSH1 0x20 DUP1 SWAP2 DIV MUL PUSH1 0x20 ADD PUSH1 0x40 MLOAD SWAP1 DUP2 ADD PUSH1 0x40 MSTORE DUP1 SWAP3 SWAP2 SWAP1 DUP2 DUP2 MSTORE PUSH1 0x20 ADD DUP3 DUP1 SLOAD PUSH2 0xB95 SWAP1 PUSH2 0x46EF JUMP JUMPDEST DUP1 ISZERO PUSH2 0xBE2 JUMPI DUP1 PUSH1 0x1F LT PUSH2 0xBB7 JUMPI PUSH2 0x100 DUP1 DUP4 SLOAD DIV MUL DUP4 MSTORE SWAP2 PUSH1 0x20 ADD SWAP2 PUSH2 0xBE2 JUMP JUMPDEST DUP3 ADD SWAP2 SWAP1 PUSH1 0x0 MSTORE PUSH1 0x20 PUSH1 0x0 KECCAK256 SWAP1 JUMPDEST DUP2 SLOAD DUP2 MSTORE SWAP1 PUSH1 0x1 ADD SWAP1 PUSH1 0x20 ADD DUP1 DUP4 GT PUSH2 0xBC5 JUMPI DUP3 SWAP1 SUB PUSH1 0x1F AND DUP3 ADD SWAP2 JUMPDEST POP POP POP POP POP DUP2 MSTORE PUSH1 0x20 ADD PUSH1 0x3 DUP3 ADD PUSH1 0x0 SWAP1 SLOAD SWAP1 PUSH2 0x100 EXP SWAP1 DIV PUSH1 0x1 PUSH1 0x1 PUSH1 0xA0 SHL SUB AND PUSH1 0x1 PUSH1 0x1 PUSH1 0xA0 SHL SUB AND PUSH1 0x1 PUSH1 0x1 PUSH1 0xA0 SHL SUB AND DUP2 MSTORE PUSH1 0x20 ADD PUSH1 0x4 DUP3 ADD SLOAD DUP2 MSTORE PUSH1 0x20 ADD PUSH1 0x5 DUP3 ADD DUP1 SLOAD DUP1 PUSH1 0x20 MUL PUSH1 0x20 ADD PUSH1 0x40 MLOAD SWAP1 DUP2 ADD PUSH1 0x40 MSTORE DUP1 SWAP3 SWAP2 SWAP1 DUP2 DUP2 MSTORE PUSH1 0x20 ADD PUSH1 0x0 SWAP1 JUMPDEST DUP3 DUP3 LT ISZERO PUSH2 0xCF5 JUMPI DUP4 DUP3 SWAP1 PUSH1 0x0 MSTORE PUSH1 0x20 PUSH1 0x0 KECCAK256 ADD DUP1 SLOAD PUSH2 0xC68 SWAP1 PUSH2 0x46EF JUMP JUMPDEST DUP1 PUSH1 0x1F ADD PUSH1 0x20 DUP1 SWAP2 DIV MUL PUSH1 0x20 ADD PUSH1 0x40 MLOAD SWAP1 DUP2 ADD PUSH1 0x40 MSTORE DUP1 SWAP3 SWAP2 SWAP1 DUP2 DUP2 MSTORE PUSH1 0x20 ADD DUP3 DUP1 SLOAD PUSH2 0xC94 SWAP1 PUSH2 0x46EF JUMP JUMPDEST DUP1 ISZERO PUSH2 0xCE1 JUMPI DUP1 PUSH1 0x1F LT PUSH2 0xCB6 JUMPI PUSH2 0x100 DUP1 DUP4 SLOAD DIV MUL DUP4 MSTORE SWAP2 PUSH1 0x20 ADD SWAP2 PUSH2 0xCE1 JUMP JUMPDEST DUP3 ADD SWAP2 SWAP1 PUSH1 0x0 MSTORE PUSH1 0x20 PUSH1 0x0 KECCAK256 SWAP1 JUMPDEST DUP2 SLOAD DUP2 MSTORE SWAP1 PUSH1 0x1 ADD SWAP1 PUSH1 0x20 ADD DUP1 DUP4 GT PUSH2 0xCC4 JUMPI DUP3 SWAP1 SUB PUSH1 0x1F AND DUP3 ADD SWAP2 JUMPDEST POP POP POP POP POP DUP2 MSTORE PUSH1 0x20 ADD SWAP1 PUSH1 0x1 ADD SWAP1 PUSH2 0xC49 JUMP JUMPDEST POP POP POP POP DUP2 MSTORE PUSH1 0x20 ADD PUSH1 0x6 DUP3 ADD DUP1 SLOAD PUSH2 0xD0D SWAP1 PUSH2 0x46EF JUMP JUMPDEST DUP1 PUSH1 0x1F ADD PUSH1 0x20 DUP1 SWAP2 DIV MUL PUSH1 0x20 ADD PUSH1 0x40 MLOAD SWAP1 DUP2 ADD PUSH1 0x40 MSTORE DUP1 SWAP3 SWAP2 SWAP1 DUP2 DUP2 MSTORE PUSH1 0x20 ADD DUP3 DUP1 SLOAD PUSH2 0xD39 SWAP1 PUSH2 0x46EF JUMP JUMPDEST DUP1 ISZERO PUSH2 0xD86 JUMPI DUP1 PUSH1 0x1F LT PUSH2 0xD5B JUMPI PUSH2 0x100 DUP1 DUP4 SLOAD DIV MUL DUP4 MSTORE SWAP2 PUSH1 0x20 ADD SWAP2 PUSH2 0xD86 JUMP JUMPDEST DUP3 ADD SWAP2 SWAP1 PUSH1 0x0 MSTORE PUSH1 0x20 PUSH1 0x0 KECCAK256 SWAP1 JUMPDEST DUP2 SLOAD DUP2 MSTORE SWAP1 PUSH1 0x1 ADD SWAP1 PUSH1 0x20 ADD DUP1 DUP4 GT PUSH2 0xD69 JUMPI DUP3 SWAP1 SUB PUSH1 0x1F AND DUP3 ADD SWAP2 JUMPDEST POP POP POP POP POP DUP2 MSTORE PUSH1 0x20 ADD PUSH1 0x7 DUP3 ADD SLOAD DUP2 MSTORE PUSH1 0x20 ADD PUSH1 0x8 DUP3 ADD PUSH1 0x0 SWAP1 SLOAD SWAP1 PUSH2 0x100 EXP SWAP1 DIV PUSH1 0xFF AND ISZERO ISZERO ISZERO ISZERO DUP2 MSTORE PUSH1 0x20 ADD PUSH1 0x9 DUP3 ADD DUP1 SLOAD DUP1 PUSH1 0x20 MUL PUSH1 0x20 ADD PUSH1 0x40 MLOAD SWAP1 DUP2 ADD PUSH1 0x40 MSTORE DUP1 SWAP3 SWAP2 SWAP1 DUP2 DUP2 MSTORE PUSH1 0x20 ADD PUSH1 0x0 SWAP1 JUMPDEST DUP3 DUP3 LT ISZERO PUSH2 0xE85 JUMPI DUP4 DUP3 SWAP1 PUSH1 0x0 MSTORE PUSH1 0x20 PUSH1 0x0 KECCAK256 ADD DUP1 SLOAD PUSH2 0xDF8 SWAP1 PUSH2 0x46EF JUMP JUMPDEST DUP1 PUSH1 0x1F ADD PUSH1 0x20 DUP1 SWAP2 DIV MUL PUSH1 0x20 ADD PUSH1 0x40 MLOAD SWAP1 DUP2 ADD PUSH1 0x40 MSTORE DUP1 SWAP3 SWAP2 SWAP1 DUP2 DUP2 MSTORE PUSH1 0x20 ADD DUP3 DUP1 SLOAD PUSH2 0xE24 SWAP1 PUSH2 0x46EF JUMP JUMPDEST DUP1 ISZERO PUSH2 0xE71 JUMPI DUP1 PUSH1 0x1F LT PUSH2 0xE46 JUMPI PUSH2 0x100 DUP1 DUP4 SLOAD DIV MUL DUP4 MSTORE SWAP2 PUSH1 0x20 ADD SWAP2 PUSH2 0xE71 JUMP JUMPDEST DUP3 ADD SWAP2 SWAP1 PUSH1 0x0 MSTORE PUSH1 0x20 PUSH1 0x0 KECCAK256 SWAP1 JUMPDEST DUP2 SLOAD DUP2 MSTORE SWAP1 PUSH1 0x1 ADD SWAP1 PUSH1 0x20 ADD DUP1 DUP4 GT PUSH2 0xE54 JUMPI DUP3 SWAP1 SUB PUSH1 0x1F AND DUP3 ADD SWAP2 JUMPDEST POP POP POP POP POP DUP2 MSTORE PUSH1 0x20 ADD SWAP1 PUSH1 0x1 ADD SWAP1 PUSH2 0xDD9 JUMP JUMPDEST POP POP POP SWAP2 MSTORE POP SWAP1 SWAP4 SWAP3 POP POP POP JUMP JUMPDEST DUP2 MLOAD PUSH1 0x20 DUP2 DUP5 ADD DUP2 ADD DUP1 MLOAD PUSH1 0x18 DUP3 MSTORE SWAP3 DUP3 ADD SWAP2 DUP6 ADD SWAP2 SWAP1 SWAP2 KECCAK256 SWAP2 SWAP1 MSTORE DUP1 SLOAD DUP3 SWAP1 DUP2 LT PUSH2 0xEBE JUMPI PUSH1 0x0 DUP1 REVERT JUMPDEST PUSH1 0x0 SWAP2 DUP3 MSTORE PUSH1 0x20 SWAP1 SWAP2 KECCAK256 ADD SLOAD PUSH1 0x1 PUSH1 0x1 PUSH1 0xA0 SHL SUB AND SWAP2 POP DUP3 SWAP1 POP JUMP JUMPDEST PUSH1 0x0 DUP1 DUP7 MLOAD GT PUSH2 0xF21 JUMPI PUSH1 0x40 MLOAD PUSH3 0x461BCD PUSH1 0xE5 SHL DUP2 MSTORE PUSH1 0x20 PUSH1 0x4 DUP3 ADD MSTORE PUSH1 0x12 PUSH1 0x24 DUP3 ADD MSTORE PUSH18 0x12541194C81A185CDA081C995C5D5A5C9959 PUSH1 0x72 SHL PUSH1 0x44 DUP3 ADD MSTORE PUSH1 0x64 ADD PUSH2 0xA72 JUMP JUMPDEST PUSH1 0x0 DUP5 MLOAD GT PUSH2 0xF42 JUMPI PUSH1 0x40 MLOAD PUSH3 0x461BCD PUSH1 0xE5 SHL DUP2 MSTORE PUSH1 0x4 ADD PUSH2 0xA72 SWAP1 PUSH2 0x4756 JUMP JUMPDEST PUSH1 0xB DUP1 SLOAD PUSH1 0x0 SWAP2 DUP3 PUSH2 0xF53 DUP4 PUSH2 0x4796 JUMP JUMPDEST SWAP2 SWAP1 POP SSTORE SWAP1 POP PUSH1 0x60 PUSH1 0x40 MLOAD DUP1 PUSH2 0x140 ADD PUSH1 0x40 MSTORE DUP1 DUP10 DUP2 MSTORE PUSH1 0x20 ADD PUSH1 0x0 PUSH1 0x2 DUP2 GT ISZERO PUSH2 0xF80 JUMPI PUSH2 0xF80 PUSH2 0x3E43 JUMP JUMPDEST DUP2 MSTORE PUSH1 0x20 DUP1 DUP3 ADD DUP10 SWAP1 MSTORE PUSH1 0x1 PUSH1 0x1 PUSH1 0xA0 SHL SUB DUP13 AND PUSH1 0x40 DUP1 DUP5 ADD SWAP2 SWAP1 SWAP2 MSTORE PUSH1 0x60 DUP4 ADD DUP12 SWAP1 MSTORE PUSH1 0x80 DUP4 ADD DUP6 SWAP1 MSTORE PUSH1 0xA0 DUP4 ADD DUP9 SWAP1 MSTORE TIMESTAMP PUSH1 0xC0 DUP5 ADD MSTORE DUP9 MLOAD ISZERO ISZERO PUSH1 0xE0 DUP5 ADD MSTORE PUSH2 0x100 SWAP1 SWAP3 ADD DUP9 SWAP1 MSTORE PUSH1 0x0 DUP6 DUP2 MSTORE PUSH1 0xC SWAP1 SWAP2 MSTORE KECCAK256 DUP2 MLOAD DUP2 SWAP1 PUSH2 0xFE3 SWAP1 DUP3 PUSH2 0x47F5 JUMP JUMPDEST POP PUSH1 0x20 DUP3 ADD MLOAD PUSH1 0x1 DUP1 DUP4 ADD DUP1 SLOAD SWAP1 SWAP2 PUSH1 0xFF NOT SWAP1 SWAP2 AND SWAP1 DUP4 PUSH1 0x2 DUP2 GT ISZERO PUSH2 0x100B JUMPI PUSH2 0x100B PUSH2 0x3E43 JUMP JUMPDEST MUL OR SWAP1 SSTORE POP PUSH1 0x40 DUP3 ADD MLOAD PUSH1 0x2 DUP3 ADD SWAP1 PUSH2 0x1024 SWAP1 DUP3 PUSH2 0x47F5 JUMP JUMPDEST POP PUSH1 0x60 DUP3 ADD MLOAD PUSH1 0x3 DUP3 ADD DUP1 SLOAD PUSH1 0x1 PUSH1 0x1 PUSH1 0xA0 SHL SUB NOT AND PUSH1 0x1 PUSH1 0x1 PUSH1 0xA0 SHL SUB SWAP1 SWAP3 AND SWAP2 SWAP1 SWAP2 OR SWAP1 SSTORE PUSH1 0x80 DUP3 ADD MLOAD PUSH1 0x4 DUP3 ADD SSTORE PUSH1 0xA0 DUP3 ADD MLOAD DUP1 MLOAD PUSH2 0x1070 SWAP2 PUSH1 0x5 DUP5 ADD SWAP2 PUSH1 0x20 SWAP1 SWAP2 ADD SWAP1 PUSH2 0x3C76 JUMP JUMPDEST POP PUSH1 0xC0 DUP3 ADD MLOAD PUSH1 0x6 DUP3 ADD SWAP1 PUSH2 0x1085 SWAP1 DUP3 PUSH2 0x47F5 JUMP JUMPDEST POP PUSH1 0xE0 DUP3 ADD MLOAD PUSH1 0x7 DUP3 ADD SSTORE PUSH2 0x100 DUP3 ADD MLOAD PUSH1 0x8 DUP3 ADD DUP1 SLOAD PUSH1 0xFF NOT AND SWAP2 ISZERO ISZERO SWAP2 SWAP1 SWAP2 OR SWAP1 SSTORE PUSH2 0x120 DUP3 ADD MLOAD DUP1 MLOAD PUSH2 0x10C5 SWAP2 PUSH1 0x9 DUP5 ADD SWAP2 PUSH1 0x20 SWAP1 SWAP2 ADD SWAP1 PUSH2 0x3C76 JUMP JUMPDEST POP SWAP1 POP POP PUSH1 0xD DUP7 PUSH1 0x40 MLOAD PUSH2 0x10D9 SWAP2 SWAP1 PUSH2 0x48B4 JUMP JUMPDEST SWAP1 DUP2 MSTORE PUSH1 0x40 DUP1 MLOAD PUSH1 0x20 SWAP3 DUP2 SWAP1 SUB DUP4 ADD SWAP1 KECCAK256 DUP1 SLOAD PUSH1 0x1 DUP1 DUP3 ADD DUP4 SSTORE PUSH1 0x0 SWAP3 DUP4 MSTORE DUP5 DUP4 KECCAK256 SWAP1 SWAP2 ADD DUP7 SWAP1 SSTORE PUSH1 0x1 PUSH1 0x1 PUSH1 0xA0 SHL SUB DUP14 AND DUP3 MSTORE PUSH1 0xE DUP5 MSTORE SWAP2 DUP2 KECCAK256 DUP1 SLOAD SWAP3 DUP4 ADD DUP2 SSTORE DUP2 MSTORE SWAP2 SWAP1 SWAP2 KECCAK256 ADD DUP3 SWAP1 SSTORE PUSH2 0x112F DUP10 DUP4 PUSH2 0x3355 JUMP JUMPDEST DUP6 PUSH1 0x40 MLOAD PUSH2 0x113D SWAP2 SWAP1 PUSH2 0x48B4 JUMP JUMPDEST PUSH1 0x40 MLOAD SWAP1 DUP2 SWAP1 SUB SWAP1 KECCAK256 PUSH1 0x1 PUSH1 0x1 PUSH1 0xA0 SHL SUB DUP11 AND DUP4 PUSH32 0xAA2C70BE24A9114CFEC7D7C19DDCC0DB6F7A95F30859BD8D6E73556BF38BDAAE PUSH1 0x0 DUP13 PUSH1 0x40 MLOAD PUSH2 0x1183 SWAP3 SWAP2 SWAP1 PUSH2 0x48D0 JUMP JUMPDEST PUSH1 0x40 MLOAD DUP1 SWAP2 SUB SWAP1 LOG4 DUP6 PUSH1 0x40 MLOAD PUSH2 0x1199 SWAP2 SWAP1 PUSH2 0x48B4 JUMP JUMPDEST PUSH1 0x40 MLOAD DUP1 SWAP2 SUB SWAP1 KECCAK256 DUP3 PUSH32 0xFB77BF7A0AFC625B2223FC020C840C3F2EEB7178D5A60FA89D8B1037F9BE7485 DUP11 DUP11 PUSH1 0x40 MLOAD PUSH2 0x11D3 SWAP3 SWAP2 SWAP1 PUSH2 0x48EC JUMP JUMPDEST PUSH1 0x40 MLOAD DUP1 SWAP2 SUB SWAP1 LOG3 DUP6 PUSH1 0x40 MLOAD PUSH2 0x11E9 SWAP2 SWAP1 PUSH2 0x48B4 JUMP JUMPDEST PUSH1 0x40 DUP1 MLOAD SWAP2 DUP3 SWAP1 SUB DUP3 KECCAK256 PUSH1 0x60 DUP1 DUP5 MSTORE PUSH1 0xE SWAP1 DUP5 ADD MSTORE PUSH14 0x1593D250D157D49150D3D4911151 PUSH1 0x92 SHL PUSH1 0x80 DUP5 ADD MSTORE PUSH1 0x1 PUSH1 0x1 PUSH1 0xA0 SHL SUB DUP13 AND PUSH1 0x20 DUP5 ADD MSTORE TIMESTAMP DUP4 DUP4 ADD MSTORE SWAP1 MLOAD SWAP1 SWAP2 PUSH1 0x0 DUP1 MLOAD PUSH1 0x20 PUSH2 0x4A8A DUP4 CODECOPY DUP2 MLOAD SWAP2 MSTORE SWAP2 SWAP1 DUP2 SWAP1 SUB PUSH1 0xA0 ADD SWAP1 LOG2 POP SWAP8 SWAP7 POP POP POP POP POP POP POP JUMP JUMPDEST PUSH1 0x0 PUSH1 0x18 DUP3 PUSH1 0x40 MLOAD PUSH2 0x1264 SWAP2 SWAP1 PUSH2 0x48B4 JUMP JUMPDEST SWAP1 DUP2 MSTORE PUSH1 0x40 MLOAD SWAP1 DUP2 SWAP1 SUB PUSH1 0x20 ADD SWAP1 KECCAK256 SLOAD SWAP3 SWAP2 POP POP JUMP JUMPDEST PUSH1 0x1 PUSH1 0x1 PUSH1 0xA0 SHL SUB DUP3 AND PUSH2 0x12A4 JUMPI PUSH1 0x40 MLOAD PUSH4 0x32505749 PUSH1 0xE1 SHL DUP2 MSTORE PUSH1 0x0 PUSH1 0x4 DUP3 ADD MSTORE PUSH1 0x24 ADD PUSH2 0xA72 JUMP JUMPDEST PUSH1 0x0 PUSH2 0x12B1 DUP4 DUP4 CALLER PUSH2 0x336F JUMP JUMPDEST SWAP1 POP DUP4 PUSH1 0x1 PUSH1 0x1 PUSH1 0xA0 SHL SUB AND DUP2 PUSH1 0x1 PUSH1 0x1 PUSH1 0xA0 SHL SUB AND EQ PUSH2 0x12FF JUMPI PUSH1 0x40 MLOAD PUSH4 0x64283D7B PUSH1 0xE0 SHL DUP2 MSTORE PUSH1 0x1 PUSH1 0x1 PUSH1 0xA0 SHL SUB DUP1 DUP7 AND PUSH1 0x4 DUP4 ADD MSTORE PUSH1 0x24 DUP3 ADD DUP5 SWAP1 MSTORE DUP3 AND PUSH1 0x44 DUP3 ADD MSTORE PUSH1 0x64 ADD PUSH2 0xA72 JUMP JUMPDEST POP POP POP POP JUMP JUMPDEST PUSH1 0x1 PUSH1 0x1 PUSH1 0xA0 SHL SUB DUP2 AND PUSH1 0x0 SWAP1 DUP2 MSTORE PUSH1 0xF PUSH1 0x20 MSTORE PUSH1 0x40 DUP2 KECCAK256 SLOAD PUSH1 0xFF AND DUP1 PUSH2 0x90C JUMPI POP PUSH1 0x0 PUSH2 0x1332 DUP4 PUSH2 0x1A8C JUMP JUMPDEST GT SWAP3 SWAP2 POP POP JUMP JUMPDEST PUSH2 0x1341 PUSH2 0x3384 JUMP JUMPDEST PUSH1 0x1 PUSH1 0x1 PUSH1 0xA0 SHL SUB DUP2 AND PUSH1 0x0 DUP2 DUP2 MSTORE PUSH1 0xF PUSH1 0x20 MSTORE PUSH1 0x40 DUP1 DUP3 KECCAK256 DUP1 SLOAD PUSH1 0xFF NOT AND PUSH1 0x1 OR SWAP1 SSTORE MLOAD PUSH32 0xFDCC2968909DC087130873C247F5BEBD59E7707B597AA312278407E4EB6D05C8 SWAP2 PUSH2 0x139C SWAP2 TIMESTAMP SWAP1 SWAP2 DUP3 MSTORE PUSH1 0x20 DUP3 ADD MSTORE PUSH1 0x40 ADD SWAP1 JUMP JUMPDEST PUSH1 0x40 MLOAD DUP1 SWAP2 SUB SWAP1 LOG2 POP JUMP JUMPDEST PUSH1 0x0 PUSH2 0x13B2 DUP4 PUSH2 0x1A8C JUMP JUMPDEST DUP3 LT PUSH2 0x13E3 JUMPI PUSH1 0x40 MLOAD PUSH4 0x295F44F7 PUSH1 0xE2 SHL DUP2 MSTORE PUSH1 0x1 PUSH1 0x1 PUSH1 0xA0 SHL SUB DUP5 AND PUSH1 0x4 DUP3 ADD MSTORE PUSH1 0x24 DUP2 ADD DUP4 SWAP1 MSTORE PUSH1 0x44 ADD PUSH2 0xA72 JUMP JUMPDEST POP PUSH1 0x1 PUSH1 0x1 PUSH1 0xA0 SHL SUB SWAP2 SWAP1 SWAP2 AND PUSH1 0x0 SWAP1 DUP2 MSTORE PUSH1 0x6 PUSH1 0x20 SWAP1 DUP2 MSTORE PUSH1 0x40 DUP1 DUP4 KECCAK256 SWAP4 DUP4 MSTORE SWAP3 SWAP1 MSTORE KECCAK256 SLOAD SWAP1 JUMP JUMPDEST PUSH1 0x0 PUSH2 0x1418 DUP4 DUP4 PUSH2 0x33B1 JUMP JUMPDEST SWAP4 SWAP3 POP POP POP JUMP JUMPDEST PUSH2 0x1427 PUSH2 0x3384 JUMP JUMPDEST PUSH1 0x0 DUP3 DUP2 MSTORE PUSH1 0x2 PUSH1 0x20 MSTORE PUSH1 0x40 SWAP1 KECCAK256 SLOAD PUSH1 0x1 PUSH1 0x1 PUSH1 0xA0 SHL SUB AND PUSH2 0x145B JUMPI PUSH1 0x40 MLOAD PUSH3 0x461BCD PUSH1 0xE5 SHL DUP2 MSTORE PUSH1 0x4 ADD PUSH2 0xA72 SWAP1 PUSH2 0x4729 JUMP JUMPDEST PUSH1 0x0 DUP3 DUP2 MSTORE PUSH1 0xC PUSH1 0x20 MSTORE PUSH1 0x40 SWAP1 KECCAK256 PUSH1 0x6 ADD PUSH2 0x1476 DUP3 DUP3 PUSH2 0x47F5 JUMP JUMPDEST POP POP POP JUMP JUMPDEST PUSH1 0x11 DUP6 PUSH1 0x40 MLOAD PUSH2 0x148B SWAP2 SWAP1 PUSH2 0x48B4 JUMP JUMPDEST SWAP1 DUP2 MSTORE PUSH1 0x40 MLOAD SWAP1 DUP2 SWAP1 SUB PUSH1 0x20 ADD SWAP1 KECCAK256 SLOAD PUSH1 0xFF AND ISZERO PUSH2 0x14E1 JUMPI PUSH1 0x40 MLOAD PUSH3 0x461BCD PUSH1 0xE5 SHL DUP2 MSTORE PUSH1 0x20 PUSH1 0x4 DUP3 ADD MSTORE PUSH1 0x13 PUSH1 0x24 DUP3 ADD MSTORE PUSH19 0x526F6F6D20616C726561647920657869737473 PUSH1 0x68 SHL PUSH1 0x44 DUP3 ADD MSTORE PUSH1 0x64 ADD PUSH2 0xA72 JUMP JUMPDEST PUSH1 0x0 DUP6 MLOAD GT PUSH2 0x1502 JUMPI PUSH1 0x40 MLOAD PUSH3 0x461BCD PUSH1 0xE5 SHL DUP2 MSTORE PUSH1 0x4 ADD PUSH2 0xA72 SWAP1 PUSH2 0x4756 JUMP JUMPDEST PUSH1 0x0 DUP5 MLOAD GT PUSH2 0x1548 JUMPI PUSH1 0x40 MLOAD PUSH3 0x461BCD PUSH1 0xE5 SHL DUP2 MSTORE PUSH1 0x20 PUSH1 0x4 DUP3 ADD MSTORE PUSH1 0x12 PUSH1 0x24 DUP3 ADD MSTORE PUSH18 0x149BDBDB481B985B59481C995C5D5A5C9959 PUSH1 0x72 SHL PUSH1 0x44 DUP3 ADD MSTORE PUSH1 0x64 ADD PUSH2 0xA72 JUMP JUMPDEST PUSH1 0x1 PUSH1 0x11 DUP7 PUSH1 0x40 MLOAD PUSH2 0x155A SWAP2 SWAP1 PUSH2 0x48B4 JUMP JUMPDEST SWAP1 DUP2 MSTORE PUSH1 0x40 MLOAD SWAP1 DUP2 SWAP1 SUB PUSH1 0x20 ADD DUP2 KECCAK256 DUP1 SLOAD SWAP3 ISZERO ISZERO PUSH1 0xFF NOT SWAP1 SWAP4 AND SWAP3 SWAP1 SWAP3 OR SWAP1 SWAP2 SSTORE DUP5 SWAP1 PUSH1 0x12 SWAP1 PUSH2 0x158B SWAP1 DUP9 SWAP1 PUSH2 0x48B4 JUMP JUMPDEST SWAP1 DUP2 MSTORE PUSH1 0x20 ADD PUSH1 0x40 MLOAD DUP1 SWAP2 SUB SWAP1 KECCAK256 SWAP1 DUP2 PUSH2 0x15A5 SWAP2 SWAP1 PUSH2 0x47F5 JUMP JUMPDEST POP DUP3 PUSH1 0x13 DUP7 PUSH1 0x40 MLOAD PUSH2 0x15B7 SWAP2 SWAP1 PUSH2 0x48B4 JUMP JUMPDEST SWAP1 DUP2 MSTORE PUSH1 0x20 ADD PUSH1 0x40 MLOAD DUP1 SWAP2 SUB SWAP1 KECCAK256 SWAP1 DUP1 MLOAD SWAP1 PUSH1 0x20 ADD SWAP1 PUSH2 0x15D8 SWAP3 SWAP2 SWAP1 PUSH2 0x3C76 JUMP JUMPDEST POP DUP2 PUSH1 0x14 DUP7 PUSH1 0x40 MLOAD PUSH2 0x15EA SWAP2 SWAP1 PUSH2 0x48B4 JUMP JUMPDEST SWAP1 DUP2 MSTORE PUSH1 0x40 MLOAD SWAP1 DUP2 SWAP1 SUB PUSH1 0x20 ADD DUP2 KECCAK256 DUP1 SLOAD SWAP3 ISZERO ISZERO PUSH1 0xFF NOT SWAP1 SWAP4 AND SWAP3 SWAP1 SWAP3 OR SWAP1 SWAP2 SSTORE DUP2 SWAP1 PUSH1 0x15 SWAP1 PUSH2 0x161B SWAP1 DUP9 SWAP1 PUSH2 0x48B4 JUMP JUMPDEST SWAP1 DUP2 MSTORE PUSH1 0x20 ADD PUSH1 0x40 MLOAD DUP1 SWAP2 SUB SWAP1 KECCAK256 DUP2 SWAP1 SSTORE POP CALLER PUSH1 0x16 DUP7 PUSH1 0x40 MLOAD PUSH2 0x163E SWAP2 SWAP1 PUSH2 0x48B4 JUMP JUMPDEST SWAP1 DUP2 MSTORE PUSH1 0x40 MLOAD SWAP1 DUP2 SWAP1 SUB PUSH1 0x20 ADD DUP2 KECCAK256 DUP1 SLOAD PUSH1 0x1 PUSH1 0x1 PUSH1 0xA0 SHL SUB SWAP4 SWAP1 SWAP4 AND PUSH1 0x1 PUSH1 0x1 PUSH1 0xA0 SHL SUB NOT SWAP1 SWAP4 AND SWAP3 SWAP1 SWAP3 OR SWAP1 SWAP2 SSTORE PUSH1 0x18 SWAP1 PUSH2 0x167C SWAP1 DUP8 SWAP1 PUSH2 0x48B4 JUMP JUMPDEST SWAP1 DUP2 MSTORE PUSH1 0x40 MLOAD SWAP1 DUP2 SWAP1 SUB PUSH1 0x20 SWAP1 DUP2 ADD DUP3 KECCAK256 DUP1 SLOAD PUSH1 0x1 DUP2 ADD DUP3 SSTORE PUSH1 0x0 SWAP2 DUP3 MSTORE SWAP2 SWAP1 KECCAK256 ADD DUP1 SLOAD PUSH1 0x1 PUSH1 0x1 PUSH1 0xA0 SHL SUB NOT AND CALLER SWAP1 DUP2 OR SWAP1 SWAP2 SSTORE SWAP1 PUSH2 0x16BD SWAP1 DUP8 SWAP1 PUSH2 0x48B4 JUMP JUMPDEST PUSH1 0x40 MLOAD DUP1 SWAP2 SUB SWAP1 KECCAK256 PUSH32 0xAC59745EDB5F188077AA0E1DCE0BFC05808929AB270315C9A53C9DBBD41F7A9E DUP7 DUP6 PUSH1 0x40 MLOAD PUSH2 0x16F6 SWAP3 SWAP2 SWAP1 PUSH2 0x490E JUMP JUMPDEST PUSH1 0x40 MLOAD DUP1 SWAP2 SUB SWAP1 LOG3 DUP5 PUSH1 0x40 MLOAD PUSH2 0x170C SWAP2 SWAP1 PUSH2 0x48B4 JUMP JUMPDEST PUSH1 0x40 DUP1 MLOAD SWAP2 DUP3 SWAP1 SUB DUP3 KECCAK256 PUSH1 0x60 DUP1 DUP5 MSTORE PUSH1 0xC SWAP1 DUP5 ADD MSTORE PUSH12 0x1493D3D357D0D49150551151 PUSH1 0xA2 SHL PUSH1 0x80 DUP5 ADD MSTORE CALLER PUSH1 0x20 DUP5 ADD MSTORE TIMESTAMP DUP4 DUP4 ADD MSTORE SWAP1 MLOAD SWAP1 SWAP2 PUSH1 0x0 DUP1 MLOAD PUSH1 0x20 PUSH2 0x4A8A DUP4 CODECOPY DUP2 MLOAD SWAP2 MSTORE SWAP2 SWAP1 DUP2 SWAP1 SUB PUSH1 0xA0 ADD SWAP1 LOG2 POP POP POP POP POP JUMP JUMPDEST PUSH2 0x176D PUSH2 0x3384 JUMP JUMPDEST SELFBALANCE PUSH1 0x0 DUP1 PUSH2 0x177B DUP2 DUP5 PUSH2 0x4932 JUMP JUMPDEST SWAP1 POP PUSH1 0x0 DUP2 GT PUSH2 0x17CD JUMPI PUSH1 0x40 MLOAD PUSH3 0x461BCD PUSH1 0xE5 SHL DUP2 MSTORE PUSH1 0x20 PUSH1 0x4 DUP3 ADD MSTORE PUSH1 0x1A PUSH1 0x24 DUP3 ADD MSTORE PUSH32 0x4E6F206F776E65722066756E647320746F207769746864726177000000000000 PUSH1 0x44 DUP3 ADD MSTORE PUSH1 0x64 ADD PUSH2 0xA72 JUMP JUMPDEST PUSH1 0x0 PUSH2 0x17E1 PUSH1 0xA SLOAD PUSH1 0x1 PUSH1 0x1 PUSH1 0xA0 SHL SUB AND SWAP1 JUMP JUMPDEST PUSH1 0x1 PUSH1 0x1 PUSH1 0xA0 SHL SUB AND DUP3 PUSH1 0x40 MLOAD PUSH1 0x0 PUSH1 0x40 MLOAD DUP1 DUP4 SUB DUP2 DUP6 DUP8 GAS CALL SWAP3 POP POP POP RETURNDATASIZE DUP1 PUSH1 0x0 DUP2 EQ PUSH2 0x182B JUMPI PUSH1 0x40 MLOAD SWAP2 POP PUSH1 0x1F NOT PUSH1 0x3F RETURNDATASIZE ADD AND DUP3 ADD PUSH1 0x40 MSTORE RETURNDATASIZE DUP3 MSTORE RETURNDATASIZE PUSH1 0x0 PUSH1 0x20 DUP5 ADD RETURNDATACOPY PUSH2 0x1830 JUMP JUMPDEST PUSH1 0x60 SWAP2 POP JUMPDEST POP POP SWAP1 POP DUP1 PUSH2 0x1875 JUMPI PUSH1 0x40 MLOAD PUSH3 0x461BCD PUSH1 0xE5 SHL DUP2 MSTORE PUSH1 0x20 PUSH1 0x4 DUP3 ADD MSTORE PUSH1 0x11 PUSH1 0x24 DUP3 ADD MSTORE PUSH17 0x15DA5D1A191C985DD85B0819985A5B1959 PUSH1 0x7A SHL PUSH1 0x44 DUP3 ADD MSTORE PUSH1 0x64 ADD PUSH2 0xA72 JUMP JUMPDEST PUSH1 0xA SLOAD PUSH1 0x40 DUP1 MLOAD DUP5 DUP2 MSTORE TIMESTAMP PUSH1 0x20 DUP3 ADD MSTORE PUSH1 0x1 PUSH1 0x1 PUSH1 0xA0 SHL SUB SWAP1 SWAP3 AND SWAP2 PUSH32 0x2D4D49C3E017B8235C908CBAA83A2431A08F3B950712696ECE2088964FD399F0 SWAP2 ADD PUSH1 0x40 MLOAD DUP1 SWAP2 SUB SWAP1 LOG2 POP POP POP POP JUMP JUMPDEST PUSH2 0x1476 DUP4 DUP4 DUP4 PUSH1 0x40 MLOAD DUP1 PUSH1 0x20 ADD PUSH1 0x40 MSTORE DUP1 PUSH1 0x0 DUP2 MSTORE POP PUSH2 0x1FE0 JUMP JUMPDEST PUSH1 0x0 PUSH2 0x18E8 PUSH1 0x8 SLOAD SWAP1 JUMP JUMPDEST DUP3 LT PUSH2 0x1911 JUMPI PUSH1 0x40 MLOAD PUSH4 0x295F44F7 PUSH1 0xE2 SHL DUP2 MSTORE PUSH1 0x0 PUSH1 0x4 DUP3 ADD MSTORE PUSH1 0x24 DUP2 ADD DUP4 SWAP1 MSTORE PUSH1 0x44 ADD PUSH2 0xA72 JUMP JUMPDEST PUSH1 0x8 DUP3 DUP2 SLOAD DUP2 LT PUSH2 0x1924 JUMPI PUSH2 0x1924 PUSH2 0x4945 JUMP JUMPDEST SWAP1 PUSH1 0x0 MSTORE PUSH1 0x20 PUSH1 0x0 KECCAK256 ADD SLOAD SWAP1 POP SWAP2 SWAP1 POP JUMP JUMPDEST PUSH1 0x0 PUSH2 0x90C DUP3 PUSH2 0x330F JUMP JUMPDEST PUSH2 0x1949 PUSH2 0x3384 JUMP JUMPDEST PUSH1 0x11 DUP4 PUSH1 0x40 MLOAD PUSH2 0x1959 SWAP2 SWAP1 PUSH2 0x48B4 JUMP JUMPDEST SWAP1 DUP2 MSTORE PUSH1 0x40 MLOAD SWAP1 DUP2 SWAP1 SUB PUSH1 0x20 ADD SWAP1 KECCAK256 SLOAD PUSH1 0xFF AND PUSH2 0x1988 JUMPI PUSH1 0x40 MLOAD PUSH3 0x461BCD PUSH1 0xE5 SHL DUP2 MSTORE PUSH1 0x4 ADD PUSH2 0xA72 SWAP1 PUSH2 0x495B JUMP JUMPDEST DUP2 PUSH1 0x12 DUP5 PUSH1 0x40 MLOAD PUSH2 0x1999 SWAP2 SWAP1 PUSH2 0x48B4 JUMP JUMPDEST SWAP1 DUP2 MSTORE PUSH1 0x20 ADD PUSH1 0x40 MLOAD DUP1 SWAP2 SUB SWAP1 KECCAK256 SWAP1 DUP2 PUSH2 0x19B3 SWAP2 SWAP1 PUSH2 0x47F5 JUMP JUMPDEST POP DUP1 PUSH1 0x14 DUP5 PUSH1 0x40 MLOAD PUSH2 0x19C5 SWAP2 SWAP1 PUSH2 0x48B4 JUMP JUMPDEST SWAP1 DUP2 MSTORE PUSH1 0x40 MLOAD SWAP1 DUP2 SWAP1 SUB PUSH1 0x20 ADD DUP2 KECCAK256 DUP1 SLOAD SWAP3 ISZERO ISZERO PUSH1 0xFF NOT SWAP1 SWAP4 AND SWAP3 SWAP1 SWAP3 OR SWAP1 SWAP2 SSTORE CALLER SWAP1 PUSH2 0x19F3 SWAP1 DUP6 SWAP1 PUSH2 0x48B4 JUMP JUMPDEST PUSH1 0x40 MLOAD DUP1 SWAP2 SUB SWAP1 KECCAK256 PUSH32 0x142AFF3EF477707B9D3E82C9185D697B394052E7E275C29E73DCEB157CBBE988 DUP5 DUP5 PUSH1 0x40 MLOAD PUSH2 0x1A2C SWAP3 SWAP2 SWAP1 PUSH2 0x490E JUMP JUMPDEST PUSH1 0x40 MLOAD DUP1 SWAP2 SUB SWAP1 LOG3 POP POP POP JUMP JUMPDEST PUSH2 0x1A41 PUSH2 0x3384 JUMP JUMPDEST PUSH1 0x10 DUP1 SLOAD SWAP1 DUP3 SWAP1 SSTORE PUSH1 0x40 DUP1 MLOAD DUP3 DUP2 MSTORE PUSH1 0x20 DUP2 ADD DUP5 SWAP1 MSTORE TIMESTAMP DUP2 DUP4 ADD MSTORE SWAP1 MLOAD PUSH32 0x4BACF724E32AA69038149A634356EB926D5A496D3815F3077E18008306790671 SWAP2 DUP2 SWAP1 SUB PUSH1 0x60 ADD SWAP1 LOG1 POP POP JUMP JUMPDEST PUSH1 0x0 PUSH1 0x1 PUSH1 0x1 PUSH1 0xA0 SHL SUB DUP3 AND PUSH2 0x1AB8 JUMPI PUSH1 0x40 MLOAD PUSH4 0x22718AD9 PUSH1 0xE2 SHL DUP2 MSTORE PUSH1 0x0 PUSH1 0x4 DUP3 ADD MSTORE PUSH1 0x24 ADD PUSH2 0xA72 JUMP JUMPDEST POP PUSH1 0x1 PUSH1 0x1 PUSH1 0xA0 SHL SUB AND PUSH1 0x0 SWAP1 DUP2 MSTORE PUSH1 0x3 PUSH1 0x20 MSTORE PUSH1 0x40 SWAP1 KECCAK256 SLOAD SWAP1 JUMP JUMPDEST PUSH2 0x1ADC PUSH2 0x3384 JUMP JUMPDEST PUSH2 0x1AE6 PUSH1 0x0 PUSH2 0x3482 JUMP JUMPDEST JUMP JUMPDEST PUSH1 0x10 SLOAD CALLVALUE LT ISZERO PUSH2 0x1B45 JUMPI PUSH1 0x40 MLOAD PUSH3 0x461BCD PUSH1 0xE5 SHL DUP2 MSTORE PUSH1 0x20 PUSH1 0x4 DUP3 ADD MSTORE PUSH1 0x22 PUSH1 0x24 DUP3 ADD MSTORE PUSH32 0x496E73756666696369656E74207061796D656E7420666F722041492061636365 PUSH1 0x44 DUP3 ADD MSTORE PUSH2 0x7373 PUSH1 0xF0 SHL PUSH1 0x64 DUP3 ADD MSTORE PUSH1 0x84 ADD PUSH2 0xA72 JUMP JUMPDEST CALLER PUSH1 0x0 DUP2 DUP2 MSTORE PUSH1 0xF PUSH1 0x20 MSTORE PUSH1 0x40 SWAP1 DUP2 SWAP1 KECCAK256 DUP1 SLOAD PUSH1 0xFF NOT AND PUSH1 0x1 OR SWAP1 SSTORE MLOAD PUSH32 0xFDCC2968909DC087130873C247F5BEBD59E7707B597AA312278407E4EB6D05C8 SWAP1 PUSH2 0x1B9A SWAP1 CALLVALUE SWAP1 TIMESTAMP SWAP1 SWAP2 DUP3 MSTORE PUSH1 0x20 DUP3 ADD MSTORE PUSH1 0x40 ADD SWAP1 JUMP JUMPDEST PUSH1 0x40 MLOAD DUP1 SWAP2 SUB SWAP1 LOG2 JUMP JUMPDEST PUSH1 0x60 PUSH1 0x1 DUP1 SLOAD PUSH2 0x921 SWAP1 PUSH2 0x46EF JUMP JUMPDEST PUSH2 0x9D8 CALLER DUP4 DUP4 PUSH2 0x34D4 JUMP JUMPDEST PUSH1 0x11 DUP2 PUSH1 0x40 MLOAD PUSH2 0x1BCE SWAP2 SWAP1 PUSH2 0x48B4 JUMP JUMPDEST SWAP1 DUP2 MSTORE PUSH1 0x40 MLOAD SWAP1 DUP2 SWAP1 SUB PUSH1 0x20 ADD SWAP1 KECCAK256 SLOAD PUSH1 0xFF AND PUSH2 0x1BFD JUMPI PUSH1 0x40 MLOAD PUSH3 0x461BCD PUSH1 0xE5 SHL DUP2 MSTORE PUSH1 0x4 ADD PUSH2 0xA72 SWAP1 PUSH2 0x495B JUMP JUMPDEST CALLER PUSH1 0x1 PUSH1 0x1 PUSH1 0xA0 SHL SUB AND PUSH1 0x16 DUP3 PUSH1 0x40 MLOAD PUSH2 0x1C17 SWAP2 SWAP1 PUSH2 0x48B4 JUMP JUMPDEST SWAP1 DUP2 MSTORE PUSH1 0x40 MLOAD SWAP1 DUP2 SWAP1 SUB PUSH1 0x20 ADD SWAP1 KECCAK256 SLOAD PUSH1 0x1 PUSH1 0x1 PUSH1 0xA0 SHL SUB AND EQ PUSH2 0x1C7D JUMPI PUSH1 0x40 MLOAD PUSH3 0x461BCD PUSH1 0xE5 SHL DUP2 MSTORE PUSH1 0x20 PUSH1 0x4 DUP3 ADD MSTORE PUSH1 0x1E PUSH1 0x24 DUP3 ADD MSTORE PUSH32 0x4F6E6C7920726F6F6D2063726561746F722063616E2077697468647261770000 PUSH1 0x44 DUP3 ADD MSTORE PUSH1 0x64 ADD PUSH2 0xA72 JUMP JUMPDEST PUSH1 0x0 PUSH1 0x17 DUP3 PUSH1 0x40 MLOAD PUSH2 0x1C8F SWAP2 SWAP1 PUSH2 0x48B4 JUMP JUMPDEST SWAP1 DUP2 MSTORE PUSH1 0x20 ADD PUSH1 0x40 MLOAD DUP1 SWAP2 SUB SWAP1 KECCAK256 SLOAD SWAP1 POP PUSH1 0x0 DUP2 GT PUSH2 0x1CF0 JUMPI PUSH1 0x40 MLOAD PUSH3 0x461BCD PUSH1 0xE5 SHL DUP2 MSTORE PUSH1 0x20 PUSH1 0x4 DUP3 ADD MSTORE PUSH1 0x17 PUSH1 0x24 DUP3 ADD MSTORE PUSH32 0x4E6F206561726E696E677320746F207769746864726177000000000000000000 PUSH1 0x44 DUP3 ADD MSTORE PUSH1 0x64 ADD PUSH2 0xA72 JUMP JUMPDEST PUSH1 0x0 PUSH1 0x17 DUP4 PUSH1 0x40 MLOAD PUSH2 0x1D02 SWAP2 SWAP1 PUSH2 0x48B4 JUMP JUMPDEST SWAP1 DUP2 MSTORE PUSH1 0x40 MLOAD SWAP1 DUP2 SWAP1 SUB PUSH1 0x20 ADD DUP2 KECCAK256 SWAP2 SWAP1 SWAP2 SSTORE PUSH1 0x0 SWAP1 CALLER SWAP1 DUP4 SWAP1 DUP4 DUP2 DUP2 DUP2 DUP6 DUP8 GAS CALL SWAP3 POP POP POP RETURNDATASIZE DUP1 PUSH1 0x0 DUP2 EQ PUSH2 0x1D54 JUMPI PUSH1 0x40 MLOAD SWAP2 POP PUSH1 0x1F NOT PUSH1 0x3F RETURNDATASIZE ADD AND DUP3 ADD PUSH1 0x40 MSTORE RETURNDATASIZE DUP3 MSTORE RETURNDATASIZE PUSH1 0x0 PUSH1 0x20 DUP5 ADD RETURNDATACOPY PUSH2 0x1D59 JUMP JUMPDEST PUSH1 0x60 SWAP2 POP JUMPDEST POP POP SWAP1 POP DUP1 PUSH2 0x1D9E JUMPI PUSH1 0x40 MLOAD PUSH3 0x461BCD PUSH1 0xE5 SHL DUP2 MSTORE PUSH1 0x20 PUSH1 0x4 DUP3 ADD MSTORE PUSH1 0x11 PUSH1 0x24 DUP3 ADD MSTORE PUSH17 0x15DA5D1A191C985DD85B0819985A5B1959 PUSH1 0x7A SHL PUSH1 0x44 DUP3 ADD MSTORE PUSH1 0x64 ADD PUSH2 0xA72 JUMP JUMPDEST DUP3 PUSH1 0x40 MLOAD PUSH2 0x1DAC SWAP2 SWAP1 PUSH2 0x48B4 JUMP JUMPDEST PUSH1 0x40 DUP1 MLOAD SWAP2 DUP3 SWAP1 SUB DUP3 KECCAK256 DUP5 DUP4 MSTORE TIMESTAMP PUSH1 0x20 DUP5 ADD MSTORE SWAP2 CALLER SWAP2 PUSH32 0x412F7763E1583080B4A41F2EC2A210FA431F88BAE9FB5CA0A1E48C411C3C5472 SWAP2 ADD PUSH2 0x1A2C JUMP JUMPDEST PUSH1 0x0 PUSH1 0x14 DUP4 PUSH1 0x40 MLOAD PUSH2 0x1DFC SWAP2 SWAP1 PUSH2 0x48B4 JUMP JUMPDEST SWAP1 DUP2 MSTORE PUSH1 0x40 MLOAD SWAP1 DUP2 SWAP1 SUB PUSH1 0x20 ADD SWAP1 KECCAK256 SLOAD PUSH1 0xFF AND ISZERO PUSH2 0x1E1C JUMPI POP PUSH1 0x1 PUSH2 0x90C JUMP JUMPDEST PUSH1 0x0 PUSH1 0x13 DUP5 PUSH1 0x40 MLOAD PUSH2 0x1E2E SWAP2 SWAP1 PUSH2 0x48B4 JUMP JUMPDEST SWAP1 DUP2 MSTORE PUSH1 0x20 ADD PUSH1 0x40 MLOAD DUP1 SWAP2 SUB SWAP1 KECCAK256 DUP1 SLOAD DUP1 PUSH1 0x20 MUL PUSH1 0x20 ADD PUSH1 0x40 MLOAD SWAP1 DUP2 ADD PUSH1 0x40 MSTORE DUP1 SWAP3 SWAP2 SWAP1 DUP2 DUP2 MSTORE PUSH1 0x20 ADD PUSH1 0x0 SWAP1 JUMPDEST DUP3 DUP3 LT ISZERO PUSH2 0x1F08 JUMPI DUP4 DUP3 SWAP1 PUSH1 0x0 MSTORE PUSH1 0x20 PUSH1 0x0 KECCAK256 ADD DUP1 SLOAD PUSH2 0x1E7B SWAP1 PUSH2 0x46EF JUMP JUMPDEST DUP1 PUSH1 0x1F ADD PUSH1 0x20 DUP1 SWAP2 DIV MUL PUSH1 0x20 ADD PUSH1 0x40 MLOAD SWAP1 DUP2 ADD PUSH1 0x40 MSTORE DUP1 SWAP3 SWAP2 SWAP1 DUP2 DUP2 MSTORE PUSH1 0x20 ADD DUP3 DUP1 SLOAD PUSH2 0x1EA7 SWAP1 PUSH2 0x46EF JUMP JUMPDEST DUP1 ISZERO PUSH2 0x1EF4 JUMPI DUP1 PUSH1 0x1F LT PUSH2 0x1EC9 JUMPI PUSH2 0x100 DUP1 DUP4 SLOAD DIV MUL DUP4 MSTORE SWAP2 PUSH1 0x20 ADD SWAP2 PUSH2 0x1EF4 JUMP JUMPDEST DUP3 ADD SWAP2 SWAP1 PUSH1 0x0 MSTORE PUSH1 0x20 PUSH1 0x0 KECCAK256 SWAP1 JUMPDEST DUP2 SLOAD DUP2 MSTORE SWAP1 PUSH1 0x1 ADD SWAP1 PUSH1 0x20 ADD DUP1 DUP4 GT PUSH2 0x1ED7 JUMPI DUP3 SWAP1 SUB PUSH1 0x1F AND DUP3 ADD SWAP2 JUMPDEST POP POP POP POP POP DUP2 MSTORE PUSH1 0x20 ADD SWAP1 PUSH1 0x1 ADD SWAP1 PUSH2 0x1E5C JUMP JUMPDEST POP POP POP POP SWAP1 POP PUSH1 0x0 JUMPDEST DUP2 MLOAD DUP2 LT ISZERO PUSH2 0x1F65 JUMPI DUP4 DUP1 MLOAD SWAP1 PUSH1 0x20 ADD KECCAK256 DUP3 DUP3 DUP2 MLOAD DUP2 LT PUSH2 0x1F34 JUMPI PUSH2 0x1F34 PUSH2 0x4945 JUMP JUMPDEST PUSH1 0x20 MUL PUSH1 0x20 ADD ADD MLOAD DUP1 MLOAD SWAP1 PUSH1 0x20 ADD KECCAK256 SUB PUSH2 0x1F53 JUMPI PUSH1 0x1 SWAP3 POP POP POP PUSH2 0x90C JUMP JUMPDEST DUP1 PUSH2 0x1F5D DUP2 PUSH2 0x4796 JUMP JUMPDEST SWAP2 POP POP PUSH2 0x1F11 JUMP JUMPDEST POP PUSH1 0x0 SWAP5 SWAP4 POP POP POP POP JUMP JUMPDEST PUSH1 0x60 PUSH1 0xD DUP3 PUSH1 0x40 MLOAD PUSH2 0x1F82 SWAP2 SWAP1 PUSH2 0x48B4 JUMP JUMPDEST SWAP1 DUP2 MSTORE PUSH1 0x40 DUP1 MLOAD SWAP2 DUP3 SWAP1 SUB PUSH1 0x20 SWAP1 DUP2 ADD DUP4 KECCAK256 DUP1 SLOAD DUP1 DUP4 MUL DUP6 ADD DUP4 ADD SWAP1 SWAP4 MSTORE DUP3 DUP5 MSTORE SWAP2 SWAP1 DUP4 ADD DUP3 DUP3 DUP1 ISZERO PUSH2 0x1FD4 JUMPI PUSH1 0x20 MUL DUP3 ADD SWAP2 SWAP1 PUSH1 0x0 MSTORE PUSH1 0x20 PUSH1 0x0 KECCAK256 SWAP1 JUMPDEST DUP2 SLOAD DUP2 MSTORE PUSH1 0x20 ADD SWAP1 PUSH1 0x1 ADD SWAP1 DUP1 DUP4 GT PUSH2 0x1FC0 JUMPI JUMPDEST POP POP POP POP POP SWAP1 POP SWAP2 SWAP1 POP JUMP JUMPDEST PUSH2 0x1FEB DUP5 DUP5 DUP5 PUSH2 0x127A JUMP JUMPDEST PUSH2 0x12FF CALLER DUP6 DUP6 DUP6 DUP6 PUSH2 0x356B JUMP JUMPDEST PUSH1 0x0 DUP2 DUP2 MSTORE PUSH1 0x2 PUSH1 0x20 MSTORE PUSH1 0x40 SWAP1 KECCAK256 SLOAD PUSH1 0x60 SWAP1 PUSH1 0x1 PUSH1 0x1 PUSH1 0xA0 SHL SUB AND PUSH2 0x202F JUMPI PUSH1 0x40 MLOAD PUSH3 0x461BCD PUSH1 0xE5 SHL DUP2 MSTORE PUSH1 0x4 ADD PUSH2 0xA72 SWAP1 PUSH2 0x4729 JUMP JUMPDEST PUSH1 0x0 DUP3 DUP2 MSTORE PUSH1 0xC PUSH1 0x20 MSTORE PUSH1 0x40 DUP1 DUP3 KECCAK256 DUP2 MLOAD PUSH2 0x140 DUP2 ADD SWAP1 SWAP3 MSTORE DUP1 SLOAD DUP3 SWAP1 DUP3 SWAP1 PUSH2 0x2057 SWAP1 PUSH2 0x46EF JUMP JUMPDEST DUP1 PUSH1 0x1F ADD PUSH1 0x20 DUP1 SWAP2 DIV MUL PUSH1 0x20 ADD PUSH1 0x40 MLOAD SWAP1 DUP2 ADD PUSH1 0x40 MSTORE DUP1 SWAP3 SWAP2 SWAP1 DUP2 DUP2 MSTORE PUSH1 0x20 ADD DUP3 DUP1 SLOAD PUSH2 0x2083 SWAP1 PUSH2 0x46EF JUMP JUMPDEST DUP1 ISZERO PUSH2 0x20D0 JUMPI DUP1 PUSH1 0x1F LT PUSH2 0x20A5 JUMPI PUSH2 0x100 DUP1 DUP4 SLOAD DIV MUL DUP4 MSTORE SWAP2 PUSH1 0x20 ADD SWAP2 PUSH2 0x20D0 JUMP JUMPDEST DUP3 ADD SWAP2 SWAP1 PUSH1 0x0 MSTORE PUSH1 0x20 PUSH1 0x0 KECCAK256 SWAP1 JUMPDEST DUP2 SLOAD DUP2 MSTORE SWAP1 PUSH1 0x1 ADD SWAP1 PUSH1 0x20 ADD DUP1 DUP4 GT PUSH2 0x20B3 JUMPI DUP3 SWAP1 SUB PUSH1 0x1F AND DUP3 ADD SWAP2 JUMPDEST POP POP POP SWAP2 DUP4 MSTORE POP POP PUSH1 0x1 DUP3 ADD SLOAD PUSH1 0x20 SWAP1 SWAP2 ADD SWAP1 PUSH1 0xFF AND PUSH1 0x2 DUP2 GT ISZERO PUSH2 0x20F7 JUMPI PUSH2 0x20F7 PUSH2 0x3E43 JUMP JUMPDEST PUSH1 0x2 DUP2 GT ISZERO PUSH2 0x2108 JUMPI PUSH2 0x2108 PUSH2 0x3E43 JUMP JUMPDEST DUP2 MSTORE PUSH1 0x20 ADD PUSH1 0x2 DUP3 ADD DUP1 SLOAD PUSH2 0x211C SWAP1 PUSH2 0x46EF JUMP JUMPDEST DUP1 PUSH1 0x1F ADD PUSH1 0x20 DUP1 SWAP2 DIV MUL PUSH1 0x20 ADD PUSH1 0x40 MLOAD SWAP1 DUP2 ADD PUSH1 0x40 MSTORE DUP1 SWAP3 SWAP2 SWAP1 DUP2 DUP2 MSTORE PUSH1 0x20 ADD DUP3 DUP1 SLOAD PUSH2 0x2148 SWAP1 PUSH2 0x46EF JUMP JUMPDEST DUP1 ISZERO PUSH2 0x2195 JUMPI DUP1 PUSH1 0x1F LT PUSH2 0x216A JUMPI PUSH2 0x100 DUP1 DUP4 SLOAD DIV MUL DUP4 MSTORE SWAP2 PUSH1 0x20 ADD SWAP2 PUSH2 0x2195 JUMP JUMPDEST DUP3 ADD SWAP2 SWAP1 PUSH1 0x0 MSTORE PUSH1 0x20 PUSH1 0x0 KECCAK256 SWAP1 JUMPDEST DUP2 SLOAD DUP2 MSTORE SWAP1 PUSH1 0x1 ADD SWAP1 PUSH1 0x20 ADD DUP1 DUP4 GT PUSH2 0x2178 JUMPI DUP3 SWAP1 SUB PUSH1 0x1F AND DUP3 ADD SWAP2 JUMPDEST POP POP POP POP POP DUP2 MSTORE PUSH1 0x20 ADD PUSH1 0x3 DUP3 ADD PUSH1 0x0 SWAP1 SLOAD SWAP1 PUSH2 0x100 EXP SWAP1 DIV PUSH1 0x1 PUSH1 0x1 PUSH1 0xA0 SHL SUB AND PUSH1 0x1 PUSH1 0x1 PUSH1 0xA0 SHL SUB AND PUSH1 0x1 PUSH1 0x1 PUSH1 0xA0 SHL SUB AND DUP2 MSTORE PUSH1 0x20 ADD PUSH1 0x4 DUP3 ADD SLOAD DUP2 MSTORE PUSH1 0x20 ADD PUSH1 0x5 DUP3 ADD DUP1 SLOAD DUP1 PUSH1 0x20 MUL PUSH1 0x20 ADD PUSH1 0x40 MLOAD SWAP1 DUP2 ADD PUSH1 0x40 MSTORE DUP1 SWAP3 SWAP2 SWAP1 DUP2 DUP2 MSTORE PUSH1 0x20 ADD PUSH1 0x0 SWAP1 JUMPDEST DUP3 DUP3 LT ISZERO PUSH2 0x22A8 JUMPI DUP4 DUP3 SWAP1 PUSH1 0x0 MSTORE PUSH1 0x20 PUSH1 0x0 KECCAK256 ADD DUP1 SLOAD PUSH2 0x221B SWAP1 PUSH2 0x46EF JUMP JUMPDEST DUP1 PUSH1 0x1F ADD PUSH1 0x20 DUP1 SWAP2 DIV MUL PUSH1 0x20 ADD PUSH1 0x40 MLOAD SWAP1 DUP2 ADD PUSH1 0x40 MSTORE DUP1 SWAP3 SWAP2 SWAP1 DUP2 DUP2 MSTORE PUSH1 0x20 ADD DUP3 DUP1 SLOAD PUSH2 0x2247 SWAP1 PUSH2 0x46EF JUMP JUMPDEST DUP1 ISZERO PUSH2 0x2294 JUMPI DUP1 PUSH1 0x1F LT PUSH2 0x2269 JUMPI PUSH2 0x100 DUP1 DUP4 SLOAD DIV MUL DUP4 MSTORE SWAP2 PUSH1 0x20 ADD SWAP2 PUSH2 0x2294 JUMP JUMPDEST DUP3 ADD SWAP2 SWAP1 PUSH1 0x0 MSTORE PUSH1 0x20 PUSH1 0x0 KECCAK256 SWAP1 JUMPDEST DUP2 SLOAD DUP2 MSTORE SWAP1 PUSH1 0x1 ADD SWAP1 PUSH1 0x20 ADD DUP1 DUP4 GT PUSH2 0x2277 JUMPI DUP3 SWAP1 SUB PUSH1 0x1F AND DUP3 ADD SWAP2 JUMPDEST POP POP POP POP POP DUP2 MSTORE PUSH1 0x20 ADD SWAP1 PUSH1 0x1 ADD SWAP1 PUSH2 0x21FC JUMP JUMPDEST POP POP POP POP DUP2 MSTORE PUSH1 0x20 ADD PUSH1 0x6 DUP3 ADD DUP1 SLOAD PUSH2 0x22C0 SWAP1 PUSH2 0x46EF JUMP JUMPDEST DUP1 PUSH1 0x1F ADD PUSH1 0x20 DUP1 SWAP2 DIV MUL PUSH1 0x20 ADD PUSH1 0x40 MLOAD SWAP1 DUP2 ADD PUSH1 0x40 MSTORE DUP1 SWAP3 SWAP2 SWAP1 DUP2 DUP2 MSTORE PUSH1 0x20 ADD DUP3 DUP1 SLOAD PUSH2 0x22EC SWAP1 PUSH2 0x46EF JUMP JUMPDEST DUP1 ISZERO PUSH2 0x2339 JUMPI DUP1 PUSH1 0x1F LT PUSH2 0x230E JUMPI PUSH2 0x100 DUP1 DUP4 SLOAD DIV MUL DUP4 MSTORE SWAP2 PUSH1 0x20 ADD SWAP2 PUSH2 0x2339 JUMP JUMPDEST DUP3 ADD SWAP2 SWAP1 PUSH1 0x0 MSTORE PUSH1 0x20 PUSH1 0x0 KECCAK256 SWAP1 JUMPDEST DUP2 SLOAD DUP2 MSTORE SWAP1 PUSH1 0x1 ADD SWAP1 PUSH1 0x20 ADD DUP1 DUP4 GT PUSH2 0x231C JUMPI DUP3 SWAP1 SUB PUSH1 0x1F AND DUP3 ADD SWAP2 JUMPDEST POP POP POP POP POP DUP2 MSTORE PUSH1 0x20 ADD PUSH1 0x7 DUP3 ADD SLOAD DUP2 MSTORE PUSH1 0x20 ADD PUSH1 0x8 DUP3 ADD PUSH1 0x0 SWAP1 SLOAD SWAP1 PUSH2 0x100 EXP SWAP1 DIV PUSH1 0xFF AND ISZERO ISZERO ISZERO ISZERO DUP2 MSTORE PUSH1 0x20 ADD PUSH1 0x9 DUP3 ADD DUP1 SLOAD DUP1 PUSH1 0x20 MUL PUSH1 0x20 ADD PUSH1 0x40 MLOAD SWAP1 DUP2 ADD PUSH1 0x40 MSTORE DUP1 SWAP3 SWAP2 SWAP1 DUP2 DUP2 MSTORE PUSH1 0x20 ADD PUSH1 0x0 SWAP1 JUMPDEST DUP3 DUP3 LT ISZERO PUSH2 0x2438 JUMPI DUP4 DUP3 SWAP1 PUSH1 0x0 MSTORE PUSH1 0x20 PUSH1 0x0 KECCAK256 ADD DUP1 SLOAD PUSH2 0x23AB SWAP1 PUSH2 0x46EF JUMP JUMPDEST DUP1 PUSH1 0x1F ADD PUSH1 0x20 DUP1 SWAP2 DIV MUL PUSH1 0x20 ADD PUSH1 0x40 MLOAD SWAP1 DUP2 ADD PUSH1 0x40 MSTORE DUP1 SWAP3 SWAP2 SWAP1 DUP2 DUP2 MSTORE PUSH1 0x20 ADD DUP3 DUP1 SLOAD PUSH2 0x23D7 SWAP1 PUSH2 0x46EF JUMP JUMPDEST DUP1 ISZERO PUSH2 0x2424 JUMPI DUP1 PUSH1 0x1F LT PUSH2 0x23F9 JUMPI PUSH2 0x100 DUP1 DUP4 SLOAD DIV MUL DUP4 MSTORE SWAP2 PUSH1 0x20 ADD SWAP2 PUSH2 0x2424 JUMP JUMPDEST DUP3 ADD SWAP2 SWAP1 PUSH1 0x0 MSTORE PUSH1 0x20 PUSH1 0x0 KECCAK256 SWAP1 JUMPDEST DUP2 SLOAD DUP2 MSTORE SWAP1 PUSH1 0x1 ADD SWAP1 PUSH1 0x20 ADD DUP1 DUP4 GT PUSH2 0x2407 JUMPI DUP3 SWAP1 SUB PUSH1 0x1F AND DUP3 ADD SWAP2 JUMPDEST POP POP POP POP POP DUP2 MSTORE PUSH1 0x20 ADD SWAP1 PUSH1 0x1 ADD SWAP1 PUSH2 0x238C JUMP JUMPDEST POP POP POP SWAP2 MSTORE POP POP DUP1 MLOAD PUSH1 0x40 MLOAD SWAP2 SWAP3 POP PUSH2 0x2453 SWAP2 PUSH1 0x20 ADD PUSH2 0x4987 JUMP JUMPDEST PUSH1 0x40 MLOAD PUSH1 0x20 DUP2 DUP4 SUB SUB DUP2 MSTORE SWAP1 PUSH1 0x40 MSTORE SWAP2 POP POP SWAP2 SWAP1 POP JUMP JUMPDEST PUSH2 0x2472 PUSH2 0x3384 JUMP JUMPDEST PUSH1 0x1 PUSH1 0x1 PUSH1 0xA0 SHL SUB DUP2 AND PUSH1 0x0 DUP2 DUP2 MSTORE PUSH1 0xF PUSH1 0x20 MSTORE PUSH1 0x40 SWAP1 DUP2 SWAP1 KECCAK256 DUP1 SLOAD PUSH1 0xFF NOT AND SWAP1 SSTORE MLOAD CALLER SWAP2 SWAP1 PUSH32 0xDB7A5EB420FA8C1E3EF4855E10A6F867046E2B0A0C672BF6263CA1B5DAB96925 SWAP1 PUSH2 0x24C7 SWAP1 TIMESTAMP DUP2 MSTORE PUSH1 0x20 ADD SWAP1 JUMP JUMPDEST PUSH1 0x40 MLOAD DUP1 SWAP2 SUB SWAP1 LOG3 POP JUMP JUMPDEST PUSH1 0x60 PUSH1 0x18 DUP3 PUSH1 0x40 MLOAD PUSH2 0x24E4 SWAP2 SWAP1 PUSH2 0x48B4 JUMP JUMPDEST SWAP1 DUP2 MSTORE PUSH1 0x40 DUP1 MLOAD SWAP2 DUP3 SWAP1 SUB PUSH1 0x20 SWAP1 DUP2 ADD DUP4 KECCAK256 DUP1 SLOAD DUP1 DUP4 MUL DUP6 ADD DUP4 ADD SWAP1 SWAP4 MSTORE DUP3 DUP5 MSTORE SWAP2 SWAP1 DUP4 ADD DUP3 DUP3 DUP1 ISZERO PUSH2 0x1FD4 JUMPI PUSH1 0x20 MUL DUP3 ADD SWAP2 SWAP1 PUSH1 0x0 MSTORE PUSH1 0x20 PUSH1 0x0 KECCAK256 SWAP1 JUMPDEST DUP2 SLOAD PUSH1 0x1 PUSH1 0x1 PUSH1 0xA0 SHL SUB AND DUP2 MSTORE PUSH1 0x1 SWAP1 SWAP2 ADD SWAP1 PUSH1 0x20 ADD DUP1 DUP4 GT PUSH2 0x2522 JUMPI POP POP POP POP POP SWAP1 POP SWAP2 SWAP1 POP JUMP JUMPDEST PUSH1 0x0 DUP3 DUP2 MSTORE PUSH1 0x2 PUSH1 0x20 MSTORE PUSH1 0x40 DUP2 KECCAK256 SLOAD PUSH1 0x1 PUSH1 0x1 PUSH1 0xA0 SHL SUB AND PUSH2 0x257F JUMPI PUSH1 0x40 MLOAD PUSH3 0x461BCD PUSH1 0xE5 SHL DUP2 MSTORE PUSH1 0x4 ADD PUSH2 0xA72 SWAP1 PUSH2 0x4729 JUMP JUMPDEST PUSH1 0x0 DUP4 DUP2 MSTORE PUSH1 0xC PUSH1 0x20 MSTORE PUSH1 0x40 DUP1 DUP3 KECCAK256 DUP2 MLOAD PUSH2 0x140 DUP2 ADD SWAP1 SWAP3 MSTORE DUP1 SLOAD DUP3 SWAP1 DUP3 SWAP1 PUSH2 0x25A7 SWAP1 PUSH2 0x46EF JUMP JUMPDEST DUP1 PUSH1 0x1F ADD PUSH1 0x20 DUP1 SWAP2 DIV MUL PUSH1 0x20 ADD PUSH1 0x40 MLOAD SWAP1 DUP2 ADD PUSH1 0x40 MSTORE DUP1 SWAP3 SWAP2 SWAP1 DUP2 DUP2 MSTORE PUSH1 0x20 ADD DUP3 DUP1 SLOAD PUSH2 0x25D3 SWAP1 PUSH2 0x46EF JUMP JUMPDEST DUP1 ISZERO PUSH2 0x2620 JUMPI DUP1 PUSH1 0x1F LT PUSH2 0x25F5 JUMPI PUSH2 0x100 DUP1 DUP4 SLOAD DIV MUL DUP4 MSTORE SWAP2 PUSH1 0x20 ADD SWAP2 PUSH2 0x2620 JUMP JUMPDEST DUP3 ADD SWAP2 SWAP1 PUSH1 0x0 MSTORE PUSH1 0x20 PUSH1 0x0 KECCAK256 SWAP1 JUMPDEST DUP2 SLOAD DUP2 MSTORE SWAP1 PUSH1 0x1 ADD SWAP1 PUSH1 0x20 ADD DUP1 DUP4 GT PUSH2 0x2603 JUMPI DUP3 SWAP1 SUB PUSH1 0x1F AND DUP3 ADD SWAP2 JUMPDEST POP POP POP SWAP2 DUP4 MSTORE POP POP PUSH1 0x1 DUP3 ADD SLOAD PUSH1 0x20 SWAP1 SWAP2 ADD SWAP1 PUSH1 0xFF AND PUSH1 0x2 DUP2 GT ISZERO PUSH2 0x2647 JUMPI PUSH2 0x2647 PUSH2 0x3E43 JUMP JUMPDEST PUSH1 0x2 DUP2 GT ISZERO PUSH2 0x2658 JUMPI PUSH2 0x2658 PUSH2 0x3E43 JUMP JUMPDEST DUP2 MSTORE PUSH1 0x20 ADD PUSH1 0x2 DUP3 ADD DUP1 SLOAD PUSH2 0x266C SWAP1 PUSH2 0x46EF JUMP JUMPDEST DUP1 PUSH1 0x1F ADD PUSH1 0x20 DUP1 SWAP2 DIV MUL PUSH1 0x20 ADD PUSH1 0x40 MLOAD SWAP1 DUP2 ADD PUSH1 0x40 MSTORE DUP1 SWAP3 SWAP2 SWAP1 DUP2 DUP2 MSTORE PUSH1 0x20 ADD DUP3 DUP1 SLOAD PUSH2 0x2698 SWAP1 PUSH2 0x46EF JUMP JUMPDEST DUP1 ISZERO PUSH2 0x26E5 JUMPI DUP1 PUSH1 0x1F LT PUSH2 0x26BA JUMPI PUSH2 0x100 DUP1 DUP4 SLOAD DIV MUL DUP4 MSTORE SWAP2 PUSH1 0x20 ADD SWAP2 PUSH2 0x26E5 JUMP JUMPDEST DUP3 ADD SWAP2 SWAP1 PUSH1 0x0 MSTORE PUSH1 0x20 PUSH1 0x0 KECCAK256 SWAP1 JUMPDEST DUP2 SLOAD DUP2 MSTORE SWAP1 PUSH1 0x1 ADD SWAP1 PUSH1 0x20 ADD DUP1 DUP4 GT PUSH2 0x26C8 JUMPI DUP3 SWAP1 SUB PUSH1 0x1F AND DUP3 ADD SWAP2 JUMPDEST POP POP POP POP POP DUP2 MSTORE PUSH1 0x20 ADD PUSH1 0x3 DUP3 ADD PUSH1 0x0 SWAP1 SLOAD SWAP1 PUSH2 0x100 EXP SWAP1 DIV PUSH1 0x1 PUSH1 0x1 PUSH1 0xA0 SHL SUB AND PUSH1 0x1 PUSH1 0x1 PUSH1 0xA0 SHL SUB AND PUSH1 0x1 PUSH1 0x1 PUSH1 0xA0 SHL SUB AND DUP2 MSTORE PUSH1 0x20 ADD PUSH1 0x4 DUP3 ADD SLOAD DUP2 MSTORE PUSH1 0x20 ADD PUSH1 0x5 DUP3 ADD DUP1 SLOAD DUP1 PUSH1 0x20 MUL PUSH1 0x20 ADD PUSH1 0x40 MLOAD SWAP1 DUP2 ADD PUSH1 0x40 MSTORE DUP1 SWAP3 SWAP2 SWAP1 DUP2 DUP2 MSTORE PUSH1 0x20 ADD PUSH1 0x0 SWAP1 JUMPDEST DUP3 DUP3 LT ISZERO PUSH2 0x27F8 JUMPI DUP4 DUP3 SWAP1 PUSH1 0x0 MSTORE PUSH1 0x20 PUSH1 0x0 KECCAK256 ADD DUP1 SLOAD PUSH2 0x276B SWAP1 PUSH2 0x46EF JUMP JUMPDEST DUP1 PUSH1 0x1F ADD PUSH1 0x20 DUP1 SWAP2 DIV MUL PUSH1 0x20 ADD PUSH1 0x40 MLOAD SWAP1 DUP2 ADD PUSH1 0x40 MSTORE DUP1 SWAP3 SWAP2 SWAP1 DUP2 DUP2 MSTORE PUSH1 0x20 ADD DUP3 DUP1 SLOAD PUSH2 0x2797 SWAP1 PUSH2 0x46EF JUMP JUMPDEST DUP1 ISZERO PUSH2 0x27E4 JUMPI DUP1 PUSH1 0x1F LT PUSH2 0x27B9 JUMPI PUSH2 0x100 DUP1 DUP4 SLOAD DIV MUL DUP4 MSTORE SWAP2 PUSH1 0x20 ADD SWAP2 PUSH2 0x27E4 JUMP JUMPDEST DUP3 ADD SWAP2 SWAP1 PUSH1 0x0 MSTORE PUSH1 0x20 PUSH1 0x0 KECCAK256 SWAP1 JUMPDEST DUP2 SLOAD DUP2 MSTORE SWAP1 PUSH1 0x1 ADD SWAP1 PUSH1 0x20 ADD DUP1 DUP4 GT PUSH2 0x27C7 JUMPI DUP3 SWAP1 SUB PUSH1 0x1F AND DUP3 ADD SWAP2 JUMPDEST POP POP POP POP POP DUP2 MSTORE PUSH1 0x20 ADD SWAP1 PUSH1 0x1 ADD SWAP1 PUSH2 0x274C JUMP JUMPDEST POP POP POP POP DUP2 MSTORE PUSH1 0x20 ADD PUSH1 0x6 DUP3 ADD DUP1 SLOAD PUSH2 0x2810 SWAP1 PUSH2 0x46EF JUMP JUMPDEST DUP1 PUSH1 0x1F ADD PUSH1 0x20 DUP1 SWAP2 DIV MUL PUSH1 0x20 ADD PUSH1 0x40 MLOAD SWAP1 DUP2 ADD PUSH1 0x40 MSTORE DUP1 SWAP3 SWAP2 SWAP1 DUP2 DUP2 MSTORE PUSH1 0x20 ADD DUP3 DUP1 SLOAD PUSH2 0x283C SWAP1 PUSH2 0x46EF JUMP JUMPDEST DUP1 ISZERO PUSH2 0x2889 JUMPI DUP1 PUSH1 0x1F LT PUSH2 0x285E JUMPI PUSH2 0x100 DUP1 DUP4 SLOAD DIV MUL DUP4 MSTORE SWAP2 PUSH1 0x20 ADD SWAP2 PUSH2 0x2889 JUMP JUMPDEST DUP3 ADD SWAP2 SWAP1 PUSH1 0x0 MSTORE PUSH1 0x20 PUSH1 0x0 KECCAK256 SWAP1 JUMPDEST DUP2 SLOAD DUP2 MSTORE SWAP1 PUSH1 0x1 ADD SWAP1 PUSH1 0x20 ADD DUP1 DUP4 GT PUSH2 0x286C JUMPI DUP3 SWAP1 SUB PUSH1 0x1F AND DUP3 ADD SWAP2 JUMPDEST POP POP POP POP POP DUP2 MSTORE PUSH1 0x20 ADD PUSH1 0x7 DUP3 ADD SLOAD DUP2 MSTORE PUSH1 0x20 ADD PUSH1 0x8 DUP3 ADD PUSH1 0x0 SWAP1 SLOAD SWAP1 PUSH2 0x100 EXP SWAP1 DIV PUSH1 0xFF AND ISZERO ISZERO ISZERO ISZERO DUP2 MSTORE PUSH1 0x20 ADD PUSH1 0x9 DUP3 ADD DUP1 SLOAD DUP1 PUSH1 0x20 MUL PUSH1 0x20 ADD PUSH1 0x40 MLOAD SWAP1 DUP2 ADD PUSH1 0x40 MSTORE DUP1 SWAP3 SWAP2 SWAP1 DUP2 DUP2 MSTORE PUSH1 0x20 ADD PUSH1 0x0 SWAP1 JUMPDEST DUP3 DUP3 LT ISZERO PUSH2 0x2988 JUMPI DUP4 DUP3 SWAP1 PUSH1 0x0 MSTORE PUSH1 0x20 PUSH1 0x0 KECCAK256 ADD DUP1 SLOAD PUSH2 0x28FB SWAP1 PUSH2 0x46EF JUMP JUMPDEST DUP1 PUSH1 0x1F ADD PUSH1 0x20 DUP1 SWAP2 DIV MUL PUSH1 0x20 ADD PUSH1 0x40 MLOAD SWAP1 DUP2 ADD PUSH1 0x40 MSTORE DUP1 SWAP3 SWAP2 SWAP1 DUP2 DUP2 MSTORE PUSH1 0x20 ADD DUP3 DUP1 SLOAD PUSH2 0x2927 SWAP1 PUSH2 0x46EF JUMP JUMPDEST DUP1 ISZERO PUSH2 0x2974 JUMPI DUP1 PUSH1 0x1F LT PUSH2 0x2949 JUMPI PUSH2 0x100 DUP1 DUP4 SLOAD DIV MUL DUP4 MSTORE SWAP2 PUSH1 0x20 ADD SWAP2 PUSH2 0x2974 JUMP JUMPDEST DUP3 ADD SWAP2 SWAP1 PUSH1 0x0 MSTORE PUSH1 0x20 PUSH1 0x0 KECCAK256 SWAP1 JUMPDEST DUP2 SLOAD DUP2 MSTORE SWAP1 PUSH1 0x1 ADD SWAP1 PUSH1 0x20 ADD DUP1 DUP4 GT PUSH2 0x2957 JUMPI DUP3 SWAP1 SUB PUSH1 0x1F AND DUP3 ADD SWAP2 JUMPDEST POP POP POP POP POP DUP2 MSTORE PUSH1 0x20 ADD SWAP1 PUSH1 0x1 ADD SWAP1 PUSH2 0x28DC JUMP JUMPDEST POP POP POP POP DUP2 MSTORE POP POP SWAP1 POP DUP1 PUSH2 0x100 ADD MLOAD PUSH2 0x29A6 JUMPI PUSH1 0x1 SWAP2 POP POP PUSH2 0x90C JUMP JUMPDEST PUSH1 0x0 JUMPDEST DUP2 PUSH2 0x120 ADD MLOAD MLOAD DUP2 LT ISZERO PUSH2 0x1F65 JUMPI DUP4 DUP1 MLOAD SWAP1 PUSH1 0x20 ADD KECCAK256 DUP3 PUSH2 0x120 ADD MLOAD DUP3 DUP2 MLOAD DUP2 LT PUSH2 0x29D6 JUMPI PUSH2 0x29D6 PUSH2 0x4945 JUMP JUMPDEST PUSH1 0x20 MUL PUSH1 0x20 ADD ADD MLOAD DUP1 MLOAD SWAP1 PUSH1 0x20 ADD KECCAK256 SUB PUSH2 0x29F5 JUMPI PUSH1 0x1 SWAP3 POP POP POP PUSH2 0x90C JUMP JUMPDEST DUP1 PUSH2 0x29FF DUP2 PUSH2 0x4796 JUMP JUMPDEST SWAP2 POP POP PUSH2 0x29A9 JUMP JUMPDEST PUSH1 0x0 DUP1 DUP8 MLOAD GT PUSH2 0x2A4E JUMPI PUSH1 0x40 MLOAD PUSH3 0x461BCD PUSH1 0xE5 SHL DUP2 MSTORE PUSH1 0x20 PUSH1 0x4 DUP3 ADD MSTORE PUSH1 0x12 PUSH1 0x24 DUP3 ADD MSTORE PUSH18 0x12541194C81A185CDA081C995C5D5A5C9959 PUSH1 0x72 SHL PUSH1 0x44 DUP3 ADD MSTORE PUSH1 0x64 ADD PUSH2 0xA72 JUMP JUMPDEST PUSH1 0x0 DUP6 MLOAD GT PUSH2 0x2A6F JUMPI PUSH1 0x40 MLOAD PUSH3 0x461BCD PUSH1 0xE5 SHL DUP2 MSTORE PUSH1 0x4 ADD PUSH2 0xA72 SWAP1 PUSH2 0x4756 JUMP JUMPDEST PUSH1 0xB DUP1 SLOAD PUSH1 0x0 SWAP2 DUP3 PUSH2 0x2A80 DUP4 PUSH2 0x4796 JUMP JUMPDEST SWAP1 SWAP2 SSTORE POP PUSH1 0x40 DUP1 MLOAD PUSH2 0x140 DUP2 ADD SWAP1 SWAP2 MSTORE DUP10 DUP2 MSTORE SWAP1 SWAP2 POP PUSH1 0x20 DUP2 ADD PUSH1 0x1 DUP2 MSTORE PUSH1 0x20 DUP1 DUP3 ADD DUP10 SWAP1 MSTORE PUSH1 0x1 PUSH1 0x1 PUSH1 0xA0 SHL SUB DUP13 AND PUSH1 0x40 DUP1 DUP5 ADD SWAP2 SWAP1 SWAP2 MSTORE PUSH1 0x60 DUP4 ADD DUP12 SWAP1 MSTORE PUSH1 0x80 DUP4 ADD DUP10 SWAP1 MSTORE PUSH1 0xA0 DUP4 ADD DUP9 SWAP1 MSTORE TIMESTAMP PUSH1 0xC0 DUP5 ADD MSTORE DUP7 MLOAD ISZERO ISZERO PUSH1 0xE0 DUP5 ADD MSTORE PUSH2 0x100 SWAP1 SWAP3 ADD DUP7 SWAP1 MSTORE PUSH1 0x0 DUP5 DUP2 MSTORE PUSH1 0xC SWAP1 SWAP2 MSTORE KECCAK256 DUP2 MLOAD DUP2 SWAP1 PUSH2 0x2AFF SWAP1 DUP3 PUSH2 0x47F5 JUMP JUMPDEST POP PUSH1 0x20 DUP3 ADD MLOAD PUSH1 0x1 DUP1 DUP4 ADD DUP1 SLOAD SWAP1 SWAP2 PUSH1 0xFF NOT SWAP1 SWAP2 AND SWAP1 DUP4 PUSH1 0x2 DUP2 GT ISZERO PUSH2 0x2B27 JUMPI PUSH2 0x2B27 PUSH2 0x3E43 JUMP JUMPDEST MUL OR SWAP1 SSTORE POP PUSH1 0x40 DUP3 ADD MLOAD PUSH1 0x2 DUP3 ADD SWAP1 PUSH2 0x2B40 SWAP1 DUP3 PUSH2 0x47F5 JUMP JUMPDEST POP PUSH1 0x60 DUP3 ADD MLOAD PUSH1 0x3 DUP3 ADD DUP1 SLOAD PUSH1 0x1 PUSH1 0x1 PUSH1 0xA0 SHL SUB NOT AND PUSH1 0x1 PUSH1 0x1 PUSH1 0xA0 SHL SUB SWAP1 SWAP3 AND SWAP2 SWAP1 SWAP2 OR SWAP1 SSTORE PUSH1 0x80 DUP3 ADD MLOAD PUSH1 0x4 DUP3 ADD SSTORE PUSH1 0xA0 DUP3 ADD MLOAD DUP1 MLOAD PUSH2 0x2B8C SWAP2 PUSH1 0x5 DUP5 ADD SWAP2 PUSH1 0x20 SWAP1 SWAP2 ADD SWAP1 PUSH2 0x3C76 JUMP JUMPDEST POP PUSH1 0xC0 DUP3 ADD MLOAD PUSH1 0x6 DUP3 ADD SWAP1 PUSH2 0x2BA1 SWAP1 DUP3 PUSH2 0x47F5 JUMP JUMPDEST POP PUSH1 0xE0 DUP3 ADD MLOAD PUSH1 0x7 DUP3 ADD SSTORE PUSH2 0x100 DUP3 ADD MLOAD PUSH1 0x8 DUP3 ADD DUP1 SLOAD PUSH1 0xFF NOT AND SWAP2 ISZERO ISZERO SWAP2 SWAP1 SWAP2 OR SWAP1 SSTORE PUSH2 0x120 DUP3 ADD MLOAD DUP1 MLOAD PUSH2 0x2BE1 SWAP2 PUSH1 0x9 DUP5 ADD SWAP2 PUSH1 0x20 SWAP1 SWAP2 ADD SWAP1 PUSH2 0x3C76 JUMP JUMPDEST POP SWAP1 POP POP PUSH1 0xD DUP7 PUSH1 0x40 MLOAD PUSH2 0x2BF5 SWAP2 SWAP1 PUSH2 0x48B4 JUMP JUMPDEST SWAP1 DUP2 MSTORE PUSH1 0x40 DUP1 MLOAD PUSH1 0x20 SWAP3 DUP2 SWAP1 SUB DUP4 ADD SWAP1 KECCAK256 DUP1 SLOAD PUSH1 0x1 DUP1 DUP3 ADD DUP4 SSTORE PUSH1 0x0 SWAP3 DUP4 MSTORE DUP5 DUP4 KECCAK256 SWAP1 SWAP2 ADD DUP6 SWAP1 SSTORE PUSH1 0x1 PUSH1 0x1 PUSH1 0xA0 SHL SUB DUP14 AND DUP3 MSTORE PUSH1 0xE DUP5 MSTORE SWAP2 DUP2 KECCAK256 DUP1 SLOAD SWAP3 DUP4 ADD DUP2 SSTORE DUP2 MSTORE SWAP2 SWAP1 SWAP2 KECCAK256 ADD DUP2 SWAP1 SSTORE PUSH2 0x2C4B DUP10 DUP3 PUSH2 0x3355 JUMP JUMPDEST DUP6 PUSH1 0x40 MLOAD PUSH2 0x2C59 SWAP2 SWAP1 PUSH2 0x48B4 JUMP JUMPDEST PUSH1 0x40 MLOAD SWAP1 DUP2 SWAP1 SUB SWAP1 KECCAK256 PUSH1 0x1 PUSH1 0x1 PUSH1 0xA0 SHL SUB DUP11 AND DUP3 PUSH32 0xAA2C70BE24A9114CFEC7D7C19DDCC0DB6F7A95F30859BD8D6E73556BF38BDAAE PUSH1 0x1 DUP13 PUSH1 0x40 MLOAD PUSH2 0x2C9F SWAP3 SWAP2 SWAP1 PUSH2 0x48D0 JUMP JUMPDEST PUSH1 0x40 MLOAD DUP1 SWAP2 SUB SWAP1 LOG4 DUP6 PUSH1 0x40 MLOAD PUSH2 0x2CB5 SWAP2 SWAP1 PUSH2 0x48B4 JUMP JUMPDEST PUSH1 0x40 MLOAD DUP1 SWAP2 SUB SWAP1 KECCAK256 DUP2 PUSH32 0x91491C38180A337FF28AF8FFD621DF257953CCFBB953CBC10316A895344DAE01 DUP11 DUP11 PUSH1 0x40 MLOAD PUSH2 0x2CEF SWAP3 SWAP2 SWAP1 PUSH2 0x48EC JUMP JUMPDEST PUSH1 0x40 MLOAD DUP1 SWAP2 SUB SWAP1 LOG3 DUP6 PUSH1 0x40 MLOAD PUSH2 0x2D05 SWAP2 SWAP1 PUSH2 0x48B4 JUMP JUMPDEST PUSH1 0x40 DUP1 MLOAD SWAP2 DUP3 SWAP1 SUB DUP3 KECCAK256 PUSH1 0x60 DUP1 DUP5 MSTORE PUSH1 0xE SWAP1 DUP5 ADD MSTORE PUSH14 0x1592511153D7D49150D3D4911151 PUSH1 0x92 SHL PUSH1 0x80 DUP5 ADD MSTORE PUSH1 0x1 PUSH1 0x1 PUSH1 0xA0 SHL SUB DUP13 AND PUSH1 0x20 DUP5 ADD MSTORE TIMESTAMP DUP4 DUP4 ADD MSTORE SWAP1 MLOAD SWAP1 SWAP2 PUSH1 0x0 DUP1 MLOAD PUSH1 0x20 PUSH2 0x4A8A DUP4 CODECOPY DUP2 MLOAD SWAP2 MSTORE SWAP2 SWAP1 DUP2 SWAP1 SUB PUSH1 0xA0 ADD SWAP1 LOG2 SWAP9 SWAP8 POP POP POP POP POP POP POP POP JUMP JUMPDEST PUSH1 0x11 DUP3 PUSH1 0x40 MLOAD PUSH2 0x2D7E SWAP2 SWAP1 PUSH2 0x48B4 JUMP JUMPDEST SWAP1 DUP2 MSTORE PUSH1 0x40 MLOAD SWAP1 DUP2 SWAP1 SUB PUSH1 0x20 ADD SWAP1 KECCAK256 SLOAD PUSH1 0xFF AND PUSH2 0x2DAD JUMPI PUSH1 0x40 MLOAD PUSH3 0x461BCD PUSH1 0xE5 SHL DUP2 MSTORE PUSH1 0x4 ADD PUSH2 0xA72 SWAP1 PUSH2 0x495B JUMP JUMPDEST PUSH1 0x13 DUP3 PUSH1 0x40 MLOAD PUSH2 0x2DBD SWAP2 SWAP1 PUSH2 0x48B4 JUMP JUMPDEST SWAP1 DUP2 MSTORE PUSH1 0x40 MLOAD PUSH1 0x20 SWAP2 DUP2 SWAP1 SUB DUP3 ADD SWAP1 KECCAK256 DUP1 SLOAD PUSH1 0x1 DUP2 ADD DUP3 SSTORE PUSH1 0x0 SWAP2 DUP3 MSTORE SWAP2 SWAP1 KECCAK256 ADD PUSH2 0x2DE8 DUP3 DUP3 PUSH2 0x47F5 JUMP JUMPDEST POP DUP2 PUSH1 0x40 MLOAD PUSH2 0x2DF7 SWAP2 SWAP1 PUSH2 0x48B4 JUMP JUMPDEST PUSH1 0x40 MLOAD DUP1 SWAP2 SUB SWAP1 KECCAK256 CALLER PUSH1 0x1 PUSH1 0x1 PUSH1 0xA0 SHL SUB AND PUSH32 0x83D90DFABB9DD5929F37BEDD596EC8B76FEC40556DCF87A93C891C43ECBC35A2 DUP4 PUSH1 0x40 MLOAD PUSH2 0x2E38 SWAP2 SWAP1 PUSH2 0x3DED JUMP JUMPDEST PUSH1 0x40 MLOAD DUP1 SWAP2 SUB SWAP1 LOG3 DUP2 PUSH1 0x40 MLOAD PUSH2 0x2E4E SWAP2 SWAP1 PUSH2 0x48B4 JUMP JUMPDEST PUSH1 0x40 DUP1 MLOAD SWAP2 DUP3 SWAP1 SUB DUP3 KECCAK256 PUSH1 0x60 DUP1 DUP5 MSTORE PUSH1 0x10 SWAP1 DUP5 ADD MSTORE PUSH16 0x1554D15497D5D2125511531254D51151 PUSH1 0x82 SHL PUSH1 0x80 DUP5 ADD MSTORE CALLER PUSH1 0x20 DUP5 ADD MSTORE TIMESTAMP SWAP2 DUP4 ADD SWAP2 SWAP1 SWAP2 MSTORE SWAP1 PUSH1 0x0 DUP1 MLOAD PUSH1 0x20 PUSH2 0x4A8A DUP4 CODECOPY DUP2 MLOAD SWAP2 MSTORE SWAP1 PUSH1 0xA0 ADD JUMPDEST PUSH1 0x40 MLOAD DUP1 SWAP2 SUB SWAP1 LOG2 POP POP JUMP JUMPDEST PUSH1 0x11 DUP3 PUSH1 0x40 MLOAD PUSH2 0x2EBB SWAP2 SWAP1 PUSH2 0x48B4 JUMP JUMPDEST SWAP1 DUP2 MSTORE PUSH1 0x40 MLOAD SWAP1 DUP2 SWAP1 SUB PUSH1 0x20 ADD SWAP1 KECCAK256 SLOAD PUSH1 0xFF AND PUSH2 0x2EEA JUMPI PUSH1 0x40 MLOAD PUSH3 0x461BCD PUSH1 0xE5 SHL DUP2 MSTORE PUSH1 0x4 ADD PUSH2 0xA72 SWAP1 PUSH2 0x495B JUMP JUMPDEST CALLER PUSH1 0x1 PUSH1 0x1 PUSH1 0xA0 SHL SUB AND PUSH1 0x16 DUP4 PUSH1 0x40 MLOAD PUSH2 0x2F04 SWAP2 SWAP1 PUSH2 0x48B4 JUMP JUMPDEST SWAP1 DUP2 MSTORE PUSH1 0x40 MLOAD SWAP1 DUP2 SWAP1 SUB PUSH1 0x20 ADD SWAP1 KECCAK256 SLOAD PUSH1 0x1 PUSH1 0x1 PUSH1 0xA0 SHL SUB AND EQ PUSH2 0x2F6A JUMPI PUSH1 0x40 MLOAD PUSH3 0x461BCD PUSH1 0xE5 SHL DUP2 MSTORE PUSH1 0x20 PUSH1 0x4 DUP3 ADD MSTORE PUSH1 0x1F PUSH1 0x24 DUP3 ADD MSTORE PUSH32 0x4F6E6C7920726F6F6D2063726561746F722063616E2073657420707269636500 PUSH1 0x44 DUP3 ADD MSTORE PUSH1 0x64 ADD PUSH2 0xA72 JUMP JUMPDEST PUSH1 0x0 PUSH1 0x15 DUP4 PUSH1 0x40 MLOAD PUSH2 0x2F7C SWAP2 SWAP1 PUSH2 0x48B4 JUMP JUMPDEST SWAP1 DUP2 MSTORE PUSH1 0x20 ADD PUSH1 0x40 MLOAD DUP1 SWAP2 SUB SWAP1 KECCAK256 SLOAD SWAP1 POP DUP2 PUSH1 0x15 DUP5 PUSH1 0x40 MLOAD PUSH2 0x2F9E SWAP2 SWAP1 PUSH2 0x48B4 JUMP JUMPDEST SWAP1 DUP2 MSTORE PUSH1 0x40 MLOAD SWAP1 DUP2 SWAP1 SUB PUSH1 0x20 ADD DUP2 KECCAK256 SWAP2 SWAP1 SWAP2 SSTORE CALLER SWAP1 PUSH2 0x2FBE SWAP1 DUP6 SWAP1 PUSH2 0x48B4 JUMP JUMPDEST PUSH1 0x40 DUP1 MLOAD SWAP2 DUP3 SWAP1 SUB DUP3 KECCAK256 DUP5 DUP4 MSTORE PUSH1 0x20 DUP4 ADD DUP7 SWAP1 MSTORE SWAP2 PUSH32 0x870C4D4ABD30035941777A346C7F358347F9BE8BB24EE2D1CE4CA79CAB74ACB SWAP2 ADD PUSH2 0x1A2C JUMP JUMPDEST PUSH1 0x11 DUP2 PUSH1 0x40 MLOAD PUSH2 0x300B SWAP2 SWAP1 PUSH2 0x48B4 JUMP JUMPDEST SWAP1 DUP2 MSTORE PUSH1 0x40 MLOAD SWAP1 DUP2 SWAP1 SUB PUSH1 0x20 ADD SWAP1 KECCAK256 SLOAD PUSH1 0xFF AND PUSH2 0x303A JUMPI PUSH1 0x40 MLOAD PUSH3 0x461BCD PUSH1 0xE5 SHL DUP2 MSTORE PUSH1 0x4 ADD PUSH2 0xA72 SWAP1 PUSH2 0x495B JUMP JUMPDEST PUSH2 0x3044 DUP2 CALLER PUSH2 0x33B1 JUMP JUMPDEST ISZERO PUSH2 0x3084 JUMPI PUSH1 0x40 MLOAD PUSH3 0x461BCD PUSH1 0xE5 SHL DUP2 MSTORE PUSH1 0x20 PUSH1 0x4 DUP3 ADD MSTORE PUSH1 0x10 PUSH1 0x24 DUP3 ADD MSTORE PUSH16 0x20B63932B0B23C90309036B2B6B132B9 PUSH1 0x81 SHL PUSH1 0x44 DUP3 ADD MSTORE PUSH1 0x64 ADD PUSH2 0xA72 JUMP JUMPDEST PUSH1 0x0 PUSH1 0x15 DUP3 PUSH1 0x40 MLOAD PUSH2 0x3096 SWAP2 SWAP1 PUSH2 0x48B4 JUMP JUMPDEST SWAP1 DUP2 MSTORE PUSH1 0x40 MLOAD SWAP1 DUP2 SWAP1 SUB PUSH1 0x20 ADD SWAP1 KECCAK256 SLOAD SWAP1 POP DUP1 ISZERO PUSH2 0x31B6 JUMPI DUP1 CALLVALUE LT ISZERO PUSH2 0x3108 JUMPI PUSH1 0x40 MLOAD PUSH3 0x461BCD PUSH1 0xE5 SHL DUP2 MSTORE PUSH1 0x20 PUSH1 0x4 DUP3 ADD MSTORE PUSH1 0x21 PUSH1 0x24 DUP3 ADD MSTORE PUSH32 0x496E73756666696369656E74207061796D656E7420746F206A6F696E20726F6F PUSH1 0x44 DUP3 ADD MSTORE PUSH1 0x6D PUSH1 0xF8 SHL PUSH1 0x64 DUP3 ADD MSTORE PUSH1 0x84 ADD PUSH2 0xA72 JUMP JUMPDEST PUSH1 0x0 PUSH1 0x64 PUSH2 0x3117 CALLVALUE PUSH1 0x50 PUSH2 0x49D7 JUMP JUMPDEST PUSH2 0x3121 SWAP2 SWAP1 PUSH2 0x49EE JUMP JUMPDEST SWAP1 POP PUSH1 0x0 PUSH2 0x312F DUP3 CALLVALUE PUSH2 0x4932 JUMP JUMPDEST SWAP1 POP DUP2 PUSH1 0x17 DUP6 PUSH1 0x40 MLOAD PUSH2 0x3142 SWAP2 SWAP1 PUSH2 0x48B4 JUMP JUMPDEST SWAP1 DUP2 MSTORE PUSH1 0x20 ADD PUSH1 0x40 MLOAD DUP1 SWAP2 SUB SWAP1 KECCAK256 PUSH1 0x0 DUP3 DUP3 SLOAD PUSH2 0x315F SWAP2 SWAP1 PUSH2 0x4A10 JUMP JUMPDEST SWAP1 SWAP2 SSTORE POP POP PUSH1 0x40 MLOAD PUSH2 0x3172 SWAP1 DUP6 SWAP1 PUSH2 0x48B4 JUMP JUMPDEST PUSH1 0x40 DUP1 MLOAD SWAP2 DUP3 SWAP1 SUB DUP3 KECCAK256 CALLVALUE DUP4 MSTORE TIMESTAMP PUSH1 0x20 DUP5 ADD MSTORE SWAP2 CALLER SWAP2 PUSH32 0x7715AD8ED801C416DF675902AB3573E4100D8EAFA486BC3484DB40CB6B886EEA SWAP2 ADD PUSH1 0x40 MLOAD DUP1 SWAP2 SUB SWAP1 LOG3 POP POP JUMPDEST PUSH1 0x18 DUP3 PUSH1 0x40 MLOAD PUSH2 0x31C6 SWAP2 SWAP1 PUSH2 0x48B4 JUMP JUMPDEST SWAP1 DUP2 MSTORE PUSH1 0x40 MLOAD SWAP1 DUP2 SWAP1 SUB PUSH1 0x20 SWAP1 DUP2 ADD DUP3 KECCAK256 DUP1 SLOAD PUSH1 0x1 DUP2 ADD DUP3 SSTORE PUSH1 0x0 SWAP2 DUP3 MSTORE SWAP2 SWAP1 KECCAK256 ADD DUP1 SLOAD PUSH1 0x1 PUSH1 0x1 PUSH1 0xA0 SHL SUB NOT AND CALLER OR SWAP1 SSTORE PUSH2 0x3203 SWAP1 DUP4 SWAP1 PUSH2 0x48B4 JUMP JUMPDEST PUSH1 0x40 DUP1 MLOAD SWAP2 DUP3 SWAP1 SUB DUP3 KECCAK256 PUSH1 0x60 DUP1 DUP5 MSTORE PUSH1 0xB SWAP1 DUP5 ADD MSTORE PUSH11 0x1554D15497D293D2539151 PUSH1 0xAA SHL PUSH1 0x80 DUP5 ADD MSTORE CALLER PUSH1 0x20 DUP5 ADD MSTORE TIMESTAMP SWAP2 DUP4 ADD SWAP2 SWAP1 SWAP2 MSTORE SWAP1 PUSH1 0x0 DUP1 MLOAD PUSH1 0x20 PUSH2 0x4A8A DUP4 CODECOPY DUP2 MLOAD SWAP2 MSTORE SWAP1 PUSH1 0xA0 ADD PUSH2 0x2E9F JUMP JUMPDEST PUSH1 0x1 PUSH1 0x1 PUSH1 0xA0 SHL SUB SWAP2 DUP3 AND PUSH1 0x0 SWAP1 DUP2 MSTORE PUSH1 0x5 PUSH1 0x20 SWAP1 DUP2 MSTORE PUSH1 0x40 DUP1 DUP4 KECCAK256 SWAP4 SWAP1 SWAP5 AND DUP3 MSTORE SWAP2 SWAP1 SWAP2 MSTORE KECCAK256 SLOAD PUSH1 0xFF AND SWAP1 JUMP JUMPDEST PUSH1 0x0 PUSH1 0x11 DUP3 PUSH1 0x40 MLOAD PUSH2 0x3293 SWAP2 SWAP1 PUSH2 0x48B4 JUMP JUMPDEST SWAP1 DUP2 MSTORE PUSH1 0x40 MLOAD SWAP1 DUP2 SWAP1 SUB PUSH1 0x20 ADD SWAP1 KECCAK256 SLOAD PUSH1 0xFF AND SWAP3 SWAP2 POP POP JUMP JUMPDEST PUSH2 0x32B4 PUSH2 0x3384 JUMP JUMPDEST PUSH1 0x1 PUSH1 0x1 PUSH1 0xA0 SHL SUB DUP2 AND PUSH2 0x32DE JUMPI PUSH1 0x40 MLOAD PUSH4 0x1E4FBDF7 PUSH1 0xE0 SHL DUP2 MSTORE PUSH1 0x0 PUSH1 0x4 DUP3 ADD MSTORE PUSH1 0x24 ADD PUSH2 0xA72 JUMP JUMPDEST PUSH2 0x32E7 DUP2 PUSH2 0x3482 JUMP JUMPDEST POP JUMP JUMPDEST PUSH1 0x0 PUSH1 0x1 PUSH1 0x1 PUSH1 0xE0 SHL SUB NOT DUP3 AND PUSH4 0x780E9D63 PUSH1 0xE0 SHL EQ DUP1 PUSH2 0x90C JUMPI POP PUSH2 0x90C DUP3 PUSH2 0x3696 JUMP JUMPDEST PUSH1 0x0 DUP2 DUP2 MSTORE PUSH1 0x2 PUSH1 0x20 MSTORE PUSH1 0x40 DUP2 KECCAK256 SLOAD PUSH1 0x1 PUSH1 0x1 PUSH1 0xA0 SHL SUB AND DUP1 PUSH2 0x90C JUMPI PUSH1 0x40 MLOAD PUSH4 0x7E273289 PUSH1 0xE0 SHL DUP2 MSTORE PUSH1 0x4 DUP2 ADD DUP5 SWAP1 MSTORE PUSH1 0x24 ADD PUSH2 0xA72 JUMP JUMPDEST PUSH2 0x1476 DUP4 DUP4 DUP4 PUSH1 0x1 PUSH2 0x36E6 JUMP JUMPDEST PUSH2 0x9D8 DUP3 DUP3 PUSH1 0x40 MLOAD DUP1 PUSH1 0x20 ADD PUSH1 0x40 MSTORE DUP1 PUSH1 0x0 DUP2 MSTORE POP PUSH2 0x37EC JUMP JUMPDEST PUSH1 0x0 PUSH2 0x337C DUP5 DUP5 DUP5 PUSH2 0x3804 JUMP JUMPDEST SWAP5 SWAP4 POP POP POP POP JUMP JUMPDEST PUSH1 0xA SLOAD PUSH1 0x1 PUSH1 0x1 PUSH1 0xA0 SHL SUB AND CALLER EQ PUSH2 0x1AE6 JUMPI PUSH1 0x40 MLOAD PUSH4 0x118CDAA7 PUSH1 0xE0 SHL DUP2 MSTORE CALLER PUSH1 0x4 DUP3 ADD MSTORE PUSH1 0x24 ADD PUSH2 0xA72 JUMP JUMPDEST PUSH1 0x0 DUP1 PUSH1 0x18 DUP5 PUSH1 0x40 MLOAD PUSH2 0x33C4 SWAP2 SWAP1 PUSH2 0x48B4 JUMP JUMPDEST SWAP1 DUP2 MSTORE PUSH1 0x40 DUP1 MLOAD SWAP2 DUP3 SWAP1 SUB PUSH1 0x20 SWAP1 DUP2 ADD DUP4 KECCAK256 DUP1 SLOAD DUP1 DUP4 MUL DUP6 ADD DUP4 ADD SWAP1 SWAP4 MSTORE DUP3 DUP5 MSTORE SWAP2 SWAP1 DUP4 ADD DUP3 DUP3 DUP1 ISZERO PUSH2 0x3420 JUMPI PUSH1 0x20 MUL DUP3 ADD SWAP2 SWAP1 PUSH1 0x0 MSTORE PUSH1 0x20 PUSH1 0x0 KECCAK256 SWAP1 JUMPDEST DUP2 SLOAD PUSH1 0x1 PUSH1 0x1 PUSH1 0xA0 SHL SUB AND DUP2 MSTORE PUSH1 0x1 SWAP1 SWAP2 ADD SWAP1 PUSH1 0x20 ADD DUP1 DUP4 GT PUSH2 0x3402 JUMPI JUMPDEST POP POP POP POP POP SWAP1 POP PUSH1 0x0 JUMPDEST DUP2 MLOAD DUP2 LT ISZERO PUSH2 0x1F65 JUMPI DUP4 PUSH1 0x1 PUSH1 0x1 PUSH1 0xA0 SHL SUB AND DUP3 DUP3 DUP2 MLOAD DUP2 LT PUSH2 0x344F JUMPI PUSH2 0x344F PUSH2 0x4945 JUMP JUMPDEST PUSH1 0x20 MUL PUSH1 0x20 ADD ADD MLOAD PUSH1 0x1 PUSH1 0x1 PUSH1 0xA0 SHL SUB AND SUB PUSH2 0x3470 JUMPI PUSH1 0x1 SWAP3 POP POP POP PUSH2 0x90C JUMP JUMPDEST DUP1 PUSH2 0x347A DUP2 PUSH2 0x4796 JUMP JUMPDEST SWAP2 POP POP PUSH2 0x342A JUMP JUMPDEST PUSH1 0xA DUP1 SLOAD PUSH1 0x1 PUSH1 0x1 PUSH1 0xA0 SHL SUB DUP4 DUP2 AND PUSH1 0x1 PUSH1 0x1 PUSH1 0xA0 SHL SUB NOT DUP4 AND DUP2 OR SWAP1 SWAP4 SSTORE PUSH1 0x40 MLOAD SWAP2 AND SWAP2 SWAP1 DUP3 SWAP1 PUSH32 0x8BE0079C531659141344CD1FD0A4F28419497F9722A3DAAFE3B4186F6B6457E0 SWAP1 PUSH1 0x0 SWAP1 LOG3 POP POP JUMP JUMPDEST PUSH1 0x1 PUSH1 0x1 PUSH1 0xA0 SHL SUB DUP3 AND PUSH2 0x3506 JUMPI PUSH1 0x40 MLOAD PUSH4 0xB611743 PUSH1 0xE3 SHL DUP2 MSTORE PUSH1 0x1 PUSH1 0x1 PUSH1 0xA0 SHL SUB DUP4 AND PUSH1 0x4 DUP3 ADD MSTORE PUSH1 0x24 ADD PUSH2 0xA72 JUMP JUMPDEST PUSH1 0x1 PUSH1 0x1 PUSH1 0xA0 SHL SUB DUP4 DUP2 AND PUSH1 0x0 DUP2 DUP2 MSTORE PUSH1 0x5 PUSH1 0x20 SWAP1 DUP2 MSTORE PUSH1 0x40 DUP1 DUP4 KECCAK256 SWAP5 DUP8 AND DUP1 DUP5 MSTORE SWAP5 DUP3 MSTORE SWAP2 DUP3 SWAP1 KECCAK256 DUP1 SLOAD PUSH1 0xFF NOT AND DUP7 ISZERO ISZERO SWAP1 DUP2 OR SWAP1 SWAP2 SSTORE SWAP2 MLOAD SWAP2 DUP3 MSTORE PUSH32 0x17307EAB39AB6107E8899845AD3D59BD9653F200F220920489CA2B5937696C31 SWAP2 ADD PUSH2 0x1A2C JUMP JUMPDEST PUSH1 0x1 PUSH1 0x1 PUSH1 0xA0 SHL SUB DUP4 AND EXTCODESIZE ISZERO PUSH2 0x368F JUMPI PUSH1 0x40 MLOAD PUSH4 0xA85BD01 PUSH1 0xE1 SHL DUP2 MSTORE PUSH1 0x1 PUSH1 0x1 PUSH1 0xA0 SHL SUB DUP5 AND SWAP1 PUSH4 0x150B7A02 SWAP1 PUSH2 0x35AD SWAP1 DUP9 SWAP1 DUP9 SWAP1 DUP8 SWAP1 DUP8 SWAP1 PUSH1 0x4 ADD PUSH2 0x4A23 JUMP JUMPDEST PUSH1 0x20 PUSH1 0x40 MLOAD DUP1 DUP4 SUB DUP2 PUSH1 0x0 DUP8 GAS CALL SWAP3 POP POP POP DUP1 ISZERO PUSH2 0x35E8 JUMPI POP PUSH1 0x40 DUP1 MLOAD PUSH1 0x1F RETURNDATASIZE SWAP1 DUP2 ADD PUSH1 0x1F NOT AND DUP3 ADD SWAP1 SWAP3 MSTORE PUSH2 0x35E5 SWAP2 DUP2 ADD SWAP1 PUSH2 0x4A56 JUMP JUMPDEST PUSH1 0x1 JUMPDEST PUSH2 0x3651 JUMPI RETURNDATASIZE DUP1 DUP1 ISZERO PUSH2 0x3616 JUMPI PUSH1 0x40 MLOAD SWAP2 POP PUSH1 0x1F NOT PUSH1 0x3F RETURNDATASIZE ADD AND DUP3 ADD PUSH1 0x40 MSTORE RETURNDATASIZE DUP3 MSTORE RETURNDATASIZE PUSH1 0x0 PUSH1 0x20 DUP5 ADD RETURNDATACOPY PUSH2 0x361B JUMP JUMPDEST PUSH1 0x60 SWAP2 POP JUMPDEST POP DUP1 MLOAD PUSH1 0x0 SUB PUSH2 0x3649 JUMPI PUSH1 0x40 MLOAD PUSH4 0x32505749 PUSH1 0xE1 SHL DUP2 MSTORE PUSH1 0x1 PUSH1 0x1 PUSH1 0xA0 SHL SUB DUP6 AND PUSH1 0x4 DUP3 ADD MSTORE PUSH1 0x24 ADD PUSH2 0xA72 JUMP JUMPDEST DUP1 MLOAD PUSH1 0x20 DUP3 ADD REVERT JUMPDEST PUSH1 0x1 PUSH1 0x1 PUSH1 0xE0 SHL SUB NOT DUP2 AND PUSH4 0xA85BD01 PUSH1 0xE1 SHL EQ PUSH2 0x368D JUMPI PUSH1 0x40 MLOAD PUSH4 0x32505749 PUSH1 0xE1 SHL DUP2 MSTORE PUSH1 0x1 PUSH1 0x1 PUSH1 0xA0 SHL SUB DUP6 AND PUSH1 0x4 DUP3 ADD MSTORE PUSH1 0x24 ADD PUSH2 0xA72 JUMP JUMPDEST POP JUMPDEST POP POP POP POP POP JUMP JUMPDEST PUSH1 0x0 PUSH1 0x1 PUSH1 0x1 PUSH1 0xE0 SHL SUB NOT DUP3 AND PUSH4 0x80AC58CD PUSH1 0xE0 SHL EQ DUP1 PUSH2 0x36C7 JUMPI POP PUSH1 0x1 PUSH1 0x1 PUSH1 0xE0 SHL SUB NOT DUP3 AND PUSH4 0x5B5E139F PUSH1 0xE0 SHL EQ JUMPDEST DUP1 PUSH2 0x90C JUMPI POP PUSH4 0x1FFC9A7 PUSH1 0xE0 SHL PUSH1 0x1 PUSH1 0x1 PUSH1 0xE0 SHL SUB NOT DUP4 AND EQ PUSH2 0x90C JUMP JUMPDEST DUP1 DUP1 PUSH2 0x36FA JUMPI POP PUSH1 0x1 PUSH1 0x1 PUSH1 0xA0 SHL SUB DUP3 AND ISZERO ISZERO JUMPDEST ISZERO PUSH2 0x37BC JUMPI PUSH1 0x0 PUSH2 0x370A DUP5 PUSH2 0x330F JUMP JUMPDEST SWAP1 POP PUSH1 0x1 PUSH1 0x1 PUSH1 0xA0 SHL SUB DUP4 AND ISZERO DUP1 ISZERO SWAP1 PUSH2 0x3736 JUMPI POP DUP3 PUSH1 0x1 PUSH1 0x1 PUSH1 0xA0 SHL SUB AND DUP2 PUSH1 0x1 PUSH1 0x1 PUSH1 0xA0 SHL SUB AND EQ ISZERO JUMPDEST DUP1 ISZERO PUSH2 0x3749 JUMPI POP PUSH2 0x3747 DUP2 DUP5 PUSH2 0x3253 JUMP JUMPDEST ISZERO JUMPDEST ISZERO PUSH2 0x3772 JUMPI PUSH1 0x40 MLOAD PUSH4 0xA9FBF51F PUSH1 0xE0 SHL DUP2 MSTORE PUSH1 0x1 PUSH1 0x1 PUSH1 0xA0 SHL SUB DUP5 AND PUSH1 0x4 DUP3 ADD MSTORE PUSH1 0x24 ADD PUSH2 0xA72 JUMP JUMPDEST DUP2 ISZERO PUSH2 0x37BA JUMPI DUP4 DUP6 PUSH1 0x1 PUSH1 0x1 PUSH1 0xA0 SHL SUB AND DUP3 PUSH1 0x1 PUSH1 0x1 PUSH1 0xA0 SHL SUB AND PUSH32 0x8C5BE1E5EBEC7D5BD14F71427D1E84F3DD0314C0F7B2291E5B200AC8C7C3B925 PUSH1 0x40 MLOAD PUSH1 0x40 MLOAD DUP1 SWAP2 SUB SWAP1 LOG4 JUMPDEST POP JUMPDEST POP POP PUSH1 0x0 SWAP1 DUP2 MSTORE PUSH1 0x4 PUSH1 0x20 MSTORE PUSH1 0x40 SWAP1 KECCAK256 DUP1 SLOAD PUSH1 0x1 PUSH1 0x1 PUSH1 0xA0 SHL SUB NOT AND PUSH1 0x1 PUSH1 0x1 PUSH1 0xA0 SHL SUB SWAP3 SWAP1 SWAP3 AND SWAP2 SWAP1 SWAP2 OR SWAP1 SSTORE JUMP JUMPDEST PUSH2 0x37F6 DUP4 DUP4 PUSH2 0x38D1 JUMP JUMPDEST PUSH2 0x1476 CALLER PUSH1 0x0 DUP6 DUP6 DUP6 PUSH2 0x356B JUMP JUMPDEST PUSH1 0x0 DUP1 PUSH2 0x3812 DUP6 DUP6 DUP6 PUSH2 0x3936 JUMP JUMPDEST SWAP1 POP PUSH1 0x1 PUSH1 0x1 PUSH1 0xA0 SHL SUB DUP2 AND PUSH2 0x386F JUMPI PUSH2 0x386A DUP5 PUSH1 0x8 DUP1 SLOAD PUSH1 0x0 DUP4 DUP2 MSTORE PUSH1 0x9 PUSH1 0x20 MSTORE PUSH1 0x40 DUP2 KECCAK256 DUP3 SWAP1 SSTORE PUSH1 0x1 DUP3 ADD DUP4 SSTORE SWAP2 SWAP1 SWAP2 MSTORE PUSH32 0xF3F7A9FE364FAAB93B216DA50A3214154F22A0A2B415B23A84C8169E8B636EE3 ADD SSTORE JUMP JUMPDEST PUSH2 0x3892 JUMP JUMPDEST DUP5 PUSH1 0x1 PUSH1 0x1 PUSH1 0xA0 SHL SUB AND DUP2 PUSH1 0x1 PUSH1 0x1 PUSH1 0xA0 SHL SUB AND EQ PUSH2 0x3892 JUMPI PUSH2 0x3892 DUP2 DUP6 PUSH2 0x3A2F JUMP JUMPDEST PUSH1 0x1 PUSH1 0x1 PUSH1 0xA0 SHL SUB DUP6 AND PUSH2 0x38AE JUMPI PUSH2 0x38A9 DUP5 PUSH2 0x3AB0 JUMP JUMPDEST PUSH2 0x337C JUMP JUMPDEST DUP5 PUSH1 0x1 PUSH1 0x1 PUSH1 0xA0 SHL SUB AND DUP2 PUSH1 0x1 PUSH1 0x1 PUSH1 0xA0 SHL SUB AND EQ PUSH2 0x337C JUMPI PUSH2 0x337C DUP6 DUP6 PUSH2 0x3B5F JUMP JUMPDEST PUSH1 0x1 PUSH1 0x1 PUSH1 0xA0 SHL SUB DUP3 AND PUSH2 0x38FB JUMPI PUSH1 0x40 MLOAD PUSH4 0x32505749 PUSH1 0xE1 SHL DUP2 MSTORE PUSH1 0x0 PUSH1 0x4 DUP3 ADD MSTORE PUSH1 0x24 ADD PUSH2 0xA72 JUMP JUMPDEST PUSH1 0x0 PUSH2 0x3909 DUP4 DUP4 PUSH1 0x0 PUSH2 0x336F JUMP JUMPDEST SWAP1 POP PUSH1 0x1 PUSH1 0x1 PUSH1 0xA0 SHL SUB DUP2 AND ISZERO PUSH2 0x1476 JUMPI PUSH1 0x40 MLOAD PUSH4 0x39E35637 PUSH1 0xE1 SHL DUP2 MSTORE PUSH1 0x0 PUSH1 0x4 DUP3 ADD MSTORE PUSH1 0x24 ADD PUSH2 0xA72 JUMP JUMPDEST PUSH1 0x0 DUP3 DUP2 MSTORE PUSH1 0x2 PUSH1 0x20 MSTORE PUSH1 0x40 DUP2 KECCAK256 SLOAD PUSH1 0x1 PUSH1 0x1 PUSH1 0xA0 SHL SUB SWAP1 DUP2 AND SWAP1 DUP4 AND ISZERO PUSH2 0x3963 JUMPI PUSH2 0x3963 DUP2 DUP5 DUP7 PUSH2 0x3BAF JUMP JUMPDEST PUSH1 0x1 PUSH1 0x1 PUSH1 0xA0 SHL SUB DUP2 AND ISZERO PUSH2 0x39A1 JUMPI PUSH2 0x3980 PUSH1 0x0 DUP6 PUSH1 0x0 DUP1 PUSH2 0x36E6 JUMP JUMPDEST PUSH1 0x1 PUSH1 0x1 PUSH1 0xA0 SHL SUB DUP2 AND PUSH1 0x0 SWAP1 DUP2 MSTORE PUSH1 0x3 PUSH1 0x20 MSTORE PUSH1 0x40 SWAP1 KECCAK256 DUP1 SLOAD PUSH1 0x0 NOT ADD SWAP1 SSTORE JUMPDEST PUSH1 0x1 PUSH1 0x1 PUSH1 0xA0 SHL SUB DUP6 AND ISZERO PUSH2 0x39D0 JUMPI PUSH1 0x1 PUSH1 0x1 PUSH1 0xA0 SHL SUB DUP6 AND PUSH1 0x0 SWAP1 DUP2 MSTORE PUSH1 0x3 PUSH1 0x20 MSTORE PUSH1 0x40 SWAP1 KECCAK256 DUP1 SLOAD PUSH1 0x1 ADD SWAP1 SSTORE JUMPDEST PUSH1 0x0 DUP5 DUP2 MSTORE PUSH1 0x2 PUSH1 0x20 MSTORE PUSH1 0x40 DUP1 DUP3 KECCAK256 DUP1 SLOAD PUSH1 0x1 PUSH1 0x1 PUSH1 0xA0 SHL SUB NOT AND PUSH1 0x1 PUSH1 0x1 PUSH1 0xA0 SHL SUB DUP10 DUP2 AND SWAP2 DUP3 OR SWAP1 SWAP3 SSTORE SWAP2 MLOAD DUP8 SWAP4 SWAP2 DUP6 AND SWAP2 PUSH32 0xDDF252AD1BE2C89B69C2B068FC378DAA952BA7F163C4A11628F55A4DF523B3EF SWAP2 LOG4 SWAP5 SWAP4 POP POP POP POP JUMP JUMPDEST PUSH1 0x0 PUSH2 0x3A3A DUP4 PUSH2 0x1A8C JUMP JUMPDEST PUSH1 0x0 DUP4 DUP2 MSTORE PUSH1 0x7 PUSH1 0x20 SWAP1 DUP2 MSTORE PUSH1 0x40 DUP1 DUP4 KECCAK256 SLOAD PUSH1 0x1 PUSH1 0x1 PUSH1 0xA0 SHL SUB DUP9 AND DUP5 MSTORE PUSH1 0x6 SWAP1 SWAP3 MSTORE SWAP1 SWAP2 KECCAK256 SWAP2 SWAP3 POP SWAP1 DUP2 DUP4 EQ PUSH2 0x3A91 JUMPI PUSH1 0x0 DUP4 DUP2 MSTORE PUSH1 0x20 DUP3 DUP2 MSTORE PUSH1 0x40 DUP1 DUP4 KECCAK256 SLOAD DUP6 DUP5 MSTORE DUP2 DUP5 KECCAK256 DUP2 SWAP1 SSTORE DUP4 MSTORE PUSH1 0x7 SWAP1 SWAP2 MSTORE SWAP1 KECCAK256 DUP3 SWAP1 SSTORE JUMPDEST PUSH1 0x0 SWAP4 DUP5 MSTORE PUSH1 0x7 PUSH1 0x20 SWAP1 DUP2 MSTORE PUSH1 0x40 DUP1 DUP7 KECCAK256 DUP7 SWAP1 SSTORE SWAP4 DUP6 MSTORE MSTORE POP DUP2 KECCAK256 SSTORE POP JUMP JUMPDEST PUSH1 0x8 SLOAD PUSH1 0x0 SWAP1 PUSH2 0x3AC2 SWAP1 PUSH1 0x1 SWAP1 PUSH2 0x4932 JUMP JUMPDEST PUSH1 0x0 DUP4 DUP2 MSTORE PUSH1 0x9 PUSH1 0x20 MSTORE PUSH1 0x40 DUP2 KECCAK256 SLOAD PUSH1 0x8 DUP1 SLOAD SWAP4 SWAP5 POP SWAP1 SWAP3 DUP5 SWAP1 DUP2 LT PUSH2 0x3AEA JUMPI PUSH2 0x3AEA PUSH2 0x4945 JUMP JUMPDEST SWAP1 PUSH1 0x0 MSTORE PUSH1 0x20 PUSH1 0x0 KECCAK256 ADD SLOAD SWAP1 POP DUP1 PUSH1 0x8 DUP4 DUP2 SLOAD DUP2 LT PUSH2 0x3B0B JUMPI PUSH2 0x3B0B PUSH2 0x4945 JUMP JUMPDEST PUSH1 0x0 SWAP2 DUP3 MSTORE PUSH1 0x20 DUP1 DUP4 KECCAK256 SWAP1 SWAP2 ADD SWAP3 SWAP1 SWAP3 SSTORE DUP3 DUP2 MSTORE PUSH1 0x9 SWAP1 SWAP2 MSTORE PUSH1 0x40 DUP1 DUP3 KECCAK256 DUP5 SWAP1 SSTORE DUP6 DUP3 MSTORE DUP2 KECCAK256 SSTORE PUSH1 0x8 DUP1 SLOAD DUP1 PUSH2 0x3B43 JUMPI PUSH2 0x3B43 PUSH2 0x4A73 JUMP JUMPDEST PUSH1 0x1 SWAP1 SUB DUP2 DUP2 SWAP1 PUSH1 0x0 MSTORE PUSH1 0x20 PUSH1 0x0 KECCAK256 ADD PUSH1 0x0 SWAP1 SSTORE SWAP1 SSTORE POP POP POP POP JUMP JUMPDEST PUSH1 0x0 PUSH1 0x1 PUSH2 0x3B6C DUP5 PUSH2 0x1A8C JUMP JUMPDEST PUSH2 0x3B76 SWAP2 SWAP1 PUSH2 0x4932 JUMP JUMPDEST PUSH1 0x1 PUSH1 0x1 PUSH1 0xA0 SHL SUB SWAP1 SWAP4 AND PUSH1 0x0 SWAP1 DUP2 MSTORE PUSH1 0x6 PUSH1 0x20 SWAP1 DUP2 MSTORE PUSH1 0x40 DUP1 DUP4 KECCAK256 DUP7 DUP5 MSTORE DUP3 MSTORE DUP1 DUP4 KECCAK256 DUP6 SWAP1 SSTORE SWAP4 DUP3 MSTORE PUSH1 0x7 SWAP1 MSTORE SWAP2 SWAP1 SWAP2 KECCAK256 SWAP2 SWAP1 SWAP2 SSTORE POP JUMP JUMPDEST PUSH2 0x3BBA DUP4 DUP4 DUP4 PUSH2 0x3C13 JUMP JUMPDEST PUSH2 0x1476 JUMPI PUSH1 0x1 PUSH1 0x1 PUSH1 0xA0 SHL SUB DUP4 AND PUSH2 0x3BE8 JUMPI PUSH1 0x40 MLOAD PUSH4 0x7E273289 PUSH1 0xE0 SHL DUP2 MSTORE PUSH1 0x4 DUP2 ADD DUP3 SWAP1 MSTORE PUSH1 0x24 ADD PUSH2 0xA72 JUMP JUMPDEST PUSH1 0x40 MLOAD PUSH4 0x177E802F PUSH1 0xE0 SHL DUP2 MSTORE PUSH1 0x1 PUSH1 0x1 PUSH1 0xA0 SHL SUB DUP4 AND PUSH1 0x4 DUP3 ADD MSTORE PUSH1 0x24 DUP2 ADD DUP3 SWAP1 MSTORE PUSH1 0x44 ADD PUSH2 0xA72 JUMP JUMPDEST PUSH1 0x0 PUSH1 0x1 PUSH1 0x1 PUSH1 0xA0 SHL SUB DUP4 AND ISZERO DUP1 ISZERO SWAP1 PUSH2 0x337C JUMPI POP DUP3 PUSH1 0x1 PUSH1 0x1 PUSH1 0xA0 SHL SUB AND DUP5 PUSH1 0x1 PUSH1 0x1 PUSH1 0xA0 SHL SUB AND EQ DUP1 PUSH2 0x3C4D JUMPI POP PUSH2 0x3C4D DUP5 DUP5 PUSH2 0x3253 JUMP JUMPDEST DUP1 PUSH2 0x337C JUMPI POP POP PUSH1 0x0 SWAP1 DUP2 MSTORE PUSH1 0x4 PUSH1 0x20 MSTORE PUSH1 0x40 SWAP1 KECCAK256 SLOAD PUSH1 0x1 PUSH1 0x1 PUSH1 0xA0 SHL SUB SWAP1 DUP2 AND SWAP2 AND EQ SWAP2 SWAP1 POP JUMP JUMPDEST DUP3 DUP1 SLOAD DUP3 DUP3 SSTORE SWAP1 PUSH1 0x0 MSTORE PUSH1 0x20 PUSH1 0x0 KECCAK256 SWAP1 DUP2 ADD SWAP3 DUP3 ISZERO PUSH2 0x3CBC JUMPI SWAP2 PUSH1 0x20 MUL DUP3 ADD JUMPDEST DUP3 DUP2 GT ISZERO PUSH2 0x3CBC JUMPI DUP3 MLOAD DUP3 SWAP1 PUSH2 0x3CAC SWAP1 DUP3 PUSH2 0x47F5 JUMP JUMPDEST POP SWAP2 PUSH1 0x20 ADD SWAP2 SWAP1 PUSH1 0x1 ADD SWAP1 PUSH2 0x3C96 JUMP JUMPDEST POP PUSH2 0x3CC8 SWAP3 SWAP2 POP PUSH2 0x3CCC JUMP JUMPDEST POP SWAP1 JUMP JUMPDEST DUP1 DUP3 GT ISZERO PUSH2 0x3CC8 JUMPI PUSH1 0x0 PUSH2 0x3CE0 DUP3 DUP3 PUSH2 0x3CE9 JUMP JUMPDEST POP PUSH1 0x1 ADD PUSH2 0x3CCC JUMP JUMPDEST POP DUP1 SLOAD PUSH2 0x3CF5 SWAP1 PUSH2 0x46EF JUMP JUMPDEST PUSH1 0x0 DUP3 SSTORE DUP1 PUSH1 0x1F LT PUSH2 0x3D05 JUMPI POP POP JUMP JUMPDEST PUSH1 0x1F ADD PUSH1 0x20 SWAP1 DIV SWAP1 PUSH1 0x0 MSTORE PUSH1 0x20 PUSH1 0x0 KECCAK256 SWAP1 DUP2 ADD SWAP1 PUSH2 0x32E7 SWAP2 SWAP1 JUMPDEST DUP1 DUP3 GT ISZERO PUSH2 0x3CC8 JUMPI PUSH1 0x0 DUP2 SSTORE PUSH1 0x1 ADD PUSH2 0x3D1F JUMP JUMPDEST DUP1 CALLDATALOAD PUSH1 0x1 PUSH1 0x1 PUSH1 0xA0 SHL SUB DUP2 AND DUP2 EQ PUSH2 0x3D4A JUMPI PUSH1 0x0 DUP1 REVERT JUMPDEST SWAP2 SWAP1 POP JUMP JUMPDEST PUSH1 0x0 PUSH1 0x20 DUP3 DUP5 SUB SLT ISZERO PUSH2 0x3D61 JUMPI PUSH1 0x0 DUP1 REVERT JUMPDEST PUSH2 0x1418 DUP3 PUSH2 0x3D33 JUMP JUMPDEST PUSH1 0x1 PUSH1 0x1 PUSH1 0xE0 SHL SUB NOT DUP2 AND DUP2 EQ PUSH2 0x32E7 JUMPI PUSH1 0x0 DUP1 REVERT JUMPDEST PUSH1 0x0 PUSH1 0x20 DUP3 DUP5 SUB SLT ISZERO PUSH2 0x3D92 JUMPI PUSH1 0x0 DUP1 REVERT JUMPDEST DUP2 CALLDATALOAD PUSH2 0x1418 DUP2 PUSH2 0x3D6A JUMP JUMPDEST PUSH1 0x0 JUMPDEST DUP4 DUP2 LT ISZERO PUSH2 0x3DB8 JUMPI DUP2 DUP2 ADD MLOAD DUP4 DUP3 ADD MSTORE PUSH1 0x20 ADD PUSH2 0x3DA0 JUMP JUMPDEST POP POP PUSH1 0x0 SWAP2 ADD MSTORE JUMP JUMPDEST PUSH1 0x0 DUP2 MLOAD DUP1 DUP5 MSTORE PUSH2 0x3DD9 DUP2 PUSH1 0x20 DUP7 ADD PUSH1 0x20 DUP7 ADD PUSH2 0x3D9D JUMP JUMPDEST PUSH1 0x1F ADD PUSH1 0x1F NOT AND SWAP3 SWAP1 SWAP3 ADD PUSH1 0x20 ADD SWAP3 SWAP2 POP POP JUMP JUMPDEST PUSH1 0x20 DUP2 MSTORE PUSH1 0x0 PUSH2 0x1418 PUSH1 0x20 DUP4 ADD DUP5 PUSH2 0x3DC1 JUMP JUMPDEST PUSH1 0x0 PUSH1 0x20 DUP3 DUP5 SUB SLT ISZERO PUSH2 0x3E12 JUMPI PUSH1 0x0 DUP1 REVERT JUMPDEST POP CALLDATALOAD SWAP2 SWAP1 POP JUMP JUMPDEST PUSH1 0x0 DUP1 PUSH1 0x40 DUP4 DUP6 SUB SLT ISZERO PUSH2 0x3E2C JUMPI PUSH1 0x0 DUP1 REVERT JUMPDEST PUSH2 0x3E35 DUP4 PUSH2 0x3D33 JUMP JUMPDEST SWAP5 PUSH1 0x20 SWAP4 SWAP1 SWAP4 ADD CALLDATALOAD SWAP4 POP POP POP JUMP JUMPDEST PUSH4 0x4E487B71 PUSH1 0xE0 SHL PUSH1 0x0 MSTORE PUSH1 0x21 PUSH1 0x4 MSTORE PUSH1 0x24 PUSH1 0x0 REVERT JUMPDEST PUSH1 0x3 DUP2 LT PUSH2 0x3E77 JUMPI PUSH4 0x4E487B71 PUSH1 0xE0 SHL PUSH1 0x0 MSTORE PUSH1 0x21 PUSH1 0x4 MSTORE PUSH1 0x24 PUSH1 0x0 REVERT JUMPDEST SWAP1 MSTORE JUMP JUMPDEST PUSH1 0x0 DUP3 DUP3 MLOAD DUP1 DUP6 MSTORE PUSH1 0x20 DUP1 DUP7 ADD SWAP6 POP DUP1 DUP3 PUSH1 0x5 SHL DUP5 ADD ADD DUP2 DUP7 ADD PUSH1 0x0 JUMPDEST DUP5 DUP2 LT ISZERO PUSH2 0x3EC6 JUMPI PUSH1 0x1F NOT DUP7 DUP5 SUB ADD DUP10 MSTORE PUSH2 0x3EB4 DUP4 DUP4 MLOAD PUSH2 0x3DC1 JUMP JUMPDEST SWAP9 DUP5 ADD SWAP9 SWAP3 POP SWAP1 DUP4 ADD SWAP1 PUSH1 0x1 ADD PUSH2 0x3E98 JUMP JUMPDEST POP SWAP1 SWAP8 SWAP7 POP POP POP POP POP POP POP JUMP JUMPDEST PUSH1 0x20 DUP2 MSTORE PUSH1 0x0 DUP3 MLOAD PUSH2 0x140 DUP1 PUSH1 0x20 DUP6 ADD MSTORE PUSH2 0x3EF2 PUSH2 0x160 DUP6 ADD DUP4 PUSH2 0x3DC1 JUMP JUMPDEST SWAP2 POP PUSH1 0x20 DUP6 ADD MLOAD PUSH2 0x3F06 PUSH1 0x40 DUP7 ADD DUP3 PUSH2 0x3E59 JUMP JUMPDEST POP PUSH1 0x40 DUP6 ADD MLOAD PUSH1 0x1F NOT DUP1 DUP7 DUP6 SUB ADD PUSH1 0x60 DUP8 ADD MSTORE PUSH2 0x3F23 DUP5 DUP4 PUSH2 0x3DC1 JUMP JUMPDEST SWAP4 POP PUSH1 0x60 DUP8 ADD MLOAD SWAP2 POP PUSH2 0x3F41 PUSH1 0x80 DUP8 ADD DUP4 PUSH1 0x1 PUSH1 0x1 PUSH1 0xA0 SHL SUB AND SWAP1 MSTORE JUMP JUMPDEST PUSH1 0x80 DUP8 ADD MLOAD PUSH1 0xA0 DUP8 ADD MSTORE PUSH1 0xA0 DUP8 ADD MLOAD SWAP2 POP DUP1 DUP7 DUP6 SUB ADD PUSH1 0xC0 DUP8 ADD MSTORE PUSH2 0x3F66 DUP5 DUP4 PUSH2 0x3E7B JUMP JUMPDEST SWAP4 POP PUSH1 0xC0 DUP8 ADD MLOAD SWAP2 POP DUP1 DUP7 DUP6 SUB ADD PUSH1 0xE0 DUP8 ADD MSTORE PUSH2 0x3F83 DUP5 DUP4 PUSH2 0x3DC1 JUMP JUMPDEST PUSH1 0xE0 DUP9 ADD MLOAD PUSH2 0x100 DUP9 DUP2 ADD SWAP2 SWAP1 SWAP2 MSTORE DUP9 ADD MLOAD SWAP1 SWAP5 POP SWAP2 POP PUSH2 0x120 PUSH2 0x3FAA DUP2 DUP9 ADD DUP5 ISZERO ISZERO SWAP1 MSTORE JUMP JUMPDEST DUP8 ADD MLOAD DUP7 DUP6 SUB SWAP1 SWAP2 ADD DUP4 DUP8 ADD MSTORE SWAP1 POP PUSH2 0x3FC3 DUP4 DUP3 PUSH2 0x3E7B JUMP JUMPDEST SWAP7 SWAP6 POP POP POP POP POP POP JUMP JUMPDEST PUSH4 0x4E487B71 PUSH1 0xE0 SHL PUSH1 0x0 MSTORE PUSH1 0x41 PUSH1 0x4 MSTORE PUSH1 0x24 PUSH1 0x0 REVERT JUMPDEST PUSH1 0x40 MLOAD PUSH1 0x1F DUP3 ADD PUSH1 0x1F NOT AND DUP2 ADD PUSH1 0x1 PUSH1 0x1 PUSH1 0x40 SHL SUB DUP2 GT DUP3 DUP3 LT OR ISZERO PUSH2 0x400B JUMPI PUSH2 0x400B PUSH2 0x3FCD JUMP JUMPDEST PUSH1 0x40 MSTORE SWAP2 SWAP1 POP JUMP JUMPDEST PUSH1 0x0 PUSH1 0x1 PUSH1 0x1 PUSH1 0x40 SHL SUB DUP4 GT ISZERO PUSH2 0x402C JUMPI PUSH2 0x402C PUSH2 0x3FCD JUMP JUMPDEST PUSH2 0x403F PUSH1 0x1F DUP5 ADD PUSH1 0x1F NOT AND PUSH1 0x20 ADD PUSH2 0x3FE3 JUMP JUMPDEST SWAP1 POP DUP3 DUP2 MSTORE DUP4 DUP4 DUP4 ADD GT ISZERO PUSH2 0x4053 JUMPI PUSH1 0x0 DUP1 REVERT JUMPDEST DUP3 DUP3 PUSH1 0x20 DUP4 ADD CALLDATACOPY PUSH1 0x0 PUSH1 0x20 DUP5 DUP4 ADD ADD MSTORE SWAP4 SWAP3 POP POP POP JUMP JUMPDEST PUSH1 0x0 DUP3 PUSH1 0x1F DUP4 ADD SLT PUSH2 0x407B JUMPI PUSH1 0x0 DUP1 REVERT JUMPDEST PUSH2 0x1418 DUP4 DUP4 CALLDATALOAD PUSH1 0x20 DUP6 ADD PUSH2 0x4013 JUMP JUMPDEST PUSH1 0x0 DUP1 PUSH1 0x40 DUP4 DUP6 SUB SLT ISZERO PUSH2 0x409D JUMPI PUSH1 0x0 DUP1 REVERT JUMPDEST DUP3 CALLDATALOAD PUSH1 0x1 PUSH1 0x1 PUSH1 0x40 SHL SUB DUP2 GT ISZERO PUSH2 0x40B3 JUMPI PUSH1 0x0 DUP1 REVERT JUMPDEST PUSH2 0x40BF DUP6 DUP3 DUP7 ADD PUSH2 0x406A JUMP JUMPDEST SWAP6 PUSH1 0x20 SWAP5 SWAP1 SWAP5 ADD CALLDATALOAD SWAP5 POP POP POP POP JUMP JUMPDEST PUSH1 0x0 DUP3 PUSH1 0x1F DUP4 ADD SLT PUSH2 0x40DF JUMPI PUSH1 0x0 DUP1 REVERT JUMPDEST DUP2 CALLDATALOAD PUSH1 0x20 PUSH1 0x1 PUSH1 0x1 PUSH1 0x40 SHL SUB DUP1 DUP4 GT ISZERO PUSH2 0x40FB JUMPI PUSH2 0x40FB PUSH2 0x3FCD JUMP JUMPDEST DUP3 PUSH1 0x5 SHL PUSH2 0x410A DUP4 DUP3 ADD PUSH2 0x3FE3 JUMP JUMPDEST SWAP4 DUP5 MSTORE DUP6 DUP2 ADD DUP4 ADD SWAP4 DUP4 DUP2 ADD SWAP1 DUP9 DUP7 GT ISZERO PUSH2 0x4124 JUMPI PUSH1 0x0 DUP1 REVERT JUMPDEST DUP5 DUP9 ADD SWAP3 POP JUMPDEST DUP6 DUP4 LT ISZERO PUSH2 0x4160 JUMPI DUP3 CALLDATALOAD DUP5 DUP2 GT ISZERO PUSH2 0x4142 JUMPI PUSH1 0x0 DUP1 DUP2 REVERT JUMPDEST PUSH2 0x4150 DUP11 DUP8 DUP4 DUP13 ADD ADD PUSH2 0x406A JUMP JUMPDEST DUP4 MSTORE POP SWAP2 DUP5 ADD SWAP2 SWAP1 DUP5 ADD SWAP1 PUSH2 0x412A JUMP JUMPDEST SWAP9 SWAP8 POP POP POP POP POP POP POP POP JUMP JUMPDEST PUSH1 0x0 DUP1 PUSH1 0x0 DUP1 PUSH1 0x0 DUP1 PUSH1 0xC0 DUP8 DUP10 SUB SLT ISZERO PUSH2 0x4185 JUMPI PUSH1 0x0 DUP1 REVERT JUMPDEST PUSH2 0x418E DUP8 PUSH2 0x3D33 JUMP JUMPDEST SWAP6 POP PUSH1 0x20 DUP8 ADD CALLDATALOAD PUSH1 0x1 PUSH1 0x1 PUSH1 0x40 SHL SUB DUP1 DUP3 GT ISZERO PUSH2 0x41AA JUMPI PUSH1 0x0 DUP1 REVERT JUMPDEST PUSH2 0x41B6 DUP11 DUP4 DUP12 ADD PUSH2 0x406A JUMP JUMPDEST SWAP7 POP PUSH1 0x40 DUP10 ADD CALLDATALOAD SWAP6 POP PUSH1 0x60 DUP10 ADD CALLDATALOAD SWAP2 POP DUP1 DUP3 GT ISZERO PUSH2 0x41D3 JUMPI PUSH1 0x0 DUP1 REVERT JUMPDEST PUSH2 0x41DF DUP11 DUP4 DUP12 ADD PUSH2 0x406A JUMP JUMPDEST SWAP5 POP PUSH1 0x80 DUP10 ADD CALLDATALOAD SWAP2 POP DUP1 DUP3 GT ISZERO PUSH2 0x41F5 JUMPI PUSH1 0x0 DUP1 REVERT JUMPDEST PUSH2 0x4201 DUP11 DUP4 DUP12 ADD PUSH2 0x40CE JUMP JUMPDEST SWAP4 POP PUSH1 0xA0 DUP10 ADD CALLDATALOAD SWAP2 POP DUP1 DUP3 GT ISZERO PUSH2 0x4217 JUMPI PUSH1 0x0 DUP1 REVERT JUMPDEST POP PUSH2 0x4224 DUP10 DUP3 DUP11 ADD PUSH2 0x406A JUMP JUMPDEST SWAP2 POP POP SWAP3 SWAP6 POP SWAP3 SWAP6 POP SWAP3 SWAP6 JUMP JUMPDEST PUSH1 0x0 PUSH1 0x20 DUP3 DUP5 SUB SLT ISZERO PUSH2 0x4243 JUMPI PUSH1 0x0 DUP1 REVERT JUMPDEST DUP2 CALLDATALOAD PUSH1 0x1 PUSH1 0x1 PUSH1 0x40 SHL SUB DUP2 GT ISZERO PUSH2 0x4259 JUMPI PUSH1 0x0 DUP1 REVERT JUMPDEST PUSH2 0x337C DUP5 DUP3 DUP6 ADD PUSH2 0x406A JUMP JUMPDEST PUSH1 0x0 DUP1 PUSH1 0x0 PUSH1 0x60 DUP5 DUP7 SUB SLT ISZERO PUSH2 0x427A JUMPI PUSH1 0x0 DUP1 REVERT JUMPDEST PUSH2 0x4283 DUP5 PUSH2 0x3D33 JUMP JUMPDEST SWAP3 POP PUSH2 0x4291 PUSH1 0x20 DUP6 ADD PUSH2 0x3D33 JUMP JUMPDEST SWAP2 POP PUSH1 0x40 DUP5 ADD CALLDATALOAD SWAP1 POP SWAP3 POP SWAP3 POP SWAP3 JUMP JUMPDEST PUSH1 0x0 DUP1 PUSH1 0x40 DUP4 DUP6 SUB SLT ISZERO PUSH2 0x42B4 JUMPI PUSH1 0x0 DUP1 REVERT JUMPDEST DUP3 CALLDATALOAD PUSH1 0x1 PUSH1 0x1 PUSH1 0x40 SHL SUB DUP2 GT ISZERO PUSH2 0x42CA JUMPI PUSH1 0x0 DUP1 REVERT JUMPDEST PUSH2 0x42D6 DUP6 DUP3 DUP7 ADD PUSH2 0x406A JUMP JUMPDEST SWAP3 POP POP PUSH2 0x42E5 PUSH1 0x20 DUP5 ADD PUSH2 0x3D33 JUMP JUMPDEST SWAP1 POP SWAP3 POP SWAP3 SWAP1 POP JUMP JUMPDEST PUSH1 0x0 DUP1 PUSH1 0x40 DUP4 DUP6 SUB SLT ISZERO PUSH2 0x4301 JUMPI PUSH1 0x0 DUP1 REVERT JUMPDEST DUP3 CALLDATALOAD SWAP2 POP PUSH1 0x20 DUP4 ADD CALLDATALOAD PUSH1 0x1 PUSH1 0x1 PUSH1 0x40 SHL SUB DUP2 GT ISZERO PUSH2 0x431E JUMPI PUSH1 0x0 DUP1 REVERT JUMPDEST PUSH2 0x432A DUP6 DUP3 DUP7 ADD PUSH2 0x406A JUMP JUMPDEST SWAP2 POP POP SWAP3 POP SWAP3 SWAP1 POP JUMP JUMPDEST DUP1 CALLDATALOAD DUP1 ISZERO ISZERO DUP2 EQ PUSH2 0x3D4A JUMPI PUSH1 0x0 DUP1 REVERT JUMPDEST PUSH1 0x0 DUP1 PUSH1 0x0 DUP1 PUSH1 0x0 PUSH1 0xA0 DUP7 DUP9 SUB SLT ISZERO PUSH2 0x435C JUMPI PUSH1 0x0 DUP1 REVERT JUMPDEST DUP6 CALLDATALOAD PUSH1 0x1 PUSH1 0x1 PUSH1 0x40 SHL SUB DUP1 DUP3 GT ISZERO PUSH2 0x4373 JUMPI PUSH1 0x0 DUP1 REVERT JUMPDEST PUSH2 0x437F DUP10 DUP4 DUP11 ADD PUSH2 0x406A JUMP JUMPDEST SWAP7 POP PUSH1 0x20 DUP9 ADD CALLDATALOAD SWAP2 POP DUP1 DUP3 GT ISZERO PUSH2 0x4395 JUMPI PUSH1 0x0 DUP1 REVERT JUMPDEST PUSH2 0x43A1 DUP10 DUP4 DUP11 ADD PUSH2 0x406A JUMP JUMPDEST SWAP6 POP PUSH1 0x40 DUP9 ADD CALLDATALOAD SWAP2 POP DUP1 DUP3 GT ISZERO PUSH2 0x43B7 JUMPI PUSH1 0x0 DUP1 REVERT JUMPDEST POP PUSH2 0x43C4 DUP9 DUP3 DUP10 ADD PUSH2 0x40CE JUMP JUMPDEST SWAP4 POP POP PUSH2 0x43D3 PUSH1 0x60 DUP8 ADD PUSH2 0x4334 JUMP JUMPDEST SWAP5 SWAP8 SWAP4 SWAP7 POP SWAP2 SWAP5 PUSH1 0x80 ADD CALLDATALOAD SWAP3 SWAP2 POP POP JUMP JUMPDEST PUSH1 0x0 DUP1 PUSH1 0x0 PUSH1 0x60 DUP5 DUP7 SUB SLT ISZERO PUSH2 0x43F9 JUMPI PUSH1 0x0 DUP1 REVERT JUMPDEST DUP4 CALLDATALOAD PUSH1 0x1 PUSH1 0x1 PUSH1 0x40 SHL SUB DUP1 DUP3 GT ISZERO PUSH2 0x4410 JUMPI PUSH1 0x0 DUP1 REVERT JUMPDEST PUSH2 0x441C DUP8 DUP4 DUP9 ADD PUSH2 0x406A JUMP JUMPDEST SWAP5 POP PUSH1 0x20 DUP7 ADD CALLDATALOAD SWAP2 POP DUP1 DUP3 GT ISZERO PUSH2 0x4432 JUMPI PUSH1 0x0 DUP1 REVERT JUMPDEST POP PUSH2 0x443F DUP7 DUP3 DUP8 ADD PUSH2 0x406A JUMP JUMPDEST SWAP3 POP POP PUSH2 0x444E PUSH1 0x40 DUP6 ADD PUSH2 0x4334 JUMP JUMPDEST SWAP1 POP SWAP3 POP SWAP3 POP SWAP3 JUMP JUMPDEST PUSH1 0x0 DUP1 PUSH1 0x40 DUP4 DUP6 SUB SLT ISZERO PUSH2 0x446A JUMPI PUSH1 0x0 DUP1 REVERT JUMPDEST PUSH2 0x4473 DUP4 PUSH2 0x3D33 JUMP JUMPDEST SWAP2 POP PUSH2 0x42E5 PUSH1 0x20 DUP5 ADD PUSH2 0x4334 JUMP JUMPDEST PUSH1 0x0 DUP1 PUSH1 0x40 DUP4 DUP6 SUB SLT ISZERO PUSH2 0x4494 JUMPI PUSH1 0x0 DUP1 REVERT JUMPDEST DUP3 CALLDATALOAD PUSH1 0x1 PUSH1 0x1 PUSH1 0x40 SHL SUB DUP1 DUP3 GT ISZERO PUSH2 0x44AB JUMPI PUSH1 0x0 DUP1 REVERT JUMPDEST PUSH2 0x44B7 DUP7 DUP4 DUP8 ADD PUSH2 0x406A JUMP JUMPDEST SWAP4 POP PUSH1 0x20 DUP6 ADD CALLDATALOAD SWAP2 POP DUP1 DUP3 GT ISZERO PUSH2 0x44CD JUMPI PUSH1 0x0 DUP1 REVERT JUMPDEST POP PUSH2 0x432A DUP6 DUP3 DUP7 ADD PUSH2 0x406A JUMP JUMPDEST PUSH1 0x20 DUP1 DUP3 MSTORE DUP3 MLOAD DUP3 DUP3 ADD DUP2 SWAP1 MSTORE PUSH1 0x0 SWAP2 SWAP1 DUP5 DUP3 ADD SWAP1 PUSH1 0x40 DUP6 ADD SWAP1 DUP5 JUMPDEST DUP2 DUP2 LT ISZERO PUSH2 0x4512 JUMPI DUP4 MLOAD DUP4 MSTORE SWAP3 DUP5 ADD SWAP3 SWAP2 DUP5 ADD SWAP2 PUSH1 0x1 ADD PUSH2 0x44F6 JUMP JUMPDEST POP SWAP1 SWAP7 SWAP6 POP POP POP POP POP POP JUMP JUMPDEST PUSH1 0x0 DUP1 PUSH1 0x0 DUP1 PUSH1 0x80 DUP6 DUP8 SUB SLT ISZERO PUSH2 0x4534 JUMPI PUSH1 0x0 DUP1 REVERT JUMPDEST PUSH2 0x453D DUP6 PUSH2 0x3D33 JUMP JUMPDEST SWAP4 POP PUSH2 0x454B PUSH1 0x20 DUP7 ADD PUSH2 0x3D33 JUMP JUMPDEST SWAP3 POP PUSH1 0x40 DUP6 ADD CALLDATALOAD SWAP2 POP PUSH1 0x60 DUP6 ADD CALLDATALOAD PUSH1 0x1 PUSH1 0x1 PUSH1 0x40 SHL SUB DUP2 GT ISZERO PUSH2 0x456D JUMPI PUSH1 0x0 DUP1 REVERT JUMPDEST DUP6 ADD PUSH1 0x1F DUP2 ADD DUP8 SGT PUSH2 0x457E JUMPI PUSH1 0x0 DUP1 REVERT JUMPDEST PUSH2 0x458D DUP8 DUP3 CALLDATALOAD PUSH1 0x20 DUP5 ADD PUSH2 0x4013 JUMP JUMPDEST SWAP2 POP POP SWAP3 SWAP6 SWAP2 SWAP5 POP SWAP3 POP JUMP JUMPDEST PUSH1 0x20 DUP1 DUP3 MSTORE DUP3 MLOAD DUP3 DUP3 ADD DUP2 SWAP1 MSTORE PUSH1 0x0 SWAP2 SWAP1 DUP5 DUP3 ADD SWAP1 PUSH1 0x40 DUP6 ADD SWAP1 DUP5 JUMPDEST DUP2 DUP2 LT ISZERO PUSH2 0x4512 JUMPI DUP4 MLOAD PUSH1 0x1 PUSH1 0x1 PUSH1 0xA0 SHL SUB AND DUP4 MSTORE SWAP3 DUP5 ADD SWAP3 SWAP2 DUP5 ADD SWAP2 PUSH1 0x1 ADD PUSH2 0x45B5 JUMP JUMPDEST PUSH1 0x0 DUP1 PUSH1 0x0 DUP1 PUSH1 0x0 DUP1 PUSH1 0x0 PUSH1 0xE0 DUP9 DUP11 SUB SLT ISZERO PUSH2 0x45F5 JUMPI PUSH1 0x0 DUP1 REVERT JUMPDEST PUSH2 0x45FE DUP9 PUSH2 0x3D33 JUMP JUMPDEST SWAP7 POP PUSH1 0x20 DUP9 ADD CALLDATALOAD PUSH1 0x1 PUSH1 0x1 PUSH1 0x40 SHL SUB DUP1 DUP3 GT ISZERO PUSH2 0x461A JUMPI PUSH1 0x0 DUP1 REVERT JUMPDEST PUSH2 0x4626 DUP12 DUP4 DUP13 ADD PUSH2 0x406A JUMP JUMPDEST SWAP8 POP PUSH1 0x40 DUP11 ADD CALLDATALOAD SWAP7 POP PUSH1 0x60 DUP11 ADD CALLDATALOAD SWAP2 POP DUP1 DUP3 GT ISZERO PUSH2 0x4643 JUMPI PUSH1 0x0 DUP1 REVERT JUMPDEST PUSH2 0x464F DUP12 DUP4 DUP13 ADD PUSH2 0x406A JUMP JUMPDEST SWAP6 POP PUSH1 0x80 DUP11 ADD CALLDATALOAD SWAP2 POP DUP1 DUP3 GT ISZERO PUSH2 0x4665 JUMPI PUSH1 0x0 DUP1 REVERT JUMPDEST PUSH2 0x4671 DUP12 DUP4 DUP13 ADD PUSH2 0x40CE JUMP JUMPDEST SWAP5 POP PUSH1 0xA0 DUP11 ADD CALLDATALOAD SWAP2 POP DUP1 DUP3 GT ISZERO PUSH2 0x4687 JUMPI PUSH1 0x0 DUP1 REVERT JUMPDEST PUSH2 0x4693 DUP12 DUP4 DUP13 ADD PUSH2 0x406A JUMP JUMPDEST SWAP4 POP PUSH1 0xC0 DUP11 ADD CALLDATALOAD SWAP2 POP DUP1 DUP3 GT ISZERO PUSH2 0x46A9 JUMPI PUSH1 0x0 DUP1 REVERT JUMPDEST POP PUSH2 0x46B6 DUP11 DUP3 DUP12 ADD PUSH2 0x40CE JUMP JUMPDEST SWAP2 POP POP SWAP3 SWAP6 SWAP9 SWAP2 SWAP5 SWAP8 POP SWAP3 SWAP6 POP JUMP JUMPDEST PUSH1 0x0 DUP1 PUSH1 0x40 DUP4 DUP6 SUB SLT ISZERO PUSH2 0x46D8 JUMPI PUSH1 0x0 DUP1 REVERT JUMPDEST PUSH2 0x46E1 DUP4 PUSH2 0x3D33 JUMP JUMPDEST SWAP2 POP PUSH2 0x42E5 PUSH1 0x20 DUP5 ADD PUSH2 0x3D33 JUMP JUMPDEST PUSH1 0x1 DUP2 DUP2 SHR SWAP1 DUP3 AND DUP1 PUSH2 0x4703 JUMPI PUSH1 0x7F DUP3 AND SWAP2 POP JUMPDEST PUSH1 0x20 DUP3 LT DUP2 SUB PUSH2 0x4723 JUMPI PUSH4 0x4E487B71 PUSH1 0xE0 SHL PUSH1 0x0 MSTORE PUSH1 0x22 PUSH1 0x4 MSTORE PUSH1 0x24 PUSH1 0x0 REVERT JUMPDEST POP SWAP2 SWAP1 POP JUMP JUMPDEST PUSH1 0x20 DUP1 DUP3 MSTORE PUSH1 0x13 SWAP1 DUP3 ADD MSTORE PUSH19 0x151BDAD95B88191BD95CDB89DD08195E1A5CDD PUSH1 0x6A SHL PUSH1 0x40 DUP3 ADD MSTORE PUSH1 0x60 ADD SWAP1 JUMP JUMPDEST PUSH1 0x20 DUP1 DUP3 MSTORE PUSH1 0x10 SWAP1 DUP3 ADD MSTORE PUSH16 0x149BDBDB481251081C995C5D5A5C9959 PUSH1 0x82 SHL PUSH1 0x40 DUP3 ADD MSTORE PUSH1 0x60 ADD SWAP1 JUMP JUMPDEST PUSH4 0x4E487B71 PUSH1 0xE0 SHL PUSH1 0x0 MSTORE PUSH1 0x11 PUSH1 0x4 MSTORE PUSH1 0x24 PUSH1 0x0 REVERT JUMPDEST PUSH1 0x0 PUSH1 0x1 DUP3 ADD PUSH2 0x47A8 JUMPI PUSH2 0x47A8 PUSH2 0x4780 JUMP JUMPDEST POP PUSH1 0x1 ADD SWAP1 JUMP JUMPDEST PUSH1 0x1F DUP3 GT ISZERO PUSH2 0x1476 JUMPI PUSH1 0x0 DUP2 DUP2 MSTORE PUSH1 0x20 DUP2 KECCAK256 PUSH1 0x1F DUP6 ADD PUSH1 0x5 SHR DUP2 ADD PUSH1 0x20 DUP7 LT ISZERO PUSH2 0x47D6 JUMPI POP DUP1 JUMPDEST PUSH1 0x1F DUP6 ADD PUSH1 0x5 SHR DUP3 ADD SWAP2 POP JUMPDEST DUP2 DUP2 LT ISZERO PUSH2 0x368D JUMPI DUP3 DUP2 SSTORE PUSH1 0x1 ADD PUSH2 0x47E2 JUMP JUMPDEST DUP2 MLOAD PUSH1 0x1 PUSH1 0x1 PUSH1 0x40 SHL SUB DUP2 GT ISZERO PUSH2 0x480E JUMPI PUSH2 0x480E PUSH2 0x3FCD JUMP JUMPDEST PUSH2 0x4822 DUP2 PUSH2 0x481C DUP5 SLOAD PUSH2 0x46EF JUMP JUMPDEST DUP5 PUSH2 0x47AF JUMP JUMPDEST PUSH1 0x20 DUP1 PUSH1 0x1F DUP4 GT PUSH1 0x1 DUP2 EQ PUSH2 0x4857 JUMPI PUSH1 0x0 DUP5 ISZERO PUSH2 0x483F JUMPI POP DUP6 DUP4 ADD MLOAD JUMPDEST PUSH1 0x0 NOT PUSH1 0x3 DUP7 SWAP1 SHL SHR NOT AND PUSH1 0x1 DUP6 SWAP1 SHL OR DUP6 SSTORE PUSH2 0x368D JUMP JUMPDEST PUSH1 0x0 DUP6 DUP2 MSTORE PUSH1 0x20 DUP2 KECCAK256 PUSH1 0x1F NOT DUP7 AND SWAP2 JUMPDEST DUP3 DUP2 LT ISZERO PUSH2 0x4886 JUMPI DUP9 DUP7 ADD MLOAD DUP3 SSTORE SWAP5 DUP5 ADD SWAP5 PUSH1 0x1 SWAP1 SWAP2 ADD SWAP1 DUP5 ADD PUSH2 0x4867 JUMP JUMPDEST POP DUP6 DUP3 LT ISZERO PUSH2 0x48A4 JUMPI DUP8 DUP6 ADD MLOAD PUSH1 0x0 NOT PUSH1 0x3 DUP9 SWAP1 SHL PUSH1 0xF8 AND SHR NOT AND DUP2 SSTORE JUMPDEST POP POP POP POP POP PUSH1 0x1 SWAP1 DUP2 SHL ADD SWAP1 SSTORE POP JUMP JUMPDEST PUSH1 0x0 DUP3 MLOAD PUSH2 0x48C6 DUP2 DUP5 PUSH1 0x20 DUP8 ADD PUSH2 0x3D9D JUMP JUMPDEST SWAP2 SWAP1 SWAP2 ADD SWAP3 SWAP2 POP POP JUMP JUMPDEST PUSH1 0xFF DUP4 AND DUP2 MSTORE PUSH1 0x40 PUSH1 0x20 DUP3 ADD MSTORE PUSH1 0x0 PUSH2 0x337C PUSH1 0x40 DUP4 ADD DUP5 PUSH2 0x3DC1 JUMP JUMPDEST PUSH1 0x40 DUP2 MSTORE PUSH1 0x0 PUSH2 0x48FF PUSH1 0x40 DUP4 ADD DUP6 PUSH2 0x3DC1 JUMP JUMPDEST SWAP1 POP DUP3 PUSH1 0x20 DUP4 ADD MSTORE SWAP4 SWAP3 POP POP POP JUMP JUMPDEST PUSH1 0x40 DUP2 MSTORE PUSH1 0x0 PUSH2 0x4921 PUSH1 0x40 DUP4 ADD DUP6 PUSH2 0x3DC1 JUMP JUMPDEST SWAP1 POP DUP3 ISZERO ISZERO PUSH1 0x20 DUP4 ADD MSTORE SWAP4 SWAP3 POP POP POP JUMP JUMPDEST DUP2 DUP2 SUB DUP2 DUP2 GT ISZERO PUSH2 0x90C JUMPI PUSH2 0x90C PUSH2 0x4780 JUMP JUMPDEST PUSH4 0x4E487B71 PUSH1 0xE0 SHL PUSH1 0x0 MSTORE PUSH1 0x32 PUSH1 0x4 MSTORE PUSH1 0x24 PUSH1 0x0 REVERT JUMPDEST PUSH1 0x20 DUP1 DUP3 MSTORE PUSH1 0x12 SWAP1 DUP3 ADD MSTORE PUSH18 0x149BDBDB48191BD95CDB89DD08195E1A5CDD PUSH1 0x72 SHL PUSH1 0x40 DUP3 ADD MSTORE PUSH1 0x60 ADD SWAP1 JUMP JUMPDEST PUSH32 0x68747470733A2F2F676174657761792E70696E6174612E636C6F75642F697066 DUP2 MSTORE PUSH2 0x732F PUSH1 0xF0 SHL PUSH1 0x20 DUP3 ADD MSTORE PUSH1 0x0 DUP3 MLOAD PUSH2 0x49CA DUP2 PUSH1 0x22 DUP6 ADD PUSH1 0x20 DUP8 ADD PUSH2 0x3D9D JUMP JUMPDEST SWAP2 SWAP1 SWAP2 ADD PUSH1 0x22 ADD SWAP3 SWAP2 POP POP JUMP JUMPDEST DUP1 DUP3 MUL DUP2 ISZERO DUP3 DUP3 DIV DUP5 EQ OR PUSH2 0x90C JUMPI PUSH2 0x90C PUSH2 0x4780 JUMP JUMPDEST PUSH1 0x0 DUP3 PUSH2 0x4A0B JUMPI PUSH4 0x4E487B71 PUSH1 0xE0 SHL PUSH1 0x0 MSTORE PUSH1 0x12 PUSH1 0x4 MSTORE PUSH1 0x24 PUSH1 0x0 REVERT JUMPDEST POP DIV SWAP1 JUMP JUMPDEST DUP1 DUP3 ADD DUP1 DUP3 GT ISZERO PUSH2 0x90C JUMPI PUSH2 0x90C PUSH2 0x4780 JUMP JUMPDEST PUSH1 0x1 PUSH1 0x1 PUSH1 0xA0 SHL SUB DUP6 DUP2 AND DUP3 MSTORE DUP5 AND PUSH1 0x20 DUP3 ADD MSTORE PUSH1 0x40 DUP2 ADD DUP4 SWAP1 MSTORE PUSH1 0x80 PUSH1 0x60 DUP3 ADD DUP2 SWAP1 MSTORE PUSH1 0x0 SWAP1 PUSH2 0x3FC3 SWAP1 DUP4 ADD DUP5 PUSH2 0x3DC1 JUMP JUMPDEST PUSH1 0x0 PUSH1 0x20 DUP3 DUP5 SUB SLT ISZERO PUSH2 0x4A68 JUMPI PUSH1 0x0 DUP1 REVERT JUMPDEST DUP2 MLOAD PUSH2 0x1418 DUP2 PUSH2 0x3D6A JUMP JUMPDEST PUSH4 0x4E487B71 PUSH1 0xE0 SHL PUSH1 0x0 MSTORE PUSH1 0x31 PUSH1 0x4 MSTORE PUSH1 0x24 PUSH1 0x0 REVERT INVALID 0x4A PUSH19 0x8B8F25DA28187B32310808555DAD7F7FFE6CC 0xBC DUP11 0xD3 PUSH13 0xB5176B7C051E09A26469706673 PC 0x22 SLT KECCAK256 CODESIZE 0xDF MOD 0xCD MLOAD CREATE NOT PUSH1 0xB0 SWAP15 OR PUSH28 0x3849FE5BB24C2F49AF58C6EBC43DF960B3B0EC8164736F6C63430008 EQ STOP CALLER "},"methodIdentifiers":{"addToWhitelist(string,string)":"deb1e94f","aiAccessPrice()":"807f0d53","approve(address,uint256)":"095ea7b3","balanceOf(address)":"70a08231","checkAIAccess(address)":"25083cd5","createRoom(string,string,string[],bool,uint256)":"3911381e","getApproved(uint256)":"081812fc","getContent(uint256)":"0b7ad54c","getRoomContent(string)":"b142c0b5","getRoomMemberCount(string)":"1b00112e","getRoomMembers(string)":"d12bb061","grantAIAccess(address)":"2b59051d","hasAIAccess(address)":"0075c6d7","hasAccess(uint256,string)":"d1a308bc","isApprovedForAll(address,address)":"e985e9c5","isRoomMember(string,address)":"31c96095","isUserWhitelisted(string,string)":"abe1c541","joinRoom(string)":"e61e6b47","mintVideoNFT(address,string,uint256,string,string[],string,string[])":"d3bb0fbb","mintVoiceNFT(address,string,uint256,string,string[],string)":"15d46a0e","name()":"06fdde03","owner()":"8da5cb5b","ownerOf(uint256)":"6352211e","purchaseAIAccess()":"7e419f9f","renounceOwnership()":"715018a6","revokeAIAccess(address)":"ce49ec5f","roomCreator(string)":"b8da005c","roomEarnings(string)":"312c1784","roomExists(string)":"f062d1d5","roomJoinPrice(string)":"c425b351","roomMembers(string,uint256)":"1285c26a","safeTransferFrom(address,address,uint256)":"42842e0e","safeTransferFrom(address,address,uint256,bytes)":"b88d4fde","setAIAccessPrice(uint256)":"6fcbd3b5","setApprovalForAll(address,bool)":"a22cb465","setRoomJoinPrice(string,uint256)":"e553f15b","supportsInterface(bytes4)":"01ffc9a7","symbol()":"95d89b41","tokenByIndex(uint256)":"4f6ccce7","tokenOfOwnerByIndex(address,uint256)":"2f745c59","tokenURI(uint256)":"c87b56dd","totalSupply()":"18160ddd","transferFrom(address,address,uint256)":"23b872dd","transferOwnership(address)":"f2fde38b","updateNFTMetadata(uint256,string)":"35dcdf1e","updateRoom(string,string,bool)":"6e9878f5","withdraw()":"3ccfd60b","withdrawRoomEarnings(string)":"a80f0b05"}}}}}