{
  "_format": "hh-sol-artifact-1",
  "contractName": "MetaWorkspaceNFT",
  "sourceName": "contracts/MetaWorkspaceNFT.sol",
  "abi": [
    {
      "inputs": [],
      "stateMutability": "nonpayable",
      "type": "constructor"
    },
    {
      "inputs": [],
      "name": "ERC721EnumerableForbiddenBatchMint",
      "type": "error"
    },
    {
      "inputs": [
        {
          "internalType": "address",
          "name": "sender",
          "type": "address"
        },
        {
          "internalType": "uint256",
          "name": "tokenId",
          "type": "uint256"
        },
        {
          "internalType": "address",
          "name": "owner",
          "type": "address"
        }
      ],
      "name": "ERC721IncorrectOwner",
      "type": "error"
    },
    {
      "inputs": [
        {
          "internalType": "address",
          "name": "operator",
          "type": "address"
        },
        {
          "internalType": "uint256",
          "name": "tokenId",
          "type": "uint256"
        }
      ],
      "name": "ERC721InsufficientApproval",
      "type": "error"
    },
    {
      "inputs": [
        {
          "internalType": "address",
          "name": "approver",
          "type": "address"
        }
      ],
      "name": "ERC721InvalidApprover",
      "type": "error"
    },
    {
      "inputs": [
        {
          "internalType": "address",
          "name": "operator",
          "type": "address"
        }
      ],
      "name": "ERC721InvalidOperator",
      "type": "error"
    },
    {
      "inputs": [
        {
          "internalType": "address",
          "name": "owner",
          "type": "address"
        }
      ],
      "name": "ERC721InvalidOwner",
      "type": "error"
    },
    {
      "inputs": [
        {
          "internalType": "address",
          "name": "receiver",
          "type": "address"
        }
      ],
      "name": "ERC721InvalidReceiver",
      "type": "error"
    },
    {
      "inputs": [
        {
          "internalType": "address",
          "name": "sender",
          "type": "address"
        }
      ],
      "name": "ERC721InvalidSender",
      "type": "error"
    },
    {
      "inputs": [
        {
          "internalType": "uint256",
          "name": "tokenId",
          "type": "uint256"
        }
      ],
      "name": "ERC721NonexistentToken",
      "type": "error"
    },
    {
      "inputs": [
        {
          "internalType": "address",
          "name": "owner",
          "type": "address"
        },
        {
          "internalType": "uint256",
          "name": "index",
          "type": "uint256"
        }
      ],
      "name": "ERC721OutOfBoundsIndex",
      "type": "error"
    },
    {
      "inputs": [
        {
          "internalType": "address",
          "name": "owner",
          "type": "address"
        }
      ],
      "name": "OwnableInvalidOwner",
      "type": "error"
    },
    {
      "inputs": [
        {
          "internalType": "address",
          "name": "account",
          "type": "address"
        }
      ],
      "name": "OwnableUnauthorizedAccount",
      "type": "error"
    },
    {
      "anonymous": false,
      "inputs": [
        {
          "indexed": true,
          "internalType": "uint256",
          "name": "tokenId",
          "type": "uint256"
        },
        {
          "indexed": true,
          "internalType": "string",
          "name": "username",
          "type": "string"
        },
        {
          "indexed": true,
          "internalType": "address",
          "name": "grantedBy",
          "type": "address"
        }
      ],
      "name": "AccessGranted",
      "type": "event"
    },
    {
      "anonymous": false,
      "inputs": [
        {
          "indexed": true,
          "internalType": "address",
          "name": "owner",
          "type": "address"
        },
        {
          "indexed": true,
          "internalType": "address",
          "name": "approved",
          "type": "address"
        },
        {
          "indexed": true,
          "internalType": "uint256",
          "name": "tokenId",
          "type": "uint256"
        }
      ],
      "name": "Approval",
      "type": "event"
    },
    {
      "anonymous": false,
      "inputs": [
        {
          "indexed": true,
          "internalType": "address",
          "name": "owner",
          "type": "address"
        },
        {
          "indexed": true,
          "internalType": "address",
          "name": "operator",
          "type": "address"
        },
        {
          "indexed": false,
          "internalType": "bool",
          "name": "approved",
          "type": "bool"
        }
      ],
      "name": "ApprovalForAll",
      "type": "event"
    },
    {
      "anonymous": false,
      "inputs": [
        {
          "indexed": true,
          "internalType": "uint256",
          "name": "tokenId",
          "type": "uint256"
        },
        {
          "indexed": true,
          "internalType": "address",
          "name": "creator",
          "type": "address"
        },
        {
          "indexed": true,
          "internalType": "enum MetaWorkspaceNFT.ContentType",
          "name": "contentType",
          "type": "uint8"
        },
        {
          "indexed": false,
          "internalType": "string",
          "name": "roomId",
          "type": "string"
        },
        {
          "indexed": false,
          "internalType": "string",
          "name": "ipfsHash",
          "type": "string"
        },
        {
          "indexed": false,
          "internalType": "uint256",
          "name": "timestamp",
          "type": "uint256"
        }
      ],
      "name": "NFTMinted",
      "type": "event"
    },
    {
      "anonymous": false,
      "inputs": [
        {
          "indexed": true,
          "internalType": "address",
          "name": "previousOwner",
          "type": "address"
        },
        {
          "indexed": true,
          "internalType": "address",
          "name": "newOwner",
          "type": "address"
        }
      ],
      "name": "OwnershipTransferred",
      "type": "event"
    },
    {
      "anonymous": false,
      "inputs": [
        {
          "indexed": true,
          "internalType": "string",
          "name": "roomId",
          "type": "string"
        },
        {
          "indexed": true,
          "internalType": "address",
          "name": "user",
          "type": "address"
        },
        {
          "indexed": false,
          "internalType": "string",
          "name": "activityType",
          "type": "string"
        },
        {
          "indexed": false,
          "internalType": "uint256",
          "name": "timestamp",
          "type": "uint256"
        }
      ],
      "name": "RoomActivity",
      "type": "event"
    },
    {
      "anonymous": false,
      "inputs": [
        {
          "indexed": true,
          "internalType": "address",
          "name": "from",
          "type": "address"
        },
        {
          "indexed": true,
          "internalType": "address",
          "name": "to",
          "type": "address"
        },
        {
          "indexed": true,
          "internalType": "uint256",
          "name": "tokenId",
          "type": "uint256"
        }
      ],
      "name": "Transfer",
      "type": "event"
    },
    {
      "anonymous": false,
      "inputs": [
        {
          "indexed": true,
          "internalType": "uint256",
          "name": "tokenId",
          "type": "uint256"
        },
        {
          "indexed": true,
          "internalType": "address",
          "name": "creator",
          "type": "address"
        },
        {
          "indexed": true,
          "internalType": "string",
          "name": "roomId",
          "type": "string"
        },
        {
          "indexed": false,
          "internalType": "uint256",
          "name": "duration",
          "type": "uint256"
        },
        {
          "indexed": false,
          "internalType": "uint256",
          "name": "participantCount",
          "type": "uint256"
        },
        {
          "indexed": false,
          "internalType": "string",
          "name": "ipfsHash",
          "type": "string"
        }
      ],
      "name": "VideoNFTCreated",
      "type": "event"
    },
    {
      "anonymous": false,
      "inputs": [
        {
          "indexed": true,
          "internalType": "uint256",
          "name": "tokenId",
          "type": "uint256"
        },
        {
          "indexed": true,
          "internalType": "address",
          "name": "creator",
          "type": "address"
        },
        {
          "indexed": true,
          "internalType": "string",
          "name": "roomId",
          "type": "string"
        },
        {
          "indexed": false,
          "internalType": "uint256",
          "name": "duration",
          "type": "uint256"
        },
        {
          "indexed": false,
          "internalType": "string",
          "name": "ipfsHash",
          "type": "string"
        }
      ],
      "name": "VoiceNFTCreated",
      "type": "event"
    },
    {
      "inputs": [
        {
          "internalType": "uint256",
          "name": "tokenId",
          "type": "uint256"
        },
        {
          "internalType": "string",
          "name": "username",
          "type": "string"
        }
      ],
      "name": "addToWhitelist",
      "outputs": [],
      "stateMutability": "nonpayable",
      "type": "function"
    },
    {
      "inputs": [
        {
          "internalType": "address",
          "name": "to",
          "type": "address"
        },
        {
          "internalType": "uint256",
          "name": "tokenId",
          "type": "uint256"
        }
      ],
      "name": "approve",
      "outputs": [],
      "stateMutability": "nonpayable",
      "type": "function"
    },
    {
      "inputs": [
        {
          "internalType": "address",
          "name": "owner",
          "type": "address"
        }
      ],
      "name": "balanceOf",
      "outputs": [
        {
          "internalType": "uint256",
          "name": "",
          "type": "uint256"
        }
      ],
      "stateMutability": "view",
      "type": "function"
    },
    {
      "inputs": [
        {
          "internalType": "uint256",
          "name": "tokenId",
          "type": "uint256"
        }
      ],
      "name": "getApproved",
      "outputs": [
        {
          "internalType": "address",
          "name": "",
          "type": "address"
        }
      ],
      "stateMutability": "view",
      "type": "function"
    },
    {
      "inputs": [
        {
          "internalType": "uint256",
          "name": "tokenId",
          "type": "uint256"
        }
      ],
      "name": "getContentType",
      "outputs": [
        {
          "internalType": "enum MetaWorkspaceNFT.ContentType",
          "name": "",
          "type": "uint8"
        }
      ],
      "stateMutability": "view",
      "type": "function"
    },
    {
      "inputs": [
        {
          "internalType": "address",
          "name": "creator",
          "type": "address"
        }
      ],
      "name": "getCreatorContent",
      "outputs": [
        {
          "internalType": "uint256[]",
          "name": "",
          "type": "uint256[]"
        }
      ],
      "stateMutability": "view",
      "type": "function"
    },
    {
      "inputs": [
        {
          "internalType": "string",
          "name": "roomId",
          "type": "string"
        }
      ],
      "name": "getRoomContent",
      "outputs": [
        {
          "internalType": "uint256[]",
          "name": "",
          "type": "uint256[]"
        }
      ],
      "stateMutability": "view",
      "type": "function"
    },
    {
      "inputs": [
        {
          "internalType": "string",
          "name": "roomId",
          "type": "string"
        }
      ],
      "name": "getRoomStats",
      "outputs": [
        {
          "internalType": "uint256",
          "name": "totalContent",
          "type": "uint256"
        },
        {
          "internalType": "uint256",
          "name": "voiceCount",
          "type": "uint256"
        },
        {
          "internalType": "uint256",
          "name": "videoCount",
          "type": "uint256"
        }
      ],
      "stateMutability": "view",
      "type": "function"
    },
    {
      "inputs": [
        {
          "internalType": "enum MetaWorkspaceNFT.ContentType",
          "name": "contentType",
          "type": "uint8"
        }
      ],
      "name": "getTotalSupplyByType",
      "outputs": [
        {
          "internalType": "uint256",
          "name": "",
          "type": "uint256"
        }
      ],
      "stateMutability": "view",
      "type": "function"
    },
    {
      "inputs": [
        {
          "internalType": "uint256",
          "name": "tokenId",
          "type": "uint256"
        }
      ],
      "name": "getVideoNFT",
      "outputs": [
        {
          "internalType": "string",
          "name": "ipfsHash",
          "type": "string"
        },
        {
          "internalType": "uint256",
          "name": "duration",
          "type": "uint256"
        },
        {
          "internalType": "string",
          "name": "roomId",
          "type": "string"
        },
        {
          "internalType": "address",
          "name": "creator",
          "type": "address"
        },
        {
          "internalType": "string[]",
          "name": "participants",
          "type": "string[]"
        },
        {
          "internalType": "string",
          "name": "summary",
          "type": "string"
        },
        {
          "internalType": "uint256",
          "name": "timestamp",
          "type": "uint256"
        },
        {
          "internalType": "bool",
          "name": "isPrivate",
          "type": "bool"
        },
        {
          "internalType": "string[]",
          "name": "whitelistedUsers",
          "type": "string[]"
        }
      ],
      "stateMutability": "view",
      "type": "function"
    },
    {
      "inputs": [
        {
          "internalType": "string",
          "name": "roomId",
          "type": "string"
        }
      ],
      "name": "getVideoNFTsByRoom",
      "outputs": [
        {
          "internalType": "uint256[]",
          "name": "",
          "type": "uint256[]"
        }
      ],
      "stateMutability": "view",
      "type": "function"
    },
    {
      "inputs": [
        {
          "internalType": "uint256",
          "name": "tokenId",
          "type": "uint256"
        }
      ],
      "name": "getVoiceNFT",
      "outputs": [
        {
          "internalType": "string",
          "name": "ipfsHash",
          "type": "string"
        },
        {
          "internalType": "uint256",
          "name": "duration",
          "type": "uint256"
        },
        {
          "internalType": "string",
          "name": "roomId",
          "type": "string"
        },
        {
          "internalType": "address",
          "name": "creator",
          "type": "address"
        },
        {
          "internalType": "uint256",
          "name": "timestamp",
          "type": "uint256"
        },
        {
          "internalType": "bool",
          "name": "isPrivate",
          "type": "bool"
        },
        {
          "internalType": "string[]",
          "name": "whitelistedUsers",
          "type": "string[]"
        },
        {
          "internalType": "string",
          "name": "transcription",
          "type": "string"
        }
      ],
      "stateMutability": "view",
      "type": "function"
    },
    {
      "inputs": [
        {
          "internalType": "string",
          "name": "roomId",
          "type": "string"
        }
      ],
      "name": "getVoiceNFTsByRoom",
      "outputs": [
        {
          "internalType": "uint256[]",
          "name": "",
          "type": "uint256[]"
        }
      ],
      "stateMutability": "view",
      "type": "function"
    },
    {
      "inputs": [
        {
          "internalType": "uint256",
          "name": "tokenId",
          "type": "uint256"
        },
        {
          "internalType": "string",
          "name": "username",
          "type": "string"
        }
      ],
      "name": "hasAccess",
      "outputs": [
        {
          "internalType": "bool",
          "name": "",
          "type": "bool"
        }
      ],
      "stateMutability": "view",
      "type": "function"
    },
    {
      "inputs": [
        {
          "internalType": "address",
          "name": "owner",
          "type": "address"
        },
        {
          "internalType": "address",
          "name": "operator",
          "type": "address"
        }
      ],
      "name": "isApprovedForAll",
      "outputs": [
        {
          "internalType": "bool",
          "name": "",
          "type": "bool"
        }
      ],
      "stateMutability": "view",
      "type": "function"
    },
    {
      "inputs": [
        {
          "internalType": "address",
          "name": "to",
          "type": "address"
        },
        {
          "internalType": "string",
          "name": "ipfsHash",
          "type": "string"
        },
        {
          "internalType": "uint256",
          "name": "duration",
          "type": "uint256"
        },
        {
          "internalType": "string",
          "name": "roomId",
          "type": "string"
        },
        {
          "internalType": "string[]",
          "name": "participants",
          "type": "string[]"
        },
        {
          "internalType": "string",
          "name": "summary",
          "type": "string"
        },
        {
          "internalType": "string[]",
          "name": "whitelistedUsers",
          "type": "string[]"
        }
      ],
      "name": "mintVideoNFT",
      "outputs": [
        {
          "internalType": "uint256",
          "name": "",
          "type": "uint256"
        }
      ],
      "stateMutability": "nonpayable",
      "type": "function"
    },
    {
      "inputs": [
        {
          "internalType": "address",
          "name": "to",
          "type": "address"
        },
        {
          "internalType": "string",
          "name": "ipfsHash",
          "type": "string"
        },
        {
          "internalType": "uint256",
          "name": "duration",
          "type": "uint256"
        },
        {
          "internalType": "string",
          "name": "roomId",
          "type": "string"
        },
        {
          "internalType": "string[]",
          "name": "whitelistedUsers",
          "type": "string[]"
        },
        {
          "internalType": "string",
          "name": "transcription",
          "type": "string"
        }
      ],
      "name": "mintVoiceNFT",
      "outputs": [
        {
          "internalType": "uint256",
          "name": "",
          "type": "uint256"
        }
      ],
      "stateMutability": "nonpayable",
      "type": "function"
    },
    {
      "inputs": [],
      "name": "name",
      "outputs": [
        {
          "internalType": "string",
          "name": "",
          "type": "string"
        }
      ],
      "stateMutability": "view",
      "type": "function"
    },
    {
      "inputs": [],
      "name": "owner",
      "outputs": [
        {
          "internalType": "address",
          "name": "",
          "type": "address"
        }
      ],
      "stateMutability": "view",
      "type": "function"
    },
    {
      "inputs": [
        {
          "internalType": "uint256",
          "name": "tokenId",
          "type": "uint256"
        }
      ],
      "name": "ownerOf",
      "outputs": [
        {
          "internalType": "address",
          "name": "",
          "type": "address"
        }
      ],
      "stateMutability": "view",
      "type": "function"
    },
    {
      "inputs": [],
      "name": "renounceOwnership",
      "outputs": [],
      "stateMutability": "nonpayable",
      "type": "function"
    },
    {
      "inputs": [
        {
          "internalType": "string",
          "name": "roomId",
          "type": "string"
        }
      ],
      "name": "roomExists",
      "outputs": [
        {
          "internalType": "bool",
          "name": "",
          "type": "bool"
        }
      ],
      "stateMutability": "view",
      "type": "function"
    },
    {
      "inputs": [
        {
          "internalType": "address",
          "name": "from",
          "type": "address"
        },
        {
          "internalType": "address",
          "name": "to",
          "type": "address"
        },
        {
          "internalType": "uint256",
          "name": "tokenId",
          "type": "uint256"
        }
      ],
      "name": "safeTransferFrom",
      "outputs": [],
      "stateMutability": "nonpayable",
      "type": "function"
    },
    {
      "inputs": [
        {
          "internalType": "address",
          "name": "from",
          "type": "address"
        },
        {
          "internalType": "address",
          "name": "to",
          "type": "address"
        },
        {
          "internalType": "uint256",
          "name": "tokenId",
          "type": "uint256"
        },
        {
          "internalType": "bytes",
          "name": "data",
          "type": "bytes"
        }
      ],
      "name": "safeTransferFrom",
      "outputs": [],
      "stateMutability": "nonpayable",
      "type": "function"
    },
    {
      "inputs": [
        {
          "internalType": "address",
          "name": "operator",
          "type": "address"
        },
        {
          "internalType": "bool",
          "name": "approved",
          "type": "bool"
        }
      ],
      "name": "setApprovalForAll",
      "outputs": [],
      "stateMutability": "nonpayable",
      "type": "function"
    },
    {
      "inputs": [
        {
          "internalType": "bytes4",
          "name": "interfaceId",
          "type": "bytes4"
        }
      ],
      "name": "supportsInterface",
      "outputs": [
        {
          "internalType": "bool",
          "name": "",
          "type": "bool"
        }
      ],
      "stateMutability": "view",
      "type": "function"
    },
    {
      "inputs": [],
      "name": "symbol",
      "outputs": [
        {
          "internalType": "string",
          "name": "",
          "type": "string"
        }
      ],
      "stateMutability": "view",
      "type": "function"
    },
    {
      "inputs": [
        {
          "internalType": "uint256",
          "name": "index",
          "type": "uint256"
        }
      ],
      "name": "tokenByIndex",
      "outputs": [
        {
          "internalType": "uint256",
          "name": "",
          "type": "uint256"
        }
      ],
      "stateMutability": "view",
      "type": "function"
    },
    {
      "inputs": [
        {
          "internalType": "address",
          "name": "owner",
          "type": "address"
        },
        {
          "internalType": "uint256",
          "name": "index",
          "type": "uint256"
        }
      ],
      "name": "tokenOfOwnerByIndex",
      "outputs": [
        {
          "internalType": "uint256",
          "name": "",
          "type": "uint256"
        }
      ],
      "stateMutability": "view",
      "type": "function"
    },
    {
      "inputs": [
        {
          "internalType": "uint256",
          "name": "tokenId",
          "type": "uint256"
        }
      ],
      "name": "tokenURI",
      "outputs": [
        {
          "internalType": "string",
          "name": "",
          "type": "string"
        }
      ],
      "stateMutability": "view",
      "type": "function"
    },
    {
      "inputs": [
        {
          "internalType": "address",
          "name": "owner",
          "type": "address"
        }
      ],
      "name": "tokensOfOwner",
      "outputs": [
        {
          "internalType": "uint256[]",
          "name": "",
          "type": "uint256[]"
        }
      ],
      "stateMutability": "view",
      "type": "function"
    },
    {
      "inputs": [],
      "name": "totalSupply",
      "outputs": [
        {
          "internalType": "uint256",
          "name": "",
          "type": "uint256"
        }
      ],
      "stateMutability": "view",
      "type": "function"
    },
    {
      "inputs": [
        {
          "internalType": "address",
          "name": "from",
          "type": "address"
        },
        {
          "internalType": "address",
          "name": "to",
          "type": "address"
        },
        {
          "internalType": "uint256",
          "name": "tokenId",
          "type": "uint256"
        }
      ],
      "name": "transferFrom",
      "outputs": [],
      "stateMutability": "nonpayable",
      "type": "function"
    },
    {
      "inputs": [
        {
          "internalType": "address",
          "name": "newOwner",
          "type": "address"
        }
      ],
      "name": "transferOwnership",
      "outputs": [],
      "stateMutability": "nonpayable",
      "type": "function"
    }
  ],
  "bytecode": "0x60806040523480156200001157600080fd5b50336040518060400160405280601181526020017013595d1855dbdc9adcdc1858d948139195607a1b815250604051806040016040528060058152602001641355d3919560da1b81525081600090816200006c9190620001b6565b5060016200007b8282620001b6565b5050506001600160a01b038116620000ad57604051631e4fbdf760e01b81526000600482015260240160405180910390fd5b620000b881620000bf565b5062000282565b600a80546001600160a01b038381166001600160a01b0319831681179093556040519116919082907f8be0079c531659141344cd1fd0a4f28419497f9722a3daafe3b4186f6b6457e090600090a35050565b634e487b7160e01b600052604160045260246000fd5b600181811c908216806200013c57607f821691505b6020821081036200015d57634e487b7160e01b600052602260045260246000fd5b50919050565b601f821115620001b157600081815260208120601f850160051c810160208610156200018c5750805b601f850160051c820191505b81811015620001ad5782815560010162000198565b5050505b505050565b81516001600160401b03811115620001d257620001d262000111565b620001ea81620001e3845462000127565b8462000163565b602080601f831160018114620002225760008415620002095750858301515b600019600386901b1c1916600185901b178555620001ad565b600085815260208120601f198616915b82811015620002535788860151825594840194600190910190840162000232565b5085821015620002725787850151600019600388901b60f8161c191681555b5050505050600190811b01905550565b61408580620002926000396000f3fe608060405234801561001057600080fd5b50600436106102065760003560e01c8063715018a61161011a578063b142c0b5116100ad578063d1a308bc1161007c578063d1a308bc146104b0578063d3bb0fbb146104c3578063e985e9c5146104d6578063f062d1d5146104e9578063f2fde38b146104fc57600080fd5b8063b142c0b514610464578063b88d4fde14610477578063b8b12c571461048a578063c87b56dd1461049d57600080fd5b80638da5cb5b116100e95780638da5cb5b1461041857806395d89b4114610429578063a22cb46514610431578063aa3f69521461044457600080fd5b8063715018a6146103c35780637ef11850146103cb5780638462151c146103de57806389943a0a146103f157600080fd5b80632f745c591161019d5780635337c58f1161016c5780635337c58f1461034f578063533c6a9b146103775780636352211e1461038a57806365a3b0af1461039d57806370a08231146103b057600080fd5b80632f745c59146102e85780633f62a41d146102fb57806342842e0e146103295780634f6ccce71461033c57600080fd5b8063095ea7b3116101d9578063095ea7b31461029757806315d46a0e146102ac57806318160ddd146102cd57806323b872dd146102d557600080fd5b8063011c67561461020b57806301ffc9a71461023457806306fdde0314610257578063081812fc1461026c575b600080fd5b61021e610219366004613576565b61050f565b60405161022b9190613598565b60405180910390f35b6102476102423660046135f2565b61057b565b604051901515815260200161022b565b61025f61058c565b60405161022b919061365f565b61027f61027a366004613672565b61061e565b6040516001600160a01b03909116815260200161022b565b6102aa6102a536600461368b565b610647565b005b6102bf6102ba366004613813565b610656565b60405190815260200161022b565b6008546102bf565b6102aa6102e33660046138d9565b6109f8565b6102bf6102f636600461368b565b610a83565b61030e610309366004613915565b610ae8565b6040805193845260208401929092529082015260600161022b565b6102aa6103373660046138d9565b610c40565b6102bf61034a366004613672565b610c60565b61036261035d366004613672565b610cb9565b60405161022b9998979695949392919061399f565b61021e610385366004613915565b6111ae565b61027f610398366004613672565b61139d565b61021e6103ab366004613915565b6113a8565b6102bf6103be366004613576565b61158c565b6102aa6115d4565b6102bf6103d9366004613a37565b6115e8565b61021e6103ec366004613576565b611675565b6104046103ff366004613672565b61170f565b60405161022b989796959493929190613a58565b600a546001600160a01b031661027f565b61025f611bfa565b6102aa61043f366004613adb565b611c09565b610457610452366004613672565b611c14565b60405161022b9190613b2d565b61021e610472366004613915565b611c5f565b6102aa610485366004613b55565b611ccd565b6102aa610498366004613bd1565b611ce5565b61025f6104ab366004613672565b611dc5565b6102476104be366004613bd1565b6122db565b6102bf6104d1366004613c18565b6127a0565b6102476104e4366004613d04565b612b2f565b6102476104f7366004613915565b612b5d565b6102aa61050a366004613576565b612b87565b6001600160a01b0381166000908152600e602090815260409182902080548351818402810184019094528084526060939283018282801561056f57602002820191906000526020600020905b81548152602001906001019080831161055b575b50505050509050919050565b600061058682612bc5565b92915050565b60606000805461059b90613d37565b80601f01602080910402602001604051908101604052809291908181526020018280546105c790613d37565b80156106145780601f106105e957610100808354040283529160200191610614565b820191906000526020600020905b8154815290600101906020018083116105f757829003601f168201915b5050505050905090565b600061062982612bea565b506000828152600460205260409020546001600160a01b0316610586565b610652828233612c22565b5050565b6000808651116106a25760405162461bcd60e51b815260206004820152601260248201527112541194c81a185cda081c995c5d5a5c995960721b60448201526064015b60405180910390fd5b60008451116106e65760405162461bcd60e51b815260206004820152601060248201526f149bdbdb481251081c995c5d5a5c995960821b6044820152606401610699565b600b8054600091826106f783613d87565b91905055905060606040518061014001604052808981526020016000600281111561072457610724613b17565b815260208082018990526001600160a01b038c16604080840191909152606083018b90526080830185905260a083018890524260c08401528851151560e08401526101009092018890526000858152600c90915220815181906107879082613de6565b50602082015160018083018054909160ff19909116908360028111156107af576107af613b17565b0217905550604082015160028201906107c89082613de6565b5060608201516003820180546001600160a01b0319166001600160a01b039092169190911790556080820151600482015560a0820151805161081491600584019160209091019061349d565b5060c082015160068201906108299082613de6565b5060e0820151600782015561010082015160088201805460ff1916911515919091179055610120820151805161086991600984019160209091019061349d565b50905050600d8660405161087d9190613ea6565b908152604080516020928190038301902080546001808201835560009283528483209091018690556001600160a01b038d168252600e845291812080549283018155815291909120018290556108d38983612c2f565b6000896001600160a01b0316837fe5efd8a67bd447b8346c8f086476d2a984e6ec40fc0e927f9be799a1a41ee884898c4260405161091393929190613ec2565b60405180910390a4856040516109299190613ea6565b6040518091039020896001600160a01b0316837f4f74494a437ace75ed3a7741e355017f883a7d84ba99c37d484fda926f122cde8a8c60405161096d929190613ef8565b60405180910390a4886001600160a01b03168660405161098d9190613ea6565b60408051918290038220818352600e838301526d1593d250d157d49150d3d491115160921b6060840152426020840152905190917f946f402aa9e4ffd1567a5174b97656de98a19b002f0097c303d72d53e130d62a919081900360800190a350979650505050505050565b6001600160a01b038216610a2257604051633250574960e11b815260006004820152602401610699565b6000610a2f838333612c49565b9050836001600160a01b0316816001600160a01b031614610a7d576040516364283d7b60e01b81526001600160a01b0380861660048301526024820184905282166044820152606401610699565b50505050565b6000610a8e8361158c565b8210610abf5760405163295f44f760e21b81526001600160a01b038416600482015260248101839052604401610699565b506001600160a01b03919091166000908152600660209081526040808320938352929052205490565b600080600080600d85604051610afe9190613ea6565b9081526040805191829003602090810183208054808302850183019093528284529190830182828015610b5057602002820191906000526020600020905b815481526020019060010190808311610b3c575b505050505090508051935060005b8151811015610c37576000600c6000848481518110610b7f57610b7f613f11565b60209081029190910181015182528101919091526040016000206001015460ff166002811115610bb157610bb1613b17565b03610bc85783610bc081613d87565b945050610c25565b6001600c6000848481518110610be057610be0613f11565b60209081029190910181015182528101919091526040016000206001015460ff166002811115610c1257610c12613b17565b03610c255782610c2181613d87565b9350505b80610c2f81613d87565b915050610b5e565b50509193909250565b610c5b83838360405180602001604052806000815250611ccd565b505050565b6000610c6b60085490565b8210610c945760405163295f44f760e21b81526000600482015260248101839052604401610699565b60088281548110610ca757610ca7613f11565b90600052602060002001549050919050565b606060008181818082808281610cce8b612c5e565b6001600160a01b031603610cf45760405162461bcd60e51b815260040161069990613f27565b60008a8152600c602052604080822081516101408101909252805482908290610d1c90613d37565b80601f0160208091040260200160405190810160405280929190818152602001828054610d4890613d37565b8015610d955780601f10610d6a57610100808354040283529160200191610d95565b820191906000526020600020905b815481529060010190602001808311610d7857829003601f168201915b5050509183525050600182015460209091019060ff166002811115610dbc57610dbc613b17565b6002811115610dcd57610dcd613b17565b8152602001600282018054610de190613d37565b80601f0160208091040260200160405190810160405280929190818152602001828054610e0d90613d37565b8015610e5a5780601f10610e2f57610100808354040283529160200191610e5a565b820191906000526020600020905b815481529060010190602001808311610e3d57829003601f168201915b505050505081526020016003820160009054906101000a90046001600160a01b03166001600160a01b03166001600160a01b031681526020016004820154815260200160058201805480602002602001604051908101604052809291908181526020016000905b82821015610f6d578382906000526020600020018054610ee090613d37565b80601f0160208091040260200160405190810160405280929190818152602001828054610f0c90613d37565b8015610f595780601f10610f2e57610100808354040283529160200191610f59565b820191906000526020600020905b815481529060010190602001808311610f3c57829003601f168201915b505050505081526020019060010190610ec1565b505050508152602001600682018054610f8590613d37565b80601f0160208091040260200160405190810160405280929190818152602001828054610fb190613d37565b8015610ffe5780601f10610fd357610100808354040283529160200191610ffe565b820191906000526020600020905b815481529060010190602001808311610fe157829003601f168201915b50505050508152602001600782015481526020016008820160009054906101000a900460ff1615151515815260200160098201805480602002602001604051908101604052809291908181526020016000905b828210156110fd57838290600052602060002001805461107090613d37565b80601f016020809104026020016040519081016040528092919081815260200182805461109c90613d37565b80156110e95780601f106110be576101008083540402835291602001916110e9565b820191906000526020600020905b8154815290600101906020018083116110cc57829003601f168201915b505050505081526020019060010190611051565b505050915250909150600190508160200151600281111561112057611120613b17565b1461115f5760405162461bcd60e51b815260206004820152600f60248201526e139bdd0818481d9a59195bc8139195608a1b6044820152606401610699565b80600001518160800151826040015183606001518460a001518560c001518660e00151876101000151886101200151995099509950995099509950995099509950509193959799909294969850565b60606000600d836040516111c29190613ea6565b908152604080519182900360209081018320805480830285018301909352828452919083018282801561121457602002820191906000526020600020905b815481526020019060010190808311611200575b505050505090506000805b8251811015611297576001600c600085848151811061124057611240613f11565b60209081029190910181015182528101919091526040016000206001015460ff16600281111561127257611272613b17565b03611285578161128181613d87565b9250505b8061128f81613d87565b91505061121f565b5060008167ffffffffffffffff8111156112b3576112b36136b5565b6040519080825280602002602001820160405280156112dc578160200160208202803683370190505b5090506000805b8451811015611392576001600c600087848151811061130457611304613f11565b60209081029190910181015182528101919091526040016000206001015460ff16600281111561133657611336613b17565b036113805784818151811061134d5761134d613f11565b602002602001015183838061136190613d87565b94508151811061137357611373613f11565b6020026020010181815250505b8061138a81613d87565b9150506112e3565b509095945050505050565b600061058682612bea565b60606000600d836040516113bc9190613ea6565b908152604080519182900360209081018320805480830285018301909352828452919083018282801561140e57602002820191906000526020600020905b8154815260200190600101908083116113fa575b505050505090506000805b8251811015611491576000600c600085848151811061143a5761143a613f11565b60209081029190910181015182528101919091526040016000206001015460ff16600281111561146c5761146c613b17565b0361147f578161147b81613d87565b9250505b8061148981613d87565b915050611419565b5060008167ffffffffffffffff8111156114ad576114ad6136b5565b6040519080825280602002602001820160405280156114d6578160200160208202803683370190505b5090506000805b8451811015611392576000600c60008784815181106114fe576114fe613f11565b60209081029190910181015182528101919091526040016000206001015460ff16600281111561153057611530613b17565b0361157a5784818151811061154757611547613f11565b602002602001015183838061155b90613d87565b94508151811061156d5761156d613f11565b6020026020010181815250505b8061158481613d87565b9150506114dd565b60006001600160a01b0382166115b8576040516322718ad960e21b815260006004820152602401610699565b506001600160a01b031660009081526003602052604090205490565b6115dc612c79565b6115e66000612ca6565b565b6000806115f460085490565b90506000805b8281101561166d57600061160d82610c60565b905085600281111561162157611621613b17565b6000828152600c602052604090206001015460ff16600281111561164757611647613b17565b0361165a578261165681613d87565b9350505b508061166581613d87565b9150506115fa565b509392505050565b606060006116828361158c565b905060008167ffffffffffffffff81111561169f5761169f6136b5565b6040519080825280602002602001820160405280156116c8578160200160208202803683370190505b50905060005b8281101561166d576116e08582610a83565b8282815181106116f2576116f2613f11565b60209081029190910101528061170781613d87565b9150506116ce565b60606000818180808380826117238a612c5e565b6001600160a01b0316036117495760405162461bcd60e51b815260040161069990613f27565b6000898152600c60205260408082208151610140810190925280548290829061177190613d37565b80601f016020809104026020016040519081016040528092919081815260200182805461179d90613d37565b80156117ea5780601f106117bf576101008083540402835291602001916117ea565b820191906000526020600020905b8154815290600101906020018083116117cd57829003601f168201915b5050509183525050600182015460209091019060ff16600281111561181157611811613b17565b600281111561182257611822613b17565b815260200160028201805461183690613d37565b80601f016020809104026020016040519081016040528092919081815260200182805461186290613d37565b80156118af5780601f10611884576101008083540402835291602001916118af565b820191906000526020600020905b81548152906001019060200180831161189257829003601f168201915b505050505081526020016003820160009054906101000a90046001600160a01b03166001600160a01b03166001600160a01b031681526020016004820154815260200160058201805480602002602001604051908101604052809291908181526020016000905b828210156119c257838290600052602060002001805461193590613d37565b80601f016020809104026020016040519081016040528092919081815260200182805461196190613d37565b80156119ae5780601f10611983576101008083540402835291602001916119ae565b820191906000526020600020905b81548152906001019060200180831161199157829003601f168201915b505050505081526020019060010190611916565b5050505081526020016006820180546119da90613d37565b80601f0160208091040260200160405190810160405280929190818152602001828054611a0690613d37565b8015611a535780601f10611a2857610100808354040283529160200191611a53565b820191906000526020600020905b815481529060010190602001808311611a3657829003601f168201915b50505050508152602001600782015481526020016008820160009054906101000a900460ff1615151515815260200160098201805480602002602001604051908101604052809291908181526020016000905b82821015611b52578382906000526020600020018054611ac590613d37565b80601f0160208091040260200160405190810160405280929190818152602001828054611af190613d37565b8015611b3e5780601f10611b1357610100808354040283529160200191611b3e565b820191906000526020600020905b815481529060010190602001808311611b2157829003601f168201915b505050505081526020019060010190611aa6565b5050509152509091506000905081602001516002811115611b7557611b75613b17565b14611bb45760405162461bcd60e51b815260206004820152600f60248201526e139bdd0818481d9bda58d948139195608a1b6044820152606401610699565b80600001518160800151826040015183606001518460e001518561010001518661012001518760c001519850985098509850985098509850985050919395975091939597565b60606001805461059b90613d37565b610652338383612cf8565b600080611c2083612c5e565b6001600160a01b031603611c465760405162461bcd60e51b815260040161069990613f27565b506000908152600c602052604090206001015460ff1690565b6060600d82604051611c719190613ea6565b908152604080519182900360209081018320805480830285018301909352828452919083018282801561056f576020028201919060005260206000209081548152602001906001019080831161055b5750505050509050919050565b611cd88484846109f8565b610a7d3385858585612d97565b33611cef8361139d565b6001600160a01b031614611d535760405162461bcd60e51b815260206004820152602560248201527f4f6e6c7920746f6b656e206f776e65722063616e2061646420746f2077686974604482015264195b1a5cdd60da1b6064820152608401610699565b6000828152600c6020908152604082206009018054600181018255908352912001611d7e8282613de6565b506040513390611d8f908390613ea6565b6040519081900381209084907f79a802bbe07ba4852dcc237f474238cd8fc808b11828c6b1e103d6c11db631f790600090a45050565b60606000611dd283612c5e565b6001600160a01b031603611df85760405162461bcd60e51b815260040161069990613f27565b6000828152600c602052604080822081516101408101909252805482908290611e2090613d37565b80601f0160208091040260200160405190810160405280929190818152602001828054611e4c90613d37565b8015611e995780601f10611e6e57610100808354040283529160200191611e99565b820191906000526020600020905b815481529060010190602001808311611e7c57829003601f168201915b5050509183525050600182015460209091019060ff166002811115611ec057611ec0613b17565b6002811115611ed157611ed1613b17565b8152602001600282018054611ee590613d37565b80601f0160208091040260200160405190810160405280929190818152602001828054611f1190613d37565b8015611f5e5780601f10611f3357610100808354040283529160200191611f5e565b820191906000526020600020905b815481529060010190602001808311611f4157829003601f168201915b505050505081526020016003820160009054906101000a90046001600160a01b03166001600160a01b03166001600160a01b031681526020016004820154815260200160058201805480602002602001604051908101604052809291908181526020016000905b82821015612071578382906000526020600020018054611fe490613d37565b80601f016020809104026020016040519081016040528092919081815260200182805461201090613d37565b801561205d5780601f106120325761010080835404028352916020019161205d565b820191906000526020600020905b81548152906001019060200180831161204057829003601f168201915b505050505081526020019060010190611fc5565b50505050815260200160068201805461208990613d37565b80601f01602080910402602001604051908101604052809291908181526020018280546120b590613d37565b80156121025780601f106120d757610100808354040283529160200191612102565b820191906000526020600020905b8154815290600101906020018083116120e557829003601f168201915b50505050508152602001600782015481526020016008820160009054906101000a900460ff1615151515815260200160098201805480602002602001604051908101604052809291908181526020016000905b8282101561220157838290600052602060002001805461217490613d37565b80601f01602080910402602001604051908101604052809291908181526020018280546121a090613d37565b80156121ed5780601f106121c2576101008083540402835291602001916121ed565b820191906000526020600020905b8154815290600101906020018083116121d057829003601f168201915b505050505081526020019060010190612155565b50505091525090915060009050808260200151600281111561222557612225613b17565b146122905760018260200151600281111561224257612242613b17565b1461226d5760405180604001604052806008815260200167111bd8dd5b595b9d60c21b8152506122af565b60405180604001604052806005815260200164566964656f60d81b8152506122af565b60405180604001604052806005815260200164566f69636560d81b8152505b82516040519192506122c391602001613f54565b60405160208183030381529060405292505050919050565b6000806122e784612c5e565b6001600160a01b03160361230d5760405162461bcd60e51b815260040161069990613f27565b6000838152600c60205260408082208151610140810190925280548290829061233590613d37565b80601f016020809104026020016040519081016040528092919081815260200182805461236190613d37565b80156123ae5780601f10612383576101008083540402835291602001916123ae565b820191906000526020600020905b81548152906001019060200180831161239157829003601f168201915b5050509183525050600182015460209091019060ff1660028111156123d5576123d5613b17565b60028111156123e6576123e6613b17565b81526020016002820180546123fa90613d37565b80601f016020809104026020016040519081016040528092919081815260200182805461242690613d37565b80156124735780601f1061244857610100808354040283529160200191612473565b820191906000526020600020905b81548152906001019060200180831161245657829003601f168201915b505050505081526020016003820160009054906101000a90046001600160a01b03166001600160a01b03166001600160a01b031681526020016004820154815260200160058201805480602002602001604051908101604052809291908181526020016000905b828210156125865783829060005260206000200180546124f990613d37565b80601f016020809104026020016040519081016040528092919081815260200182805461252590613d37565b80156125725780601f1061254757610100808354040283529160200191612572565b820191906000526020600020905b81548152906001019060200180831161255557829003601f168201915b5050505050815260200190600101906124da565b50505050815260200160068201805461259e90613d37565b80601f01602080910402602001604051908101604052809291908181526020018280546125ca90613d37565b80156126175780601f106125ec57610100808354040283529160200191612617565b820191906000526020600020905b8154815290600101906020018083116125fa57829003601f168201915b50505050508152602001600782015481526020016008820160009054906101000a900460ff1615151515815260200160098201805480602002602001604051908101604052809291908181526020016000905b8282101561271657838290600052602060002001805461268990613d37565b80601f01602080910402602001604051908101604052809291908181526020018280546126b590613d37565b80156127025780601f106126d757610100808354040283529160200191612702565b820191906000526020600020905b8154815290600101906020018083116126e557829003601f168201915b50505050508152602001906001019061266a565b50505050815250509050806101000151612734576001915050610586565b60005b81610120015151811015612795578380519060200120826101200151828151811061276457612764613f11565b6020026020010151805190602001200361278357600192505050610586565b8061278d81613d87565b915050612737565b506000949350505050565b6000808751116127e75760405162461bcd60e51b815260206004820152601260248201527112541194c81a185cda081c995c5d5a5c995960721b6044820152606401610699565b600085511161282b5760405162461bcd60e51b815260206004820152601060248201526f149bdbdb481251081c995c5d5a5c995960821b6044820152606401610699565b600b80546000918261283c83613d87565b90915550604080516101408101909152898152909150602081016001815260208082018990526001600160a01b038c16604080840191909152606083018b90526080830189905260a083018890524260c08401528651151560e08401526101009092018690526000848152600c90915220815181906128bb9082613de6565b50602082015160018083018054909160ff19909116908360028111156128e3576128e3613b17565b0217905550604082015160028201906128fc9082613de6565b5060608201516003820180546001600160a01b0319166001600160a01b039092169190911790556080820151600482015560a0820151805161294891600584019160209091019061349d565b5060c0820151600682019061295d9082613de6565b5060e0820151600782015561010082015160088201805460ff1916911515919091179055610120820151805161299d91600984019160209091019061349d565b50905050600d866040516129b19190613ea6565b908152604080516020928190038301902080546001808201835560009283528483209091018590556001600160a01b038d168252600e84529181208054928301815581529190912001819055612a078982612c2f565b6001896001600160a01b0316827fe5efd8a67bd447b8346c8f086476d2a984e6ec40fc0e927f9be799a1a41ee884898c42604051612a4793929190613ec2565b60405180910390a485604051612a5d9190613ea6565b6040518091039020896001600160a01b0316827f8352006b74efaa90a20b3bc0de1be1864bac8917fe240b6e5bf017622d1abd058a89518d604051612aa493929190613fa4565b60405180910390a4886001600160a01b031686604051612ac49190613ea6565b60408051918290038220818352600e838301526d1592511153d7d49150d3d491115160921b6060840152426020840152905190917f946f402aa9e4ffd1567a5174b97656de98a19b002f0097c303d72d53e130d62a919081900360800190a398975050505050505050565b6001600160a01b03918216600090815260056020908152604080832093909416825291909152205460ff1690565b600080600d83604051612b709190613ea6565b908152604051908190036020019020541192915050565b612b8f612c79565b6001600160a01b038116612bb957604051631e4fbdf760e01b815260006004820152602401610699565b612bc281612ca6565b50565b60006001600160e01b0319821663780e9d6360e01b1480610586575061058682612ec2565b600080612bf683612c5e565b90506001600160a01b03811661058657604051637e27328960e01b815260048101849052602401610699565b610c5b8383836001612f12565b610652828260405180602001604052806000815250613018565b6000612c56848484613030565b949350505050565b6000908152600260205260409020546001600160a01b031690565b600a546001600160a01b031633146115e65760405163118cdaa760e01b8152336004820152602401610699565b600a80546001600160a01b038381166001600160a01b0319831681179093556040519116919082907f8be0079c531659141344cd1fd0a4f28419497f9722a3daafe3b4186f6b6457e090600090a35050565b6001600160a01b038216612d2a57604051630b61174360e31b81526001600160a01b0383166004820152602401610699565b6001600160a01b03838116600081815260056020908152604080832094871680845294825291829020805460ff191686151590811790915591519182527f17307eab39ab6107e8899845ad3d59bd9653f200f220920489ca2b5937696c31910160405180910390a3505050565b6001600160a01b0383163b15612ebb57604051630a85bd0160e11b81526001600160a01b0384169063150b7a0290612dd9908890889087908790600401613fcc565b6020604051808303816000875af1925050508015612e14575060408051601f3d908101601f19168201909252612e1191810190614009565b60015b612e7d573d808015612e42576040519150601f19603f3d011682016040523d82523d6000602084013e612e47565b606091505b508051600003612e7557604051633250574960e11b81526001600160a01b0385166004820152602401610699565b805160208201fd5b6001600160e01b03198116630a85bd0160e11b14612eb957604051633250574960e11b81526001600160a01b0385166004820152602401610699565b505b5050505050565b60006001600160e01b031982166380ac58cd60e01b1480612ef357506001600160e01b03198216635b5e139f60e01b145b8061058657506301ffc9a760e01b6001600160e01b0319831614610586565b8080612f2657506001600160a01b03821615155b15612fe8576000612f3684612bea565b90506001600160a01b03831615801590612f625750826001600160a01b0316816001600160a01b031614155b8015612f755750612f738184612b2f565b155b15612f9e5760405163a9fbf51f60e01b81526001600160a01b0384166004820152602401610699565b8115612fe65783856001600160a01b0316826001600160a01b03167f8c5be1e5ebec7d5bd14f71427d1e84f3dd0314c0f7b2291e5b200ac8c7c3b92560405160405180910390a45b505b5050600090815260046020526040902080546001600160a01b0319166001600160a01b0392909216919091179055565b61302283836130fd565b610c5b336000858585612d97565b60008061303e858585613162565b90506001600160a01b03811661309b5761309684600880546000838152600960205260408120829055600182018355919091527ff3f7a9fe364faab93b216da50a3214154f22a0a2b415b23a84c8169e8b636ee30155565b6130be565b846001600160a01b0316816001600160a01b0316146130be576130be8185613256565b6001600160a01b0385166130da576130d5846132d7565b612c56565b846001600160a01b0316816001600160a01b031614612c5657612c568585613386565b6001600160a01b03821661312757604051633250574960e11b815260006004820152602401610699565b600061313583836000612c49565b90506001600160a01b03811615610c5b576040516339e3563760e11b815260006004820152602401610699565b60008061316e84612c5e565b90506001600160a01b0383161561318a5761318a8184866133d6565b6001600160a01b038116156131c8576131a7600085600080612f12565b6001600160a01b038116600090815260036020526040902080546000190190555b6001600160a01b038516156131f7576001600160a01b0385166000908152600360205260409020805460010190555b60008481526002602052604080822080546001600160a01b0319166001600160a01b0389811691821790925591518793918516917fddf252ad1be2c89b69c2b068fc378daa952ba7f163c4a11628f55a4df523b3ef91a4949350505050565b60006132618361158c565b6000838152600760209081526040808320546001600160a01b03881684526006909252909120919250908183146132b857600083815260208281526040808320548584528184208190558352600790915290208290555b6000938452600760209081526040808620869055938552525081205550565b6008546000906132e990600190614026565b6000838152600960205260408120546008805493945090928490811061331157613311613f11565b90600052602060002001549050806008838154811061333257613332613f11565b600091825260208083209091019290925582815260099091526040808220849055858252812055600880548061336a5761336a614039565b6001900381819060005260206000200160009055905550505050565b600060016133938461158c565b61339d9190614026565b6001600160a01b039093166000908152600660209081526040808320868452825280832085905593825260079052919091209190915550565b6133e183838361343a565b610c5b576001600160a01b03831661340f57604051637e27328960e01b815260048101829052602401610699565b60405163177e802f60e01b81526001600160a01b038316600482015260248101829052604401610699565b60006001600160a01b03831615801590612c565750826001600160a01b0316846001600160a01b0316148061347457506134748484612b2f565b80612c565750506000908152600460205260409020546001600160a01b03908116911614919050565b8280548282559060005260206000209081019282156134e3579160200282015b828111156134e357825182906134d39082613de6565b50916020019190600101906134bd565b506134ef9291506134f3565b5090565b808211156134ef5760006135078282613510565b506001016134f3565b50805461351c90613d37565b6000825580601f1061352c575050565b601f016020900490600052602060002090810190612bc291905b808211156134ef5760008155600101613546565b80356001600160a01b038116811461357157600080fd5b919050565b60006020828403121561358857600080fd5b6135918261355a565b9392505050565b6020808252825182820181905260009190848201906040850190845b818110156135d0578351835292840192918401916001016135b4565b50909695505050505050565b6001600160e01b031981168114612bc257600080fd5b60006020828403121561360457600080fd5b8135613591816135dc565b60005b8381101561362a578181015183820152602001613612565b50506000910152565b6000815180845261364b81602086016020860161360f565b601f01601f19169290920160200192915050565b6020815260006135916020830184613633565b60006020828403121561368457600080fd5b5035919050565b6000806040838503121561369e57600080fd5b6136a78361355a565b946020939093013593505050565b634e487b7160e01b600052604160045260246000fd5b604051601f8201601f1916810167ffffffffffffffff811182821017156136f4576136f46136b5565b604052919050565b600067ffffffffffffffff831115613716576137166136b5565b613729601f8401601f19166020016136cb565b905082815283838301111561373d57600080fd5b828260208301376000602084830101529392505050565b600082601f83011261376557600080fd5b613591838335602085016136fc565b600082601f83011261378557600080fd5b8135602067ffffffffffffffff808311156137a2576137a26136b5565b8260051b6137b18382016136cb565b93845285810183019383810190888611156137cb57600080fd5b84880192505b85831015613807578235848111156137e95760008081fd5b6137f78a87838c0101613754565b83525091840191908401906137d1565b98975050505050505050565b60008060008060008060c0878903121561382c57600080fd5b6138358761355a565b9550602087013567ffffffffffffffff8082111561385257600080fd5b61385e8a838b01613754565b965060408901359550606089013591508082111561387b57600080fd5b6138878a838b01613754565b9450608089013591508082111561389d57600080fd5b6138a98a838b01613774565b935060a08901359150808211156138bf57600080fd5b506138cc89828a01613754565b9150509295509295509295565b6000806000606084860312156138ee57600080fd5b6138f78461355a565b92506139056020850161355a565b9150604084013590509250925092565b60006020828403121561392757600080fd5b813567ffffffffffffffff81111561393e57600080fd5b612c5684828501613754565b600081518084526020808501808196508360051b8101915082860160005b85811015613992578284038952613980848351613633565b98850198935090840190600101613968565b5091979650505050505050565b60006101208083526139b38184018d613633565b90508a602084015282810360408401526139cd818b613633565b6001600160a01b038a166060850152838103608085015290506139f0818961394a565b905082810360a0840152613a048188613633565b90508560c084015284151560e0840152828103610100840152613a27818561394a565b9c9b505050505050505050505050565b600060208284031215613a4957600080fd5b81356003811061359157600080fd5b6000610100808352613a6c8184018c613633565b90508960208401528281036040840152613a86818a613633565b6001600160a01b03891660608501526080840188905286151560a085015283810360c08501529050613ab8818661394a565b905082810360e0840152613acc8185613633565b9b9a5050505050505050505050565b60008060408385031215613aee57600080fd5b613af78361355a565b915060208301358015158114613b0c57600080fd5b809150509250929050565b634e487b7160e01b600052602160045260246000fd5b6020810160038310613b4f57634e487b7160e01b600052602160045260246000fd5b91905290565b60008060008060808587031215613b6b57600080fd5b613b748561355a565b9350613b826020860161355a565b925060408501359150606085013567ffffffffffffffff811115613ba557600080fd5b8501601f81018713613bb657600080fd5b613bc5878235602084016136fc565b91505092959194509250565b60008060408385031215613be457600080fd5b82359150602083013567ffffffffffffffff811115613c0257600080fd5b613c0e85828601613754565b9150509250929050565b600080600080600080600060e0888a031215613c3357600080fd5b613c3c8861355a565b9650602088013567ffffffffffffffff80821115613c5957600080fd5b613c658b838c01613754565b975060408a0135965060608a0135915080821115613c8257600080fd5b613c8e8b838c01613754565b955060808a0135915080821115613ca457600080fd5b613cb08b838c01613774565b945060a08a0135915080821115613cc657600080fd5b613cd28b838c01613754565b935060c08a0135915080821115613ce857600080fd5b50613cf58a828b01613774565b91505092959891949750929550565b60008060408385031215613d1757600080fd5b613d208361355a565b9150613d2e6020840161355a565b90509250929050565b600181811c90821680613d4b57607f821691505b602082108103613d6b57634e487b7160e01b600052602260045260246000fd5b50919050565b634e487b7160e01b600052601160045260246000fd5b600060018201613d9957613d99613d71565b5060010190565b601f821115610c5b57600081815260208120601f850160051c81016020861015613dc75750805b601f850160051c820191505b81811015612eb957828155600101613dd3565b815167ffffffffffffffff811115613e0057613e006136b5565b613e1481613e0e8454613d37565b84613da0565b602080601f831160018114613e495760008415613e315750858301515b600019600386901b1c1916600185901b178555612eb9565b600085815260208120601f198616915b82811015613e7857888601518255948401946001909101908401613e59565b5085821015613e965787850151600019600388901b60f8161c191681555b5050505050600190811b01905550565b60008251613eb881846020870161360f565b9190910192915050565b606081526000613ed56060830186613633565b8281036020840152613ee78186613633565b915050826040830152949350505050565b828152604060208201526000612c566040830184613633565b634e487b7160e01b600052603260045260246000fd5b602080825260139082015272151bdad95b88191bd95cdb89dd08195e1a5cdd606a1b604082015260600190565b7f68747470733a2f2f676174657761792e70696e6174612e636c6f75642f697066815261732f60f01b602082015260008251613f9781602285016020870161360f565b9190910160220192915050565b838152826020820152606060408201526000613fc36060830184613633565b95945050505050565b6001600160a01b0385811682528416602082015260408101839052608060608201819052600090613fff90830184613633565b9695505050505050565b60006020828403121561401b57600080fd5b8151613591816135dc565b8181038181111561058657610586613d71565b634e487b7160e01b600052603160045260246000fdfea264697066735822122069d8784f1c4d55d0e86fdd62814dcccbe70a7e2aa0ba62248bd50a55127f7f9e64736f6c63430008140033",
  "linkReferences": {},
  "deployedLinkReferences": {}
}